:020000040800F2
:10000000F80F0020A9610008A5070008A70700084D
:10001000AB070008AF070008B307000800000000A6
:10002000000000000000000000000000B70700080A
:10003000B907000800000000BB070008BD07000862
:10004000C3610008C3610008C3610008C361000800
:10005000C3610008C361000879590008C361000842
:10006000C3610008C3610008C3610008C3610008E0
:10007000C3610008C3610008C3610008C3610008D0
:10008000C3610008C3610008C3610008C3610008C0
:10009000C3610008C3610008C3610008C3610008B0
:1000A000C3610008C3610008C3610008C3610008A0
:1000B000D95E0008C3610008C3610008C36100087D
:1000C000C3610008C3610008C3610008C361000880
:1000D000C36100081D610008A58C0008C361000809
:1000E000C3610008C3610008C3610008C361000860
:1000F000C3610008C3610008C3610008C361000850
:10010000C3610008C3610008C3610008C36100083F
:10011000C3610008C3610008C36100080B8D0008BB
:100120002B580008C3610008C3610008C3610008C0
:10013000C3610008C3610008C3610008C36100080F
:10014000C3610008C3610008C3610008C3610008FF
:10015000C3610008C3610008C3610008C3610008EF
:10016000C3610008C3610008C3610008C3610008DF
:10017000C3610008C3610008C3610008C3610008CF
:10018000C3610008C361000800F002F800F044F801
:100190000AA090E8000C82448344AAF10107DA45E2
:1001A00001D100F039F8AFF2090EBAE80F0013F0F0
:1001B000010F18BFFB1A43F0010318478CD300004E
:1001C000ACD30000103A24BF78C878C1FAD85207DF
:1001D00024BF30C830C144BF04680C6070470000C1
:1001E0000023002400250026103A28BF78C1FBD840
:1001F000520728BF30C148BF0B607047642909F01F
:10020000D384732909F0AD86002070471FB50BF029
:10021000CCFC1FBD10B510BD09F0F8FE1146FFF76C
:10022000F5FF00F012F909F016FF03B4FFF7F2FF33
:1002300003BC05F013FF00002DE9F0438FB0064624
:10024000002400200190BFA1304609F0E9FC0446DB
:1002500004F10108E51C98F80170284609F0F2FC49
:10026000001F00212954342102A809F0BCFD01AA75
:1002700002A9284608F08AFF814602A9B2A009F027
:1002800013FC3846362F79D008DCA0F13100052860
:100290000DD2DFE800F00C0D384A6000372873D02B
:1002A000382872D0392871D0612800D1A1E0B2E09D
:1002B000A7A009F0F9FB9DF808004F2822D19DF86E
:1002C0000900412806D046280AD04C2803D05228DD
:1002D00007D104E005E0A2A009F0E6FB01E000E0A0
:1002E00000BF00BF9DF80C00412806D0482807D069
:1002F0004C2803D04D2804D101E002E001E000E0E9
:1003000000BF00BF87E09CA102A809F089FC18B1DA
:100310009AA009F0C9FB07E09CA102A809F080FCA3
:1003200010B19BA009F0C0FB75E002A99CA009F0E8
:10033000BBFB91A102A809F073FC18B19CA009F0C5
:10034000B3FB07E091A102A809F06AFC10B19DA0DF
:1003500009F0AAFB5FE088A102A809F061FC20B1C6
:100360009DA009F0A1FB08E008E088A102A809F01F
:1003700057FC10B19CA009F097FB4CE07EA102A8AD
:1003800009F04EFC38B102E00EE01FE030E09AA028
:1003900009F08AFB07E07DA102A809F041FC10B139
:1003A0009BA009F081FB36E073A102A809F038FC9C
:1003B00018B19EA009F078FB07E074A102A809F02B
:1003C0002FFC10B19FA009F06FFB24E06AA102A8E6
:1003D00009F026FC18B1A2A009F066FB07E06BA1AA
:1003E00002A809F01DFC10B1A3A009F05DFB12E00A
:1003F00011E061A102A809F013FC18B1A5A009F051
:1004000053FB07E061A102A809F00AFC10B1A6A005
:1004100009F04AFB00BF00BF0FB0BDE8F08330B564
:1004200099B004460D46602101A809F0DCFC602269
:10043000214601A809F070FC01A9A1A009F034FB34
:1004400001A8FFF7F9FE19B030BDA4B000BF00BF8E
:1004500001AC0122A049204609F029FA4FF4A0601E
:1004600005F0C2FEA82005F077FD4FF4165005F008
:1004700003FE00F0ADFA01F08BF905F0E4F905F0A8
:1004800067FA08F03CFF02E0204609F067FAFBE754
:1004900010B502E091A009F007FB05F062FB00280F
:1004A000F8D10A2005F0BAFD02E091A009F0FCFAAB
:1004B00005F023FC0028F8D10A2005F0AFFD02E08A
:1004C00090A009F0F1FA05F0E4FC0028F8D110BD85
:1004D00010B5002403E001248FA009F0E5FA08F02C
:1004E00012FF0028F7D14FF4C87005F097FD03E024
:1004F000012491A009F0D8FA002008F08DFF00280F
:10050000F6D14FF4C87005F089FD03E0012492A0F4
:1005100009F0CAFA08F0A5FF0028F7D14FF4C87017
:1005200005F07CFD03E0012493A009F0BDFA9AA038
:1005300008F0ECFF0028F6D14FF4C87005F06EFD0E
:1005400010BD00002C0000006F757425730D0A00AB
:10055000616972636F6E646974696F6E0D0A000081
:10056000616972636F6E646974696F6E2D3E4D4F81
:1005700044453A204C0D0A004F0000006375727428
:1005800061696E5F4F50454E0D0A00004300000048
:100590006375727461696E5F434C4F53450D0A0079
:1005A000686F6D655F6D6F646525733A200D0A0095
:1005B000686F6D655F6D6F64655F4F50454E0D0AE6
:1005C00000000000686F6D655F6D6F64655F434C90
:1005D0004F53450D0A00000066616E6E696E675FDD
:1005E0004F50454E0D0A000066616E6E696E675F82
:1005F000434C4F53450D0A006C69676874696E6718
:100600005F7061726C6F75725F4F50454E0D0A00DE
:100610006C69676874696E675F7061726C6F757220
:100620005F434C4F53450D0A000000006C6967683A
:1006300074696E675F626564726F6F6D5F4F50457E
:100640004E0D0A006C69676874696E675F62656465
:10065000726F6F6D5F434C4F53450D0A00000000F1
:100660006C69676874696E675F6B69746368656EEF
:100670005F4F50454E0D0A006C69676874696E677C
:100680005F6B69746368656E5F434C4F53450D0A39
:1006900000000000657874656E645F6F7468657251
:1006A0005F4F50454E0D0A00657874656E645F6F4C
:1006B000746865725F434C4F53450D0A000000009B
:1006C0005B494E464F5D7265637620646174613AA2
:1006D00025730D0A00000000B0BC000820444854F7
:1006E00031315F3120696E6974206572726F7200FA
:1006F0002044485431315F3220696E69742065723C
:10070000726F72002044485431315F3320696E6942
:1007100074206572726F72005B4E425F4552524F99
:10072000525D434845434B204D4F44454C20466164
:10073000696C0D0A000000005B4E425F4552524F4B
:10074000525D4D4F44454C2047455443535120463C
:1007500061696C0D0A0000005B4E425F4552524FCA
:10076000525D4D4F44454C20474554434552454703
:10077000204661696C0D0A005B4E425F4552524F44
:10078000525D4D4F44454C205345544E43445020F8
:100790004661696C0D0A000034392E342E38352E2E
:1007A00032333200704700BFFEE700BFFEE700BFF4
:1007B000FEE700BFFEE770477047704770470000D4
:1007C0000CB50020019000907648006840F480301D
:1007D0007449086000BF7348006800F4003000905E
:1007E0000198401C0190009818B90198B0F5A04FED
:1007F000F1D16C48006800F4003010B10120009085
:1008000001E0002000900098012846D16548403062
:10081000006840F0805063494031086062480068D9
:1008200040F44040604908605E48083000685D4917
:10083000083108600846006840F400400860084637
:10084000006840F4A05008605848091F0860081F5D
:10085000006840F08070091F086000BF51480068C0
:1008600000F000700028F9D040F20570504908608F
:100870004C480830006820F003004A4908310860FD
:100880000846006840F00200086000BF4548083094
:10089000006800F00C000828F8D10CBD10B54548E0
:1008A000006840F47000434908603E48006840F02A
:1008B00001003C49086000203A4908310860394885
:1008C00000683D490840374908603C48091D0860F8
:1008D000081F006820F48020091F086000203149AB
:1008E0000C310860FFF76CFF4FF000603149803930
:1008F000086010BD70B500200022022300240221F0
:10090000284D08352D6805F00C0020B1042806D0CC
:10091000082834D107E02A4D2A4E356033E02A4DAD
:10092000284E35602FE01F4D2D1D2D68C5F38054D6
:100930001C4D2D1D2D6805F03F0154B1224DB5FB16
:10094000F1F5184E361D3668C6F3881605FB06F21B
:1009500009E01B4DB5FBF1F5124E361D3668C6F3A6
:10096000881605FB06F20F4D2D1D2D68C5F30145B8
:100970006D1C6B00B2FBF3F5124E356003E0104DB9
:10098000104E356000BF00BF064D08352D68C5F319
:1009900003150E4E705D0B4D2D68C540094E356038
:1009A00070BD00000038024000700040085440074D
:1009B000003C024088ED00E0FFFFF6FE103000240E
:1009C0000024F4000000002000127A00040000203F
:1009D0001CB50121202006F0B1FC4FF4C06000904E
:1009E00001208DF8040000208DF8060003208DF80A
:1009F000050001208DF807006946044805F01CFF3A
:100A00004FF4C061014805F093FF1CBD0014024083
:100A100001B5BDF800000090BDF80000F84908805D
:100A200008BD01B5BDF800000090BDF80000F44914
:100A3000891C088008BD08B5F148801C008800901A
:100A4000BDF8000008BDEE4A10804FF0D842A2F871
:100A50008010704710B504462046FFF7D9FF0520E7
:100A600005F094FAFFF7E7FF10BDE6480089E44976
:100A700008807047E249891C0880704730B50146FC
:100A800001F01F04C1F34513CA0AE50205EB431543
:100A90001544A8B230BD00BF011EA0F10102D0B2C2
:100AA000FAD1704730B504460D46D648808849F2E1
:100AB0004131884205D0D348808845F210318842C0
:100AC00014D1D0494889FFF7A3FF2012FFF7A9FFEF
:100AD000E0B2FFF7A6FFCB498889FFF799FF2812FC
:100AE000FFF79FFFE8B2FFF79CFFABE0C5488088A7
:100AF00046F6040188421DD1C2488079012804D1FC
:100B0000C0480088401E001B84B2BE494889FFF7D8
:100B10007FFF2012FFF785FFE0B2FFF782FFB949A0
:100B20008889FFF775FF2812FFF77BFFE8B2FFF710
:100B300078FF87E0B348808841F66311884247D147
:100B4000B0488079A8B9AF480088401E001B84B225
:100B5000AC494889FFF75CFF0020FFF762FF0020E7
:100B6000FFF75FFF2012FFF75CFFE0B2FFF759FFCE
:100B700016E0A4494889FFF74BFF2012FFF751FF09
:100B8000E0B2FFF74EFF9F490988491EC1F30F20CD
:100B9000FFF747FF9B490978491EC8B2FFF741FF9D
:100BA00098498889FFF734FF2812FFF73AFFE8B227
:100BB000FFF737FF93494988491EC1F30F20FFF71C
:100BC00030FF90498978491EC8B2FFF72AFF39E003
:100BD0008C48808845F21051884220D18949488943
:100BE000FFF716FF2012FFF71CFF86494989491CB1
:100BF00088B2FFF70DFFE0B2FFF713FF8149888944
:100C0000FFF706FF2812FFF70CFF7E498989491C70
:100C100088B2FFF7FDFEE8B2FFF703FF12E0794864
:100C20008079012804D177480088401E001B84B2D7
:100C3000744948892146FFF706FF72498889294689
:100C4000FFF701FF30BD2DE9F04105460E460024B7
:100C50000027A0466B480088A84203DD6948408809
:100C6000B04202DC0020BDE8F08131462846FFF7A3
:100C700019FF6448808849F24131884211D06148A7
:100C8000808846F6040188420BD05E48808845F291
:100C90001031884205D05B48808841F66311884254
:100CA00003D12E20FFF7B4FE0DE05648808845F2B0
:100CB0001051884204D14FF43850FFF7A9FE02E0EA
:100CC0002220FFF7A5FE4F48808849F22031884254
:100CD00002D10220FFF7DFFEFFF7ADFE04464948D0
:100CE000808841F66311884201D12046BBE702208B
:100CF000FFF7D1FEFFF79FFE04464248808849F285
:100D0000413188420BD03F48808845F210318842FB
:100D100005D03C48808845F2105188420AD1022013
:100D2000FFF7B9FEFFF787FE8046E7B24FF6FF7088
:100D300000EA07273348808849F22531884216D0D7
:100D40003048808844F23551884210D02D48808840
:100D5000091F88420BD02B4880884BF205518842EE
:100D600005D0284880884CF20551884201D12046A0
:100D700079E72448808849F2413188420BD02148E4
:100D8000808845F21031884205D01E48808845F29F
:100D90001051884207D1E012C002B91240EA411056
:100DA00040EAE8205FE72046FFF768FE5BE700B512
:100DB0001448808849F24131884211D01148808816
:100DC00046F6040188420BD00E48808845F2103167
:100DD000884205D00B48808841F66311884203D1D0
:100DE0002920FFF715FE14E00648808845F21051CF
:100DF000884209D14FF42450FFF70AFE09E00000B1
:100E00007E00006C3800002040F273110720FFF7CD
:100E10001AFE00BD00B5FD48808849F24131884284
:100E200011D0FA48808846F6040188420BD0F74872
:100E3000808845F21031884205D0F448808841F618
:100E40006311884203D12820FFF7E2FD0EE0EF484E
:100E5000808845F21051884204D14FF42050FFF7AA
:100E6000D7FD03E000210720FFF7EDFD00BDF0B541
:100E7000054600240027E548807901280BD1E34886
:100E8000808846F60401884205D0E048808841F613
:100E90006311884208D1DD488079F0B9DB48808849
:100EA00041F66311884218D1082D15D2DFE805F00C
:100EB0000406080A0C0E101206250DE007250BE0AB
:100EC000042509E0052507E0012505E0002503E0EC
:100ED000032501E0022500BF00BFCC48808849F20D
:100EE0004131884217D0C948808846F604018842BB
:100EF00011D0C648808845F2103188420BD0C348D3
:100F0000808845F21051884205D0C048808841F65B
:100F1000631188427ED1082D1CD2DFE805F004065B
:100F2000090C0F12151800BF14E044F0800411E002
:100F300044F040040EE044F0C0040BE044F0200410
:100F400008E044F0600405E044F0A00402E044F04E
:100F5000E00400BF00BFAD48808845F210518842D0
:100F600002D14FF4585700E03627A848808845F250
:100F7000103188420DD0A548808845F21051884232
:100F800007D0A248808841F66311884201D044F01E
:100F900008049E48808846F60401884201D144F046
:100FA000020421463846FFF74EFD9848808841F6F6
:100FB000631188421DD004F0200068B19348008876
:100FC00092494988884214DA9048068840888F49B7
:100FD0000880084646800CE08C4800888B49498888
:100FE000884206DD89480688408888490880084686
:100FF00046808648808845F21051884254D1834902
:101000004889FFF705FD0020FFF70BFD7F4949895F
:10101000491C00E077E088B2FFF7FAFC0020FFF7F8
:1010200000FD7A494989891C88B2FFF7F1FC7749AC
:101030000988491EC1F30F20FFF7F3FC7349498962
:10104000C91C88B2FFF7E4FC70490978491EC8B290
:10105000FFF7E7FC6D498889FFF7DAFC0020FFF70E
:10106000E0FC6A498989491C88B2FFF7D1FC00205D
:10107000FFF7D7FC65498989891C88B2FFF7C8FC4E
:1010800062494988491EC1F30F20FFF7CAFC5F4936
:101090008989C91C88B2FFF7BBFC5C498978491E65
:1010A000C8B2FFF7BEFC55E058494889FFF7B0FCCD
:1010B0000020FFF7B6FC0020FFF7B3FC5349098876
:1010C000491EC1F30F20FFF7ACFC50490978491EB7
:1010D000C8B2FFF7A6FC4D498889FFF799FC0020AC
:1010E000FFF79FFC0020FFF79CFC48494988491EF8
:1010F000C1F30F20FFF795FC44498978491EC8B217
:10110000FFF78FFC26E0082D1CD2DFE805F004076E
:101110000A0D0F12151844F0300413E044F01004C7
:1011200010E044F020040DE000BF0BE044F0380470
:1011300008E044F0280405E044F0180402E044F01C
:10114000080400BF00BF032744F4805421463846FA
:10115000FFF779FCF0BD30B504460D462946204620
:10116000FFF7A0FCFFF781FC294800882949088087
:1011700030BD70B504460D4616462448808849F2B5
:101180004131884205D02148808845F2103188429B
:1011900014D11E494889FFF73BFC2012FFF741FCA0
:1011A000E0B2FFF73EFC19498889FFF731FC2812AD
:1011B000FFF737FCE8B2FFF734FC93E01348808870
:1011C00045F21051884227D110494889FFF720FC89
:1011D0002012FFF726FC0D494989491C88B2FFF708
:1011E00017FCE0B2FFF71DFC08498889FFF710FCE7
:1011F0002812FFF716FC05498989491C88B2FFF7B8
:1012000007FCE8B2FFF70DFC6CE00000380000209E
:10121000140000208000006CFE48808841F66311B5
:10122000884228D1FB48807920B9FA480088401EBE
:10123000001B84B2F7494889FFF7EAFB2012FFF749
:10124000F0FBE0B2FFF7EDFB2012FFF7EAFBE0B2A4
:10125000FFF7E7FBEF498889FFF7DAFB2812FFF772
:10126000E0FBE8B2FFF7DDFB2812FFF7DAFBE8B29C
:10127000FFF7D7FB36E0E748808846F6040188424E
:101280001DD1E4488079012804D1E2480088401E3D
:10129000001B84B2DF494889FFF7BAFB2012FFF731
:1012A000C0FBE0B2FFF7BDFBDA498889FFF7B0FB6E
:1012B0002812FFF7B6FBE8B2FFF7B3FB12E0D54800
:1012C0008079012804D1D3480088401E001B84B2D5
:1012D000D04948892146FFF7B6FBCE49888929467F
:1012E000FFF7B1FBCB480089CB4908804FF0D840CD
:1012F000A0F8806070BD70B52DED048B0446BE2053
:10130000FFF786FB0520FFF78CFB20460AF096F8D6
:1013100041EC190B9FEDC10B53EC102B0AF0DEF8DA
:1013200041EC180B0AF046F885B22846FFF779FB26
:101330000120FFF776FBFF20FFF773FB0020FFF78C
:1013400070FB0020FFF76DFBBDEC048B70BD10B58A
:101350000446002C66D1AF498871F02008804FF414
:10136000A07048800846808849F2413188420BD0FD
:10137000A848808846F60401884205D0A5488088A0
:1013800045F2103188421AD12C20A24908812A2026
:1013900048812B2088810846808846F604018842CF
:1013A00005D09C48808845F21031884206D14FF420
:1013B000A070984908804FF4F0704880A1E09548EB
:1013C000808845F21051884210D14FF43050914935
:1013D00008814FF4285048814FF42C5088814FF4F5
:1013E000F07008804FF4487048808AE0894880880F
:1013F00041F6631188420DD12C20864908812B20AB
:1014000048812A2088814FF4F07008804FF448709A
:10141000488076E022207F490881202048812120D1
:1014200088816EE001207B4988714FF4A0700880AC
:10143000F02048800846808849F24131884205D032
:101440007448808845F21031884207D12C207149B8
:1014500008812A2048812B2088813FE06D488088C0
:1014600046F60401884207D12C206A4908812B20C6
:1014700048812A20888131E06648808845F21051F1
:10148000884210D14FF43050624908814FF42850FF
:1014900048814FF42C5088814FF4487008804FF4F5
:1014A000F07048801AE05B48808841F663118842FA
:1014B0000DD12C20574908812A2048812B20888172
:1014C0004FF4487008804FF4F070488006E0222006
:1014D0005049088121204881202088814D488088FA
:1014E00046F60401884205D04A48808845F210310A
:1014F000884206D14FF4F070464908804FF4A0703E
:1015000048800020FFF7B3FC10BD2DE9F04F86B0F6
:1015100004460D469046994604EB0800401E86B2EC
:1015200005EB0900401E87B23A48808849F24131F4
:10153000884215D03748808845F2103188420FD054
:101540003448808846F60401884209D031488079C1
:10155000012826D12F48808841F66311884220D186
:101560002C494889FFF754FA2012FFF75AFAE0B2E3
:10157000FFF757FA3012FFF754FAF0B2FFF751FABB
:1015800024498889FFF744FA2812FFF74AFAE8B29B
:10159000FFF747FA3812FFF744FAF8B2FFF741FABB
:1015A000C1E01C48808841F6631188423DD119484A
:1015B0000088A0EB0800001B84B205EB0900401E68
:1015C0001FFA80F913494889FFF722FA2012FFF722
:1015D00028FAE0B2FFF725FA04EB0801491EC1F32F
:1015E0000F20FFF71EFA04EB0801491EC8B2FFF7EF
:1015F00018FA08498889FFF70BFA2812FFF711FA41
:10160000E8B2FFF70EFA4FEA2920FFF70AFA09F0CD
:10161000FF0007E0380000207E00006C666666660A
:1016200066660440FFF7FDF97DE0FE48808845F2DC
:101630001051884244D1FB494889FFF7E9F920124B
:10164000FFF7EFF9F7494989491C88B2FFF7E0F93C
:10165000E0B2FFF7E6F9F3494989891C88B2FFF740
:10166000D7F93012FFF7DDF9EE494989C91C88B274
:10167000FFF7CEF9F0B2FFF7D4F9EA498889FFF70E
:10168000C7F92812FFF7CDF9E6498989491C88B2C4
:10169000FFF7BEF9E8B2FFF7C4F9E2498989891C6E
:1016A00088B2FFF7B5F93812FFF7BBF9DD49898930
:1016B000C91C88B2FFF7ACF9F8B2FFF7B2F932E013
:1016C000D848807901280ED1AA46BB46D548008863
:1016D000801B401E80B20190D2480088001B401E33
:1016E00080B2009003E0A246B346019500975020D7
:1016F00005905120049052200390532002905146AF
:101700000598FFF7A0F959460498FFF79CF901994D
:101710000398FFF798F900990298FFF794F9294682
:101720002046FFF7BFF906B0BDE8F08F70B504465C
:101730000026BC48058840884543BA48808846F65C
:101740000401884216D1B7488079012812D10020BF
:10175000B44988712A2048812B20888100210846BD
:10176000FFF7A0F90120AF4988712B2048812A207A
:10177000888103E000210846FFF794F9FFF775F927
:10178000002602E0A8480480761CAE42FAD370BD61
:1017900000B5A1B00020209001217A2005F0CEFDF7
:1017A0000121084605F002FE4FF400401E90012082
:1017B0008DF87C0000208DF87E0002208DF87D00E1
:1017C00001208DF87F001EA9984805F035F84CF2ED
:1017D00033701E9002208DF87C0000208DF87E0072
:1017E00003208DF87D0001208DF87F001EA9904810
:1017F00005F022F84FF680701E9002208DF87C00D4
:1018000000208DF87E0003208DF87D0001208DF8EA
:101810007F001EA9874805F00FF84FF480501E90F6
:1018200002208DF87C0000208DF87E0003208DF8CA
:101830007D0001208DF87F001EA97F4804F0FCFF89
:101840004FF480501E9002208DF87C0000208DF80F
:101850007E0003208DF87D0001208DF87F001EA9F9
:10186000764804F0E9FF0C220021714805F06FF87A
:101870000C2201216E4805F06AF80C2204216C4804
:1018800005F065F80C220521694805F060F80C2286
:101890000821674805F05BF80C220921644805F02F
:1018A00056F80C220A21624805F051F80C220E214C
:1018B0005F4805F04CF80C220F215D4805F047F811
:1018C0000C2207215B4805F042F80C2208215948F8
:1018D00005F03DF80C220921564805F038F80C2295
:1018E0000A21544805F033F80C220B21514805F029
:1018F0002EF80C2211464F4805F029F80C220D2134
:101900004C4805F024F80C220E214A4805F01FF837
:101910000C220F21474805F01AF80C2211464648C0
:1019200005F015F80C221146444805F010F80F2078
:101930000890002009903C200A9000200B900C9009
:101940000D900E9009200190002002900820039035
:101950000020049005900690079006200F9000202C
:101960001090119010201290002013901590149058
:10197000169017904FF480501890002019904FF453
:1019800080401A9000201B9008A81C9001A81D9070
:101990000FA805F030F80121062005F0B7F8322035
:1019A00004F03CFB01210020FFF74DF8322004F049
:1019B00035FB0020FFF74EF81A49888008468088DA
:1019C000FF280ADB084680884FF6FF71884204D062
:1019D00014488088B0F5134F7ED1D320FFF718F854
:1019E000FFF729F80F498880FFF725F80D4988800F
:1019F000FFF721F80B498880084680884FF6FF7171
:101A000001EA002007498880FFF715F80549898811
:101A10000843044988800846808849F24131884259
:101A20005AD00DE0380000208000006C0004024015
:101A3000000C024000100240001402400018024056
:101A4000BF20FEF7E5FFFEF7F6FFFE498880FEF7B0
:101A5000F2FFFC498880FEF7EEFFFA498880FEF726
:101A6000EAFFF8498880084680884FF6FF7101EA4E
:101A70000020F4498880FEF7DEFFF2498988084398
:101A8000F04988800846808846F6040188427AD06A
:101A9000D420FEF7BDFFFEF7CEFFEA498880FEF7AF
:101AA000CAFFE8498880FEF7C6FFE64988800846F5
:101AB00080884FF6FF7101EA0020E2498880FEF736
:101AC000BAFFE04989880843DE4988800846808853
:101AD00045F21031884200E055E054D04FF45A40AE
:101AE000FEF796FFFEF7A7FFD64988804FF45B40CC
:101AF000FEF78EFFFEF79FFFD24988800846808858
:101B00004FF6FF7101EA0020CE4988804FF45C4017
:101B1000FEF77EFFFEF78FFFCA4989880843C9494F
:101B2000888008468088B0F5004F02D145F21050F9
:101B30008880C448808845F21051884223D0A12073
:101B4000FEF766FFFEF777FFBE498880FEF773FF5A
:101B5000BC498880084680884FF6FF7101EA002062
:101B6000B8498880FEF767FFB64989880843B549B8
:101B700088800846808845F26171884203D141F629
:101B80006310B0498880AF48808849F2413188426B
:101B900011D0AC48808845F2103188420BD0A9485A
:101BA000808845F21051884205D0A648808841F6C9
:101BB000631188421DD1A448006820F00F004FF047
:101BC0002041C1F81C010846D0F81C0120F47060C7
:101BD000C1F81C010846D0F81C0140F00300C1F810
:101BE0001C010846D0F81C0140F40070C1F81C012B
:101BF00028E09448808846F60401884205D0914840
:101C000080884CF2055188421CD18F48006820F032
:101C10000F004FF02041C1F81C010846D0F81C010C
:101C200020F47060C1F81C010846D0F81C0140F097
:101C30000A00C1F81C010846D0F81C0140F44060BD
:101C4000C1F81C017F48808849F2413188427CD12B
:101C5000CF20FEF7DDFE0020FEF7E3FEC120FEF7F9
:101C6000E0FE3020FEF7DDFEED20FEF7D1FE642021
:101C7000FEF7D7FE0320FEF7D4FE1220FEF7D1FEBA
:101C80008120FEF7CEFEE820FEF7C2FE8520FEF79B
:101C9000C8FE1020FEF7C5FE7A20FEF7C2FECB205C
:101CA000FEF7B6FE3920FEF7BCFE2C20FEF7B9FE8B
:101CB0000020FEF7B6FE3420FEF7B3FE0220FEF74A
:101CC000B0FEF720FEF7A4FE2020FEF7AAFEEA20D1
:101CD000FEF79EFE0020FEF7A4FE0020FEF7A1FE08
:101CE000C020FEF795FE1B20FEF79BFEC120FEF7ED
:101CF0008FFE0120FEF795FEC520FEF789FE3020FD
:101D0000FEF78FFE3020FEF78CFEC720FEF780FE28
:101D1000B720FEF786FE3620FEF77AFE4820FEF753
:101D200080FE3A20FEF774FE5520FEF77AFEB120C1
:101D3000FEF76EFE0020FEF774FE1A20FEF771FE1D
:101D4000B620FEF765FE0A2000E09EE0FEF769FE81
:101D5000A220FEF766FEF220FEF75AFE0020FEF7F4
:101D600060FE2620FEF754FE0120FEF75AFEE0201A
:101D7000FEF74EFE0F20FEF754FE2A20FEF751FE1E
:101D80002820FEF74EFE0820FEF74BFE0E20FEF741
:101D900048FE0820FEF745FE5420FEF742FEA9202B
:101DA000FEF73FFE4320FEF73CFE0A20FEF739FE19
:101DB0000F20FEF736FE0020FEF733FE0020FEF770
:101DC00030FE0020FEF72DFE0020FEF72AFEE12067
:101DD000FEF71EFE0020FEF724FE1520FEF721FE72
:101DE0001720FEF71EFE0720FEF71BFE1120FEF750
:101DF00018FE0620FEF715FE2B20FEF712FE5620D9
:101E0000FEF70FFE3C20FEF70CFE0520FEF709FE54
:101E10001020FEF706FE0F20FEF703FE3F20FEF720
:101E200000FE3F20FEF7FDFD0F20FEF7FAFD2B2000
:101E3000FEF7EEFD0020FEF7F4FD0020FEF7F1FDB9
:101E4000012003E0380000201C0100A0FEF7E9FD9E
:101E50003F20FEF7E6FD2A20FEF7DAFD0020FEF720
:101E6000E0FD0020FEF7DDFD0020FEF7DAFDEF20AB
:101E7000FEF7D7FD1120FEF7CBFD782004F0CEF859
:101E80002920FEF7C5FD03F01DB9FE48808846F6FF
:101E9000040188427ED11120FEF7BAFD142004F01F
:101EA000BDF8D020FEF7B4FD0720FEF7BAFD4220B2
:101EB000FEF7B7FD1D20FEF7B4FDD120FEF7A8FD0B
:101EC0000020FEF7AEFD1A20FEF7ABFD0920FEF75D
:101ED000A8FDD220FEF79CFD0120FEF7A2FD2220E6
:101EE000FEF79FFDC020FEF793FD1020FEF799FD41
:101EF0003B20FEF796FD0020FEF793FD0220FEF743
:101F000090FD1120FEF78DFDC520FEF781FD032019
:101F1000FEF787FDC820FEF77BFD0020FEF781FD60
:101F20002520FEF77EFD2120FEF77BFD0520FEF734
:101F300078FD0020FEF775FD0A20FEF772FD652092
:101F4000FEF76FFD2520FEF76CFD7720FEF769FD9B
:101F50005020FEF766FD0F20FEF763FD0020FEF720
:101F600060FDF820FEF754FD0120FEF75AFDFE202B
:101F7000FEF74EFD0020FEF754FD0220FEF751FD56
:101F80002020FEF745FD3620FEF742FD0820FEF733
:101F900048FD00E02AE03A20FEF73AFD5520FEF722
:101FA00040FD2B20FEF734FD0020FEF73AFD002017
:101FB000FEF737FD0120FEF734FD3F20FEF731FD2F
:101FC0002A20FEF725FD0020FEF72BFD0020FEF75E
:101FD00028FD0120FEF725FDDF20FEF722FD7820F9
:101FE00004F01CF82920FEF713FD4CE7A548808873
:101FF00045F21031884240F07C87ED20FEF708FD65
:102000000120FEF70EFDFE20FEF70BFDEE20FEF791
:10201000FFFCDE20FEF705FD2120FEF702FDF1208A
:10202000FEF7F6FC0120FEF7FCFCDF20FEF7F0FCDB
:102030001020FEF7F6FCC420FEF7EAFC8F20FEF726
:10204000F0FCC620FEF7E4FC0020FEF7EAFCE220EC
:10205000FEF7E7FCE220FEF7E4FCE220FEF7E1FCFD
:10206000BF20FEF7D5FCAA20FEF7DBFCB020FEF770
:10207000CFFC0D20FEF7D5FC0020FEF7D2FC0D2092
:10208000FEF7CFFC0020FEF7CCFC1120FEF7C9FCC8
:102090000020FEF7C6FC1920FEF7C3FC0020FEF767
:1020A000C0FC2120FEF7BDFC0020FEF7BAFC2D206D
:1020B000FEF7B7FC0020FEF7B4FC3D20FEF7B1FCB4
:1020C0000020FEF7AEFC5D20FEF7ABFC0020FEF723
:1020D000A8FC5D20FEF7A5FC0020FEF7A2FCB120C5
:1020E000FEF796FC8020FEF79CFC0020FEF799FC92
:1020F0008B20FEF796FC0020FEF793FC9620FEF75F
:1021000090FC0020FEF78DFCB220FEF781FC002041
:10211000FEF787FC0020FEF784FC0220FEF781FC1E
:102120000020FEF77EFC0320FEF77BFC0020FEF77C
:1021300078FCB320FEF76CFC0020FEF772FC002058
:10214000FEF76FFC0020FEF76CFC0020FEF769FC38
:102150000020FEF766FC0020FEF763FC0020FEF77F
:1021600060FC0020FEF75DFC0020FEF75AFC00201A
:10217000FEF757FC0020FEF754FC0020FEF751FC50
:102180000020FEF74EFC0020FEF74BFC0020FEF77F
:1021900048FC0020FEF745FC0020FEF742FC002032
:1021A000FEF73FFC0020FEF73CFC0020FEF739FC68
:1021B0000020FEF736FC0020FEF733FC0020FEF77F
:1021C00030FC0020FEF72DFCB420FEF721FC8B2014
:1021D000FEF727FC0020FEF724FC9620FEF721FCEA
:1021E0000020FEF71EFCA120FEF71BFC0020FEF7DE
:1021F00018FCB520FEF70CFC0220FEF712FC0020B4
:10220000FEF70FFC0320FEF70CFC0020FEF709FC94
:102210000420FEF706FC0020FEF703FCB620FEF7C4
:10222000F7FB0020FEF7FDFB0020FEF7FAFBB720CE
:10223000FEF7EEFB0020FEF7F4FB0020FEF7F1FBBB
:102240003F20FEF7EEFB0020FEF7EBFB5E20FEF7E3
:10225000E8FB0020FEF7E5FB6420FEF7E2FB002030
:10226000FEF7DFFB8C20FEF7DCFB0020FEF7D9FB3E
:10227000AC20FEF7D6FB0020FEF7D3FBDC20FEF7F8
:10228000D0FB01E0380000200020FEF7CAFB7020E0
:10229000FEF7C7FB0020FEF7C4FB9020FEF7C1FB52
:1022A0000020FEF7BEFBEB20FEF7BBFB0020FEF795
:1022B000B8FBDC20FEF7B5FB0020FEF7B2FBB82030
:1022C000FEF7A6FB0020FEF7ACFB0020FEF7A9FB03
:1022D0000020FEF7A6FB0020FEF7A3FB0020FEF780
:1022E000A0FB0020FEF79DFB0020FEF79AFB0020DC
:1022F000FEF797FBBA20FEF78BFB2420FEF791FB3D
:102300000020FEF78EFB0020FEF78BFB0020FEF77F
:1023100088FBC120FEF77CFB2020FEF782FB00201B
:10232000FEF77FFB5420FEF77CFB0020FEF779FBD5
:10233000FF20FEF776FB0020FEF773FBC220FEF7BE
:1023400067FB0A20FEF76DFB0020FEF76AFB042006
:10235000FEF767FB0020FEF764FBC320FEF758FB87
:102360003C20FEF75EFB0020FEF75BFB3A20FEF709
:1023700058FB0020FEF755FB3920FEF752FB0020EA
:10238000FEF74FFB3720FEF74CFB0020FEF749FB22
:102390003C20FEF746FB0020FEF743FB3620FEF70D
:1023A00040FB0020FEF73DFB3220FEF73AFB002009
:1023B000FEF737FB2F20FEF734FB0020FEF731FB42
:1023C0002C20FEF72EFB0020FEF72BFB2920FEF72A
:1023D00028FB0020FEF725FB2620FEF722FB00202D
:1023E000FEF71FFB2420FEF71CFB0020FEF719FB65
:1023F0002420FEF716FB0020FEF713FB2320FEF738
:1024000010FB0020FEF70DFB3C20FEF70AFB00202E
:10241000FEF707FB3620FEF704FB0020FEF701FB6A
:102420003220FEF7FEFA0020FEF7FBFA2F20FEF71F
:10243000F8FA0020FEF7F5FA2C20FEF7F2FA002059
:10244000FEF7EFFA2920FEF7ECFA0020FEF7E9FA92
:102450002620FEF7E6FA0020FEF7E3FA2420FEF736
:10246000E0FA0020FEF7DDFA2420FEF7DAFA002079
:10247000FEF7D7FA2320FEF7D4FA0020FEF7D1FAB0
:10248000C420FEF7C5FA6220FEF7CBFA0020FEF763
:10249000C8FA0520FEF7C5FA0020FEF7C2FA84202C
:1024A000FEF7BFFA0020FEF7BCFAF020FEF7B9FAFB
:1024B0000020FEF7B6FA1820FEF7B3FA0020FEF768
:1024C000B0FAA420FEF7ADFA0020FEF7AAFA182011
:1024D000FEF7A7FA0020FEF7A4FA5020FEF7A1FAB3
:1024E0000020FEF79EFA0C20FEF79BFA0020FEF774
:1024F00098FA1720FEF795FA0020FEF792FA952039
:10250000FEF78FFA0020FEF78CFAF320FEF789FA27
:102510000020FEF786FAE620FEF783FA0020FEF799
:1025200080FAC520FEF774FA3220FEF77AFA00200E
:10253000FEF777FA4420FEF774FA0020FEF771FAEE
:102540006520FEF76EFA0020FEF76BFA7620FEF7A4
:1025500068FA0020FEF765FA8820FEF762FA00208C
:10256000FEF75FFAC620FEF753FA2020FEF759FA6D
:102570000020FEF756FA1720FEF753FA0020FEF768
:1025800050FA0120FEF74DFA0020FEF74AFAC72064
:10259000FEF73EFA0020FEF744FA0020FEF741FA6B
:1025A0000020FEF73EFA0020FEF73BFAC820FEF7B7
:1025B0002FFA0020FEF735FA0020FEF732FA00204D
:1025C000FEF72FFA0020FEF72CFAC920FEF720FABA
:1025D0000020FEF726FA0020FEF723FA0020FEF77F
:1025E00020FA0020FEF71DFA0020FEF71AFA00205C
:1025F000FEF717FA0020FEF714FA0020FEF711FA92
:102600000020FEF70EFA0020FEF70BFA0020FEF77E
:1026100008FA0020FEF705FA0020FEF702FA002073
:10262000FEF7FFF90020FEF7FCF90020FEF7F9F9AC
:10263000E020FEF7EDF91620FEF7F3F90020FEF793
:10264000F0F91C20FEF7EDF90020FEF7EAF9212051
:10265000FEF7E7F90020FEF7E4F93620FEF7E1F98E
:102660000020FEF7DEF94620FEF7DBF90020FEF73A
:10267000D8F95220FEF7D5F90020FEF7D2F96420F0
:10268000FEF7CFF90020FEF7CCF97A20FEF7C9F962
:102690000020FEF7C6F98B20FEF7C3F90020FEF7F5
:1026A000C0F99920FEF7BDF90020FEF7BAF9A8207D
:1026B000FEF7B7F90020FEF7B4F9B920FEF7B1F93B
:1026C0000020FEF7AEF9C420FEF7ABF90020FEF7BC
:1026D000A8F9CA20FEF7A5F90020FEF7A2F9D2203A
:1026E000FEF79FF90020FEF79CF9D920FEF799F933
:1026F0000020FEF796F9E020FEF793F90020FEF7A0
:1027000090F9F320FEF78DF90020FEF78AF9E12019
:10271000FEF77EF91620FEF784F90020FEF781F916
:102720001C20FEF77EF90020FEF77BF92220FEF741
:1027300078F90020FEF775F93620FEF772F90020CF
:10274000FEF76FF94520FEF76CF90020FEF769F9F6
:102750005220FEF766F90020FEF763F96420FEF7C9
:1027600060F90020FEF75DF97A20FEF75AF90020A3
:10277000FEF757F98B20FEF754F90020FEF751F9C8
:102780009920FEF74EF90020FEF74BF9A820FEF73E
:1027900048F90020FEF745F9B920FEF742F900207C
:1027A000FEF73FF9C420FEF73CF90020FEF739F9A7
:1027B000CA20FEF736F90020FEF733F9D220FEF7E3
:1027C00030F90020FEF72DF9D820FEF72AF9002075
:1027D000FEF727F9E020FEF724F90020FEF721F9A3
:1027E000F320FEF71EF90020FEF71BF9E220FEF7AA
:1027F0000FF90520FEF715F90020FEF712F90B205E
:10280000FEF70FF90020FEF70CF91B20FEF709F97F
:102810000020FEF706F93420FEF703F90020FEF74A
:1028200000F94420FEF7FDF80020FEF7FAF84F20EB
:10283000FEF7F7F80020FEF7F4F86120FEF7F1F854
:102840000020FEF7EEF87920FEF7EBF80020FEF707
:10285000E8F88820FEF7E5F80020FEF7E2F8972078
:10286000FEF7DFF80020FEF7DCF8A620FEF7D9F827
:102870000020FEF7D6F8B720FEF7D3F80020FEF7C9
:10288000D0F8C220FEF7CDF80020FEF7CAF8C72026
:10289000FEF7C7F80020FEF7C4F8D120FEF7C1F814
:1028A0000020FEF7BEF8D620FEF7BBF80020FEF7AA
:1028B000B8F8DD20FEF7B5F80020FEF7B2F8F320F7
:1028C000FEF7AFF80020FEF7ACF8E320FEF7A0F823
:1028D0000520FEF7A6F80020FEF7A3F80A20FEF771
:1028E000A0F80020FEF79DF81C20FEF79AF80020C3
:1028F000FEF797F83320FEF794F80020FEF791F8E2
:102900004420FEF78EF80020FEF78BF85020FEF7EB
:1029100088F80020FEF785F86220FEF782F8002094
:10292000FEF77FF87820FEF77CF80020FEF779F8B4
:102930008820FEF776F80020FEF773F89720FEF760
:1029400070F80020FEF76DF8A620FEF76AF8002068
:10295000FEF767F8B720FEF764F80020FEF761F88D
:10296000C220FEF75EF80020FEF75BF8C720FEF7F6
:1029700058F80020FEF755F8D120FEF752F8002055
:10298000FEF74FF8D520FEF74CF80020FEF749F887
:10299000DD20FEF746F80020FEF743F8F320FEF7AF
:1029A00040F80020FEF73DF8E420FEF731F8012062
:1029B000FEF737F80020FEF734F80120FEF731F873
:1029C0000020FEF72EF80220FEF72BF80020FEF77D
:1029D00028F82A20FEF725F80020FEF722F83C20F0
:1029E000FEF71FF80020FEF71CF84B20FEF719F841
:1029F0000020FEF716F85D20FEF713F80020FEF722
:102A000010F87420FEF70DF80020FEF70AF8842075
:102A1000FEF707F80020FEF704F89320FEF701F810
:102A20000020FDF7FEFFA220FDF7FBFF0020FDF7D1
:102A3000F8FFB320FDF7F5FF0020FDF7F2FFBE2001
:102A4000FDF7EFFF0020FDF7ECFFC420FDF7E9FFE5
:102A50000020FDF7E6FFCD20FDF7E3FF0020FDF7A6
:102A6000E0FFD320FDF7DDFF0020FDF7DAFFDD20DA
:102A7000FDF7D7FF0020FDF7D4FFF320FDF7D1FFCE
:102A80000020FDF7CEFFE520FDF7C2FF0020FDF797
:102A9000C8FF0020FDF7C5FF0020FDF7C2FF0020A2
:102AA000FDF7BFFF0220FDF7BCFF0020FDF7B9FFD7
:102AB0002920FDF7B6FF0020FDF7B3FF3C20FDF70E
:102AC000B0FF0020FDF7ADFF4B20FDF7AAFF00206F
:102AD000FDF7A7FF5D20FDF7A4FF0020FDF7A1FF94
:102AE0007420FDF79EFF0020FDF79BFF8420FDF77B
:102AF00098FF0020FDF795FF9320FDF792FF00203F
:102B0000FDF78FFFA220FDF78CFF0020FDF789FF66
:102B1000B320FDF786FF0020FDF783FFBE20FDF701
:102B200080FF0020FDF77DFFC420FDF77AFF002025
:102B3000FDF777FFCD20FDF774FF0020FDF771FF53
:102B4000D320FDF76EFF0020FDF76BFFDC20FDF7C3
:102B500068FF0020FDF765FFF320FDF762FF00200E
:102B6000FDF75FFFE620FDF753FF1120FDF759FF4A
:102B70000020FDF756FF3420FDF753FF0020FDF73E
:102B800050FF5620FDF74DFF0020FDF74AFF76204D
:102B9000FDF747FF0020FDF744FF7720FDF741FFD9
:102BA0000020FDF73EFF6620FDF73BFF0020FDF70C
:102BB00038FF8820FDF735FF0020FDF732FF992010
:102BC000FDF72FFF0020FDF72CFFBB20FDF729FFAD
:102BD0000020FDF726FF9920FDF723FF0020FDF7D9
:102BE00020FF6620FDF71DFF0020FDF71AFF55208E
:102BF000FDF717FF0020FDF714FF5520FDF711FF2B
:102C00000020FDF70EFF4520FDF70BFF0020FDF72C
:102C100008FF4320FDF705FF0020FDF702FF4420D9
:102C2000FDF7FFFE0020FDF7FCFEE720FDF7F0FEBC
:102C30003220FDF7F6FE0020FDF7F3FE5520FDF7EC
:102C4000F0FE0020FDF7EDFE7620FDF7EAFE002005
:102C5000FDF7E7FE6620FDF7E4FE0020FDF7E1FE4C
:102C60006720FDF7DEFE0020FDF7DBFE6720FDF7A5
:102C7000D8FE0020FDF7D5FE8720FDF7D2FE00200C
:102C8000FDF7CFFE9920FDF7CCFE0020FDF7C9FE31
:102C9000BB20FDF7C6FE0020FDF7C3FE9920FDF71F
:102CA000C0FE0020FDF7BDFE7720FDF7BAFE002034
:102CB000FDF7B7FE4420FDF7B4FE0020FDF7B1FE9E
:102CC0005620FDF7AEFE0020FDF7ABFE2320FDF7FA
:102CD000A8FE0020FDF7A5FE3320FDF7A2FE002090
:102CE000FDF79FFE4520FDF79CFE0020FDF799FEB5
:102CF000E820FDF78DFE0020FDF793FE0020FDF794
:102D000090FE9920FDF78DFE0020FDF78AFE8720BA
:102D1000FDF787FE0020FDF784FE8820FDF781FE89
:102D20000020FDF77EFE7720FDF77BFE0020FDF7FB
:102D300078FE6620FDF775FE0020FDF772FE882004
:102D4000FDF76FFE0020FDF76CFEAA20FDF769FE7F
:102D50000020FDF766FEBB20FDF763FE0020FDF7B7
:102D600060FE9920FDF75DFE0020FDF75AFE66200B
:102D7000FDF757FE0020FDF754FE5520FDF751FEEC
:102D80000020FDF74EFE5520FDF74BFE0020FDF71D
:102D900048FE4420FDF745FE0020FDF742FE44209A
:102DA000FDF73FFE0020FDF73CFE5520FDF739FE04
:102DB0000020FDF736FEE920FDF72AFEAA20FDF7E8
:102DC00030FE0020FDF72DFE0020FDF72AFE00203A
:102DD000FDF727FE0020FDF71BFEAA20FDF721FED0
:102DE000CF20FDF715FE0020FDF71BFE0020FDF7AC
:102DF00018FE0020FDF715FE0020FDF712FE002052
:102E0000FDF70FFE0020FDF70CFE0020FDF709FE88
:102E10000020FDF706FE0020FDF703FE0020FDF771
:102E200000FE0020FDF7FDFD0020FDF7FAFD00206B
:102E3000FDF7F7FD0020FDF7F4FD0020FDF7F1FDA3
:102E40000020FDF7EEFD0020FDF7EBFDF020FDF783
:102E5000DFFD0020FDF7E5FD5020FDF7E2FD00203D
:102E6000FDF7DFFD0020FDF7DCFD0020FDF7D9FDBB
:102E7000F320FDF7CDFD0020FDF7D3FDF920FDF790
:102E8000C7FD0620FDF7CDFD1020FDF7CAFD292066
:102E9000FDF7C7FD0020FDF7C4FD3A20FDF7B8FDA2
:102EA0005520FDF7BEFD1120FDF7B2FD642003F0B3
:102EB000B5F82920FDF7ACFD3520FDF7A9FD002070
:102EC000FDF7AFFD5120FDF7A3FDFF20FDF7A9FDA4
:102ED0005320FDF79DFD2C20FDF7A3FD5520FDF7A8
:102EE00097FD8220FDF79DFD2C20FDF791FD02F05E
:102EF000E9B8FE48808845F2105188427ED15521BC
:102F00004FF47040FDF79FFDAA214FF20100FDF73D
:102F10009AFD52214FF20200FDF795FD08214FF274
:102F20000300FDF790FD01214FF20400FDF78BFD3A
:102F30000D214FF43040FDF786FD0D214BF20100CD
:102F4000FDF781FD0D214BF20200FDF77CFD3421E0
:102F50004FF43640FDF777FD34214BF20160FDF769
:102F600072FD34214BF20260FDF76DFD0D214FF42F
:102F70003140FDF768FD0D214BF20110FDF763FDB7
:102F80000D214BF20210FDF75EFD34214FF4374066
:102F9000FDF759FD34214BF20170FDF754FD34214A
:102FA0004BF20270FDF74FFD00214FF43240FDF768
:102FB0004AFD00214BF20120FDF745FD00214BF2B7
:102FC0000220FDF740FD24214FF43840FDF73BFD82
:102FD00024214BF60100FDF736FD24214BF60200BB
:102FE000FDF731FD01214FF43F40FDF72CFD0F218E
:102FF0004FF43340FDF727FD0F2100E0FEE34BF2D5
:103000000130FDF720FD0F214BF20230FDF71BFDD3
:1030100034214FF43940FDF716FD34214BF60110F1
:10302000FDF711FD34214BF60210FDF70CFD0821D0
:103030004FF43540FDF707FD08214BF20150FDF735
:1030400002FD08214BF20250FDF7FDFC03214FF475
:103050004240FDF7F8FC24214FF43A40FDF7F3FC21
:1030600024214BF60120FDF7EEFC24214BF6022033
:10307000FDF7E9FC00214FF43C40FDF7E4FC78212A
:103080004BF60140FDF7DFFC00214BF60240FDF757
:10309000DAFC00214FF43D40FDF7D5FC78214BF6DA
:1030A0000150FDF7D0FC00214BF60250FDF7CBFCA0
:1030B00000214FF43E40FDF7C6FC64214BF6016051
:1030C000FDF7C1FC00214FF45140FDF7BCFC33215A
:1030D0004DF20110FDF7B7FC00214DF20210FDF793
:1030E000B2FC34214DF20310FDF7ADFC00214DF28E
:1030F0000410FDF7A8FC3A214DF20510FDF7A3FCE2
:1031000000214DF20610FDF79EFC4A214DF20710FA
:10311000FDF799FC00214DF20810FDF794FC5C21AD
:103120004DF20910FDF78FFC00214DF20A10FDF75A
:103130008AFC81214DF20B10FDF785FC00214DF238
:103140000C10FDF780FCA6214DF20D10FDF77BFC65
:1031500000214DF20E10FDF776FCE5214DF20F1027
:10316000FDF771FC01214DF21010FDF76CFC1321ED
:103170004DF21110FDF767FC01214DF21210FDF721
:1031800062FC54214DF21310FDF75DFC01214DF25C
:103190001410FDF758FC82214DF21510FDF753FC79
:1031A00001214DF21610FDF74EFCCA214DF2171009
:1031B000FDF749FC02214DF21810FDF744FC0021F7
:1031C0004DF21910FDF73FFC02214DF21A10FDF7E8
:1031D0003AFC01214DF21B10FDF735FC02214DF2A6
:1031E0001C10FDF730FC34214DF21D10FDF72BFCB7
:1031F00002214DF21E10FDF726FC67214DF21F1033
:10320000FDF721FC02214DF22010FDF71CFC84216A
:103210004DF22110FDF717FC02214DF22210FDF7AF
:1032200012FCA4214DF22310FDF70DFC02214DF2FA
:103230002410FDF708FCB7214DF22510FDF703FC23
:1032400002214DF22610FDF7FEFBCF214DF2271093
:10325000FDF7F9FB02214DF22810FDF7F4FBDE210A
:103260004DF22910FDF7EFFB02214DF22A10FDF778
:10327000EAFBF2214DF22B10FDF7E5FB02214DF2A6
:103280002C10FDF7E0FBFE214DF22D10FDF7DBFBCE
:1032900003214DF22E10FDF7D6FB10214DF22F1019
:1032A000FDF7D1FB03214DF23010FDF7CCFB3321AC
:1032B0004DF23110FDF7C7FB03214DF23210FDF73F
:1032C000C2FB6D214DF23310FDF7BDFB00214FF421
:1032D0005240FDF7B8FB33214DF20120FDF7B3FB5F
:1032E00000214DF20220FDF7AEFB01E03800002086
:1032F00034214DF20320FDF7A6FB00214DF20420FE
:10330000FDF7A1FB3A214DF20520FDF79CFB0021C2
:103310004DF20620FDF797FB4A214DF20720FDF7FD
:1033200092FB00214DF20820FDF78DFB5C214DF250
:103330000920FDF788FB00214DF20A20FDF783FBF1
:1033400081214DF20B20FDF77EFB00214DF20C2078
:10335000FDF779FBA6214DF20D20FDF774FB00214E
:103360004DF20E20FDF76FFBE5214DF20F20FDF72A
:103370006AFB01214DF21020FDF765FB13214DF290
:103380001120FDF760FB01214DF21220FDF75BFBE0
:1033900054214DF21320FDF756FB01214DF214206C
:1033A000FDF751FB82214DF21520FDF74CFB012169
:1033B0004DF21620FDF747FBCA214DF21720FDF70D
:1033C00042FB02214DF21820FDF73DFB00214DF29A
:1033D0001920FDF738FB02214DF21A20FDF733FBCF
:1033E00001214DF21B20FDF72EFB02214DF21C2086
:1033F000FDF729FB34214DF21D20FDF724FB0221AE
:103400004DF21E20FDF71FFB67214DF21F20FDF737
:103410001AFB02214DF22020FDF715FB84214DF20D
:103420002120FDF710FB02214DF22220FDF70BFBBE
:10343000A4214DF22320FDF706FB02214DF22420AA
:10344000FDF701FBB7214DF22520FDF7FCFA022123
:103450004DF22620FDF7F7FACF214DF22720FDF798
:10346000F2FA02214DF22820FDF7EDFADE214DF2AD
:103470002920FDF7E8FA02214DF22A20FDF7E3FAB0
:10348000F2214DF22B20FDF7DEFA02214DF22C2025
:10349000FDF7D9FAFE214DF22D20FDF7D4FA0321D4
:1034A0004DF22E20FDF7CFFA10214DF22F20FDF71F
:1034B000CAFA03214DF23020FDF7C5FA33214DF24F
:1034C0003120FDF7C0FA03214DF23220FDF7BBFA9F
:1034D0006D214DF23320FDF7B6FA00214FF4534031
:1034E000FDF7B1FA33214DF20130FDF7ACFA0021BE
:1034F0004DF20230FDF7A7FA34214DF20330FDF70B
:10350000A2FA00214DF20430FDF79DFA3A214DF266
:103510000530FDF798FA00214DF20630FDF793FAD9
:103520004A214DF20730FDF78EFA00214DF20830A6
:10353000FDF789FA5C214DF20930FDF784FA00218C
:103540004DF20A30FDF77FFA81214DF20B30FDF785
:103550007AFA00214DF20C30FDF775FAA6214DF2F2
:103560000D30FDF770FA00214DF20E30FDF76BFAC9
:10357000E5214DF20F30FDF766FA01214DF21030D2
:10358000FDF761FA13214DF21130FDF75CFA0121CC
:103590004DF21230FDF757FA54214DF21330FDF77A
:1035A00052FA01214DF21430FDF74DFA82214DF20D
:1035B0001530FDF748FA01214DF21630FDF743FAB8
:1035C000CA214DF21730FDF73EFA02214DF21830B4
:1035D000FDF739FA00214DF21930FDF734FA0221D6
:1035E0004DF21A30FDF72FFA01214DF21B30FDF795
:1035F0002AFA02214DF21C30FDF725FA34214DF252
:103600001D30FDF720FA02214DF21E30FDF71BFAA6
:1036100067214DF21F30FDF716FA02214DF22030DE
:10362000FDF711FA84214DF22130FDF70CFA022149
:103630004DF22230FDF707FAA4214DF22330FDF7B9
:1036400002FA02214DF22430FDF7FDF9B7214DF2C7
:103650002530FDF7F8F902214DF22630FDF7F3F998
:10366000CF214DF22730FDF7EEF902214DF228303F
:10367000FDF7E9F9DE214DF22930FDF7E4F90221E9
:103680004DF22A30FDF7DFF9F2214DF22B30FDF734
:10369000DAF902214DF22C30FDF7D5F9FE214DF279
:1036A0002D30FDF7D0F903214DF22E30FDF7CBF987
:1036B00010214DF22F30FDF7C6F903214DF23030C5
:1036C000FDF7C1F933214DF23130FDF7BCF903218B
:1036D0004DF23230FDF7B7F96D214DF23330FDF781
:1036E000B2F900214FF45440FDF7ADF933214DF20A
:1036F0000140FDF7A8F900214DF20240FDF7A3F9C2
:1037000034214DF20340FDF79EF900214DF20440B3
:10371000FDF799F93A214DF20540FDF794F90021A2
:103720004DF20640FDF78FF94A214DF20740FDF7B3
:103730008AF900214DF20840FDF785F95C214DF230
:103740000940FDF780F900214DF20A40FDF77BF9B1
:1037500081214DF20B40FDF776F900214DF20C402E
:10376000FDF771F9A6214DF20D40FDF76CF900212E
:103770004DF20E40FDF767F9E5214DF20F40FDF7E0
:1037800062F901214DF21040FDF75DF913214DF270
:103790001140FDF758F901214DF21240FDF753F9A0
:1037A00054214DF21340FDF74EF901214DF2144022
:1037B000FDF749F982214DF21540FDF744F9012149
:1037C0004DF21640FDF73FF9CA214DF21740FDF7C3
:1037D0003AF902214DF21840FDF735F900214DF27A
:1037E0001940FDF730F902214DF21A40FDF72BF98F
:1037F00001214DF21B40FDF726F900E004E3022110
:103800004DF21C40FDF71FF934214DF21D40FDF72C
:103810001AF902214DF21E40FDF715F967214DF20C
:103820001F40FDF710F902214DF22040FDF70BF982
:1038300084214DF22140FDF706F902214DF222408C
:10384000FDF701F9A4214DF22340FDF7FCF8022118
:103850004DF22440FDF7F7F8B7214DF22540FDF772
:10386000F2F802214DF22640FDF7EDF8CF214DF29E
:103870002740FDF7E8F802214DF22840FDF7E3F874
:10388000DE214DF22940FDF7DEF802214DF22A40FB
:10389000FDF7D9F8F2214DF22B40FDF7D4F80221C3
:1038A0004DF22C40FDF7CFF8FE214DF22D40FDF7F3
:1038B000CAF803214DF22E40FDF7C5F810214DF254
:1038C0002F40FDF7C0F803214DF23040FDF7BBF863
:1038D00033214DF23140FDF7B6F803214DF232406D
:1038E000FDF7B1F86D214DF23340FDF7ACF8002142
:1038F0004FF45540FDF7A7F833214DF20150FDF785
:10390000A2F800214DF20250FDF79DF834214DF24E
:103910000350FDF798F800214DF20450FDF793F89D
:103920003A214DF20550FDF78EF800214DF2065078
:10393000FDF789F84A214DF20750FDF784F8002180
:103940004DF20850FDF77FF85C214DF20950FDF76C
:103950007AF800214DF20A50FDF775F881214DF2F9
:103960000B50FDF770F800214DF20C50FDF76BF88D
:10397000A6214DF20D50FDF766F800214DF20E50D4
:10398000FDF761F8E5214DF20F50FDF75CF80121DC
:103990004DF21050FDF757F813214DF21150FDF77D
:1039A00052F801214DF21250FDF74DF854214DF21D
:1039B0001350FDF748F801214DF21450FDF743F87C
:1039C00082214DF21550FDF73EF801214DF21650BF
:1039D000FDF739F8CA214DF21750FDF734F80221EE
:1039E0004DF21850FDF72FF800214DF21950FDF758
:1039F0002AF802214DF21A50FDF725F801214DF267
:103A00001B50FDF720F802214DF21C50FDF71BF86A
:103A100034214DF21D50FDF716F802214DF21E50D3
:103A2000FDF711F867214DF21F50FDF70CF8022148
:103A30004DF22050FDF707F884214DF22150FDF79B
:103A400002F802214DF22250FCF7FDFFA4214DF2B5
:103A50002350FCF7F8FF02214DF22450FCF7F3FF4E
:103A6000B7214DF22550FCF7EEFF02214DF2265012
:103A7000FCF7E9FFCF214DF22750FCF7E4FF0221CC
:103A80004DF22850FCF7DFFFDE214DF22950FCF704
:103A9000DAFF02214DF22A50FCF7D5FFF2214DF258
:103AA0002B50FCF7D0FF02214DF22C50FCF7CBFF3E
:103AB000FE214DF22D50FCF7C6FF03214DF22E5092
:103AC000FCF7C1FF10214DF22F50FCF7BCFF032182
:103AD0004DF23050FCF7B7FF33214DF23150FCF777
:103AE000B2FF03214DF23250FCF7ADFF6D214DF2D4
:103AF0003350FCF7A8FF00214FF45640FCF7A3FF1A
:103B000033214DF20160FCF79EFF00214DF202606F
:103B1000FCF799FF34214DF20360FCF794FF00217C
:103B20004DF20460FCF78FFF3A214DF20560FCF77F
:103B30008AFF00214DF20660FCF785FF4A214DF215
:103B40000760FCF780FF00214DF20860FCF77BFF67
:103B50005C214DF20960FCF776FF00214DF20A600E
:103B6000FCF771FF81214DF20B60FCF76CFF002127
:103B70004DF20C60FCF767FFA6214DF20D60FCF7DB
:103B800062FF00214DF20E60FCF75DFFE5214DF272
:103B90000F60FCF758FF01214DF21060FCF753FF56
:103BA00013214DF21160FCF74EFF01214DF212601E
:103BB000FCF749FF54214DF21360FCF744FF01214B
:103BC0004DF21460FCF73FFF82214DF21560FCF7C7
:103BD0003AFF01214DF21660FCF735FFCA214DF284
:103BE0001760FCF730FF02214DF21860FCF72BFF45
:103BF00000214DF21960FCF726FF02214DF21A60F8
:103C0000FCF721FF01214DF21B60FCF71CFF022194
:103C10004DF21C60FCF717FF34214DF21D60FCF7DC
:103C200012FF02214DF21E60FCF70DFF67214DF2DD
:103C30001F60FCF708FF02214DF22060FCF703FF34
:103C400084214DF22160FCF7FEFE02214DF222603C
:103C5000FCF7F9FEA4214DF22360FCF7F4FE0221EB
:103C60004DF22460FCF7EFFEB7214DF22560FCF722
:103C7000EAFE02214DF22660FCF7E5FECF214DF26F
:103C80002760FCF7E0FE02214DF22860FCF7DBFE26
:103C9000DE214DF22960FCF7D6FE02214DF22A60AA
:103CA000FCF7D1FEF2214DF22B60FCF7CCFE022195
:103CB0004DF22C60FCF7C7FEFE214DF22D60FCF7A3
:103CC000C2FE03214DF22E60FCF7BDFE10214DF225
:103CD0002F60FCF7B8FE03214DF23060FCF7B3FE15
:103CE00033214DF23160FCF7AEFE03214DF232601C
:103CF000FCF7A9FE6D214DF23360FCF7A4FE5521BF
:103D00004FF47040FCF79FFEAA214FF20100FCF730
:103D10009AFE52214FF20200FCF795FE08214FF265
:103D20000300FCF790FE00214FF20400FCF78BFE2D
:103D3000CC214FF43140FCF786FE00214BF20110FC
:103D4000FCF781FE05214FF43640FCF77CFE702124
:103D50004FF43740FCF777FE70214BF20170FCF70F
:103D600072FE01214FF43840FCF76DFE03214BF643
:103D70000100FCF768FE03214BF60200FCF763FE2E
:103D800003214BF60300FCF75EFE02214FF43C409A
:103D9000FCF759FE00214BF60140FCF754FE0021D0
:103DA0004BF60240FCF74FFED0214FF44940FCF7A0
:103DB0004AFE02214CF60110FCF745FE50214CF65C
:103DC0000210FCF740FE50214CF60310FCF73BFEBE
:103DD00050214CF60410FCF736FE00214FF45450ED
:103DE000FCF731FE55214FF46850FCF72CFE4FF4E0
:103DF0008850FCF70DFE782002F0C8F84FF42450EC
:103E0000FCF706FE01F05EB9FE48808849F22531D4
:103E100088427DD147F6F001E520FCF714FE4FF40F
:103E200080710120FCF70FFE4FF4E0610220FCF7E7
:103E30000AFE41F230010320FCF705FE00210420B8
:103E4000FCF701FE40F202210820FCF7FCFD0021F6
:103E50000920FCF7F8FD00210A20FCF7F4FD002101
:103E60000C20FCF7F0FD00210D20FCF7ECFD0021FB
:103E70000F20FCF7E8FD00211020FCF7E4FD0721EE
:103E80001120FCF7E0FD00211220FCF7DCFD0021F1
:103E90001320FCF7D8FD00210720FCF7D4FD41F2E8
:103EA00090611020FCF7CFFD40F227211120FCF794
:103EB000CAFD9D211220FCF7C6FD4FF4C851132006
:103EC000FCF7C1FD25212920FCF7BDFD0D212B208C
:103ED000FCF7B9FD07213020FCF7B5FD40F20331B6
:103EE0003120FCF7B0FD03213220FCF7ACFD40F29D
:103EF00006213520FCF7A7FD08213620FCF7A3FD9D
:103F000040F206413720FCF79EFD4FF4417100E07E
:103F100058E03820FCF797FD07213920FCF793FD86
:103F200040F202613C20FCF78EFD08213D20FCF7A9
:103F30008AFD00215020FCF786FDEF215120FCF77F
:103F400082FD00215220FCF77EFD40F23F115320FC
:103F5000FCF779FD4FF427416020FCF774FD012147
:103F60006120FCF770FD00216A20FCF76CFD002148
:103F70008020FCF768FD00218120FCF764FD002112
:103F80008220FCF760FD00218320FCF75CFD00210E
:103F90008420FCF758FD00218520FCF754FD1021FA
:103FA0009020FCF750FD4FF4C0619220FCF74BFDD0
:103FB00040F233110720FCF746FD22210020FCF7D8
:103FC00042FD1FE78F48808849F2283188427DD121
:103FD00041F28F01EC20FCF736FD41F23421EF2055
:103FE000FCF731FD4FF480710120FCF72CFD4FF4FC
:103FF000E0610220FCF727FD41F230010320FCF7CD
:1040000022FD00210420FCF71EFD40F202210820C1
:10401000FCF719FD00210920FCF715FD00210A20FD
:10402000FCF711FD01210C20FCF70DFD00210D20F6
:10403000FCF709FD00210F20FCF705FD00211020F1
:10404000FCF701FD07211120FCF7FDFC00211220E7
:10405000FCF7F9FC00211320FCF7F5FC01210720F7
:10406000FCF7F1FC322001F0D9FF41F29041102021
:10407000FCF7E9FC40F227211120FCF7E4FC322098
:1040800001F0CCFF8A211220FCF7DDFC322001F088
:10409000C5FF4FF4D0511320FCF7D5FC0621292091
:1040A000FCF7D1FC0D212B20FCF7CDFC322001F0D8
:1040B000B5FF00212020FCF7C6FC00212120FCF7E1
:1040C000C2FC322001F0AAFF002100E075E03020A0
:1040D000FCF7B9FC40F204613120FCF7B4FC40F27B
:1040E00005313220FCF7AFFC00213520FCF7ABFC9A
:1040F00040F609413620FCF7A6FC4FF40171372049
:10410000FCF7A1FC40F201313820FCF79CFC40F2A6
:1041100007713920FCF797FC00213C20FCF793FC49
:1041200040F60A213D20FCF78EFC322001F076FF9C
:1041300000215020FCF787FCEF215120FCF783FC85
:1041400000215220FCF77FFC40F23F115320FCF786
:104150007AFC4FF427416020FCF775FC01216120B7
:10416000FCF771FC00216A20FCF76DFC0021802027
:10417000FCF769FC00218120FCF765FC002182200E
:10418000FCF761FC00218320FCF75DFC002184200A
:10419000FCF759FC00218520FCF755FC10219020EC
:1041A000FCF751FC4FF4C0619220FCF74CFC40F24C
:1041B00033110720FCF747FC24E61248808849F2B7
:1041C000203188427ED100210846FCF73CFC4FF4A8
:1041D00080710120FCF737FC4FF4E0610220FCF70E
:1041E00032FC41F230010320FCF72DFC00210420B9
:1041F000FCF729FC40F202210820FCF724FC0021F6
:10420000092001E038000020FCF71DFC00210A20F5
:10421000FCF719FC01210C20FCF715FC00210D20F6
:10422000FCF711FC00210F20FCF70DFC322001F0FF
:10423000F5FE40F201110720FCF705FC322001F0E9
:10424000EDFE4FF486511020FCF7FDFB07211120F5
:10425000FCF7F9FB4FF488711220FCF7F4FB4FF4E4
:1042600030611320FCF7EFFB00212920FCF7EBFB6A
:1042700044F210012B20FCF7E6FB00215020FCF754
:10428000E2FBEF215120FCF7DEFB00215220FCF77E
:10429000DAFB40F23F115320FCF7D5FB4FF41C51E1
:1042A0006020FCF7D0FB01216120FCF7CCFB002152
:1042B0006A20FCF7C8FB00218020FCF7C4FB00212A
:1042C000812000E030E0FCF7BEFB00218220FCF7FB
:1042D000BAFB00218320FCF7B6FB00218420FCF709
:1042E000B2FB00218520FCF7AEFB10219020FCF7EB
:1042F000AAFB00219220FCF7A6FB01219320FCF7EA
:10430000A2FB4FF488719520FCF79DFB00219720BC
:10431000FCF799FB00219820FCF795FB40F2731104
:104320000720FCF790FB6DE5FE48808849F23131AB
:1043300088427DD141F21401E720FCF784FB4FF461
:1043400080710120FCF77FFB4FF400710220FCF725
:104350007AFB41F238010320FCF775FB40F20221A1
:104360000820FCF770FB00210920FCF76CFB002102
:104370000A20FCF768FB00210C20FCF764FB0021FD
:104380000D20FCF760FB00210F20FCF75CFB0021F7
:104390001020FCF758FB07211120FCF754FB0021EB
:1043A0001220FCF750FB00211320FCF74CFBC82027
:1043B00001F034FE41F290611020FCF744FB40F222
:1043C00027211120FCF73FFB322001F027FE0C21B2
:1043D0001220FCF738FB322001F020FE4FF4006180
:1043E0001320FCF730FB11212920FCF72CFB0B21BB
:1043F0002B20FCF728FB322001F010FE00212020AA
:10440000FCF721FB40F23F112120FCF71CFB0021AF
:104410003020FCF718FB4FF483713120FCF713FBBD
:1044200000213220FCF70FFB4FF40171352000E032
:1044300064E0FCF708FB41F20A613620FCF703FB5D
:1044400040F207713720FCF7FEFA4FF483713820F1
:10445000FCF7F9FA40F207713920FCF7F4FA40F260
:1044600002413C20FCF7EFFA40F60F413D20FCF7FB
:10447000EAFA00215020FCF7E6FAEF215120FCF780
:10448000E2FA00215220FCF7DEFA40F23F115320FD
:10449000FCF7D9FA4FF41C516020FCF7D4FA012143
:1044A0006120FCF7D0FA00216A20FCF7CCFA002149
:1044B0008020FCF7C8FA00218120FCF7C4FA002113
:1044C0008220FCF7C0FA00218320FCF7BCFA00210F
:1044D0008420FCF7B8FA00218520FCF7B4FA1021FB
:1044E0009020FCF7B0FA4FF4C0619220FCF7ABFAD1
:1044F00040F233110720FCF7A6FA83E4894880884C
:1045000045F2084188427DD14FF480710120FCF7CB
:104510009AFA4FF4E0610220FCF795FA41F230017B
:104520000320FCF790FA00210420FCF78CFA40F2FB
:1045300007210820FCF787FA00210920FCF783FAFD
:1045400000210A20FCF77FFA00210C20FCF77BFAFF
:1045500000210D20FCF777FA00210F20FCF773FAF9
:10456000142001F05BFD41F2B0611020FCF76BFA02
:1045700001211120FCF767FA01211720FCF763FAEB
:104580004FF49C711220FCF75EFA4FF40061132087
:10459000FCF759FA09212920FCF755FA09212A20AC
:1045A000FCF751FA0021A420FCF74DFA002150201D
:1045B000FCF749FAEF215120FCF745FA002152207F
:1045C000FCF741FA40F23F115320FCF73CFA4FF45C
:1045D0001C516020FCF737FA01216120FCF733FA07
:1045E00000216A20FCF72FFA00218020FCF72BFA2B
:1045F00000218120FCF727FA00218220FCF723FA12
:10460000002100E024E08320FCF71DFA0021842033
:10461000FCF719FA00218520FCF715FA13219020E8
:10462000FCF711FA00219220FCF70DFA03219320E8
:10463000FCF709FA4FF488719520FCF704FA40F270
:1046400073110720FCF7FFF9322001F0E7FCB8E412
:104650003448808841F2055188427DD100210720ED
:10466000FCF7F1F9322001F0D9FC4FF48E711220E1
:10467000FCF7E9F90121A420FCF7E5F90F21082056
:10468000FCF7E1F908210A20FCF7DDF908210D20EB
:10469000FCF7D9F940F207713020FCF7D4F9072173
:1046A0003120FCF7D0F940F203613220FCF7CBF95E
:1046B0004FF4E0613320FCF7C6F940F202213420C8
:1046C000FCF7C1F902213520FCF7BDF941F60F7165
:1046D0003620FCF7B8F940F207713720FCF7B3F940
:1046E00000213820FCF7AFF900213920FCF7ABF9A5
:1046F00040F207713A20FCF7A6F900213B20FCF7B5
:10470000A2F907213C20FCF79EF900213D20FCF78F
:104710009AF9322001F082FC01210720FCF793F97D
:10472000012101E0380000201720FCF78CF932202D
:1047300001F074FC4FF4BD511020FCF784F940F2F5
:1047400017211120FCF77FF94FF48F711220FCF72D
:104750007AF94FF4706100E098E01320FCF773F9E8
:1047600000212A20FCF76FF90A212920FCF76BF9B8
:104770004FF49F711220FCF766F900215020FCF7DE
:1047800062F9EF215120FCF75EF900215220FCF77D
:104790005AF940F23F115320FCF755F94FF41C51E0
:1047A0006020FCF750F901216120FCF74CF9002151
:1047B0006A20FCF748F900218020FCF744F9002129
:1047C0008120FCF740F900218220FCF73CF9002110
:1047D0008320FCF738F900218420FCF734F900210C
:1047E0008520FCF730F913219020FCF72CF94FF4C9
:1047F00040719220FCF727F905219320FCF723F95B
:1048000000219520FCF71FF900219720FCF71BF9E8
:1048100000219820FCF717F94FF480710120FCF774
:1048200012F94FF4E0610220FCF70DF941F2380172
:104830000320FCF708F900210420FCF704F900210B
:104840000C20FCF700F900210F20FCF7FCF80021F8
:104850002020FCF7F8F800212120FCF7F4F82121B2
:104860000720FCF7F0F8142001F0D8FB61210720A5
:10487000FCF7E9F8142001F0D1FB40F27311072096
:10488000FCF7E1F8142001F0C9FB95E4FE488088AC
:104890004BF2055188427CD100210846FCF7D3F841
:1048A00000210846FCF7CFF800210846FCF7CBF8BA
:1048B00000210846FCF7C7F80121A420FCF7C3F843
:1048C000142001F0ABFB4FF41C516020FCF7BBF847
:1048D00040F202210820FCF7B6F84FF405713020B1
:1048E000FCF7B1F843F215713120FCF7ACF840F257
:1048F00004613220FCF7A7F840F616613320FCF77C
:10490000A2F842F211213420FCF79DF84FF4A8518F
:104910003520FCF798F848F207513620FCF793F859
:1049200041F207413720FCF78EF841F2034138206D
:10493000FCF789F820213920FCF785F81A2190200E
:10494000FCF781F800211020FCF77DF807211120E9
:10495000FCF779F800211220FCF775F800211320EC
:10496000FCF771F8142001F059FB4FF4E6611020B8
:10497000FCF769F840F237111120FCF764F81420B5
:1049800001F04CFB4FF4DC711220FCF75CF81420B2
:1049900000E085E001F042FB4FF470611320FCF76A
:1049A00052F880212A20FCF74EF848212920FCF7F4
:1049B0004AF8142001F032FB4FF480710120FCF71B
:1049C00042F84FF4E0610220FCF73DF841F2380173
:1049D0000320FCF738F840F202210820FCF733F8F6
:1049E00000210A20FCF72FF800210C20FCF72BF8FF
:1049F00000210D20FCF727F830210E20FCF723F8CA
:104A000000215020FCF71FF8EF215120FCF71BF884
:104A100000215220FCF717F840F23F115320FCF719
:104A200012F84FF41C516020FCF70DF801216120B1
:104A3000FCF709F800216A20FCF705F81121902005
:104A4000FCF701F84FF4C0619220FBF7FCFF40F245
:104A500002419320FBF7F7FF02219420FBF7F3FFBD
:104A6000142001F0DBFA01210720FBF7ECFF1420F2
:104A700001F0D4FA61210720FBF7E5FF40F2731142
:104A80000720FBF7E0FF00212020FBF7DCFF0021DF
:104A90002120FBF7D8FF22210020FBF7D4FF11E3F0
:104AA000794880884CF2055188427CD10021084623
:104AB000FBF7C9FF00210846FBF7C5FF142001F0F2
:104AC000ADFA00210846FBF7BEFF00210846FBF7C0
:104AD000BAFF00210846FBF7B6FF00210846FBF7A6
:104AE000B2FF0121A420FBF7AEFF142001F096FADB
:104AF0004FF41C516020FBF7A6FF40F6060108208A
:104B0000FBF7A1FF40F203713020FBF79CFF01216E
:104B10003120FBF798FF04213220FBF794FF4FF47C
:104B200081713320FBF78FFF4FF440713420FBF786
:104B30008AFF40F203113520FBF785FF1F21362045
:104B4000FBF781FF40F203713720FBF77CFF012167
:104B50003820FBF778FF04213920FBF774FF15217B
:104B60009020FBF770FF4FF482611020FBF76BFF82
:104B700040F247211120FBF766FF4FF4DE7112204F
:104B8000FBF761FF4FF460611320FBF75CFF7820B7
:104B900001F044FA4FF480710120FBF754FF4FF409
:104BA0000071022000E052E0FBF74DFF41F23001BE
:104BB0000320FBF748FF08210A20FBF744FF0021F0
:104BC0000C20FBF740FF20210E20FBF73CFF0021CB
:104BD0000F20FBF738FF00212020FBF734FF0021D6
:104BE0002120FBF730FF3D212A20FBF72CFF14206A
:104BF00001F014FA2D212920FBF725FF0021502078
:104C0000FBF721FF4DF2EF015120FBF71CFF0021C4
:104C10005220FBF718FF40F23F115320FBF713FF20
:104C200000216120FBF70FFF00216A20FBF70BFF3B
:104C30004FF440719220FBF706FF05219320FBF70C
:104C400002FF4FF480710720FBF7FDFE3AE20E48A9
:104C5000808844F2315188427ED101210020FBF747
:104C6000F2FE0A2001F0DAF941F228611020FBF788
:104C7000EAFE0E211220FBF7E6FE40F63921132052
:104C8000FBF7E1FE0A2001E03800002001F0C6F940
:104C900040211120FBF7D7FE50211520FBF7D3FE52
:104CA0000A2001F0BBF91E211220FBF7CCFE0A20DE
:104CB00001F0B4F94FF4B1511020FBF7C4FE42F6F5
:104CC00039211320FBF7BFFE0A2001F0A7F94FF4AA
:104CD00080710120FBF7B7FE4FF440710220FBF713
:104CE000B2FE41F238010320FBF7ADFE40F2022193
:104CF0000820FBF7A8FE08210A20FBF7A4FE0021EC
:104D00003020FBF7A0FE40F202413120FBF79BFE72
:104D10004FF483713220FBF796FE40F203513320AB
:104D2000FBF791FE4FF482713420FBF78CFE40F2CA
:104D300001313520FBF787FE40F207713620FBF783
:104D400082FE40F205313720FBF77DFE4FF4027101
:104D50003820FBF778FE00E03EE040F60B7139208A
:104D6000FBF771FE02214120FBF76DFE4FF41C5151
:104D70006020FBF768FE01216120FBF764FE4FF421
:104D800004719020FBF75FFE4FF485719220FBF7D2
:104D90005AFE04219320FBF756FE4FF48071A020A9
:104DA000FBF751FE01210720FBF74DFE21210720D3
:104DB000FBF749FE23210720FBF745FE332107209F
:104DC000FBF741FE40F233110720FBF73CFE0021C8
:104DD000A020FBF738FE75E1F748808844F2355192
:104DE00088427CD130211520FBF72DFE10219A201E
:104DF000FBF729FE20211120FBF725FE43F2284175
:104E00001020FBF720FE02211220FBF71CFE41F2CE
:104E100038011320FBF717FE282001F0FFF81221BC
:104E20000846FBF710FE282001F0F8F843F2204175
:104E30001020FBF708FE43F238011320FBF703FEB6
:104E4000462001F0EBF800213020FBF7FCFD40F29A
:104E500002413120FBF7F7FD40F207313220FBF72A
:104E6000F2FD4FF441713320FBF7EDFD04213420B6
:104E7000FBF7E9FD40F201413520FBF7E4FD40F28C
:104E800007713620FBF7DFFD40F205313720FBF7D5
:104E9000DAFD4FF4C2613820FBF7D5FD4FF4C26153
:104EA0003920FBF7D0FD4FF480710120FBF7CBFDDB
:104EB0004FF440710220FBF7C6FD41F230010320A0
:104EC000FBF7C1FD40F608010820FBF7BCFD0821F7
:104ED0000A20FBF7B8FD4FF41C51602000E033E0DE
:104EE000FBF7B1FD01216120FBF7ADFD4FF49F7190
:104EF0009020FBF7A8FD4FF480719220FBF7A3FDF3
:104F00004FF480719320FBF79EFD4FF44051A02099
:104F1000FBF799FD1021A320FBF795FD0121072048
:104F2000FBF791FD21210720FBF78DFD23210720B1
:104F3000FBF789FD33210720FBF785FD40F2331194
:104F40000720FBF780FDBDE09B48808841F6631198
:104F50008842F8D1E220FBF75BFD1D20FBF761FDE5
:104F60000220FBF75EFD0420FBF75BFD642001F0EF
:104F70000DF8E020FBF74CFD0120FBF752FD0A2065
:104F800001F04CF8E020FBF743FD0320FBF749FD5F
:104F90000C2001F043F80120FBF73AFD0A2001F054
:104FA0003DF8E620FBF734FD2F20FBF73AFDFF200C
:104FB000FBF737FDFF20FBF734FDB020FBF728FDA2
:104FC0002020FBF72EFD0020FBF72BFD0320FBF735
:104FD00028FD40F21F30FBF724FD0120FBF721FDE7
:104FE00040F2DF10FBF71DFD0020FBF71AFDB42097
:104FF000FBF70EFD0420FBF714FD40F21F40FBF70A
:1050000010FD0020FBF70DFD2E20FBF70AFD002010
:10501000FBF707FD0020FBF704FD0020FBF701FD77
:105020000020FBF7FEFCB620FBF7F2FC0220FBF7AA
:10503000F8FC4FF40370FBF7F4FC0020FBF7F1FCE5
:105040001720FBF7EEFC1520FBF7EBFC0020FBF72D
:10505000E8FC0020FBF7E5FCF020FBF7D9FC03207F
:10506000FBF7DFFC2920FBF7D3FCD020FBF7D0FCBB
:105070000020FBF7D6FCBE20FBF7CAFC0520FBF79F
:10508000D0FCFE20FBF7CDFC0120FBF7CAFC002082
:10509000FBF7C7FC0020FBF7C4FC0020FBF7C1FCBA
:1050A000B820FBF7B5FC0320FBF7BBFC0120FBF7A6
:1050B000B8FCBA20FBF7ACFC0120FBF7B2FC642083
:1050C000FCF719F90020FCF742F901203B49086080
:1050D0004FF6FF70FCF72AFB21B000BD2DE9FC4F15
:1050E00005460E4617469846DDF82C9000200190A4
:1050F0003148808846F60401884229D12E488079BB
:10510000012825D1AB4635462B480088C01B401EE0
:1051100086B2474628480088A0EB0B00401E1FFAC5
:1051200080F80020244988712A2048812B2088811A
:1051300043463A4631462846CDF80090FFF7CEFF69
:1051400001201D4988712B2048812A2088811DE07B
:10515000781B401C80B20190344615E02146284659
:10516000FBF7A0FCFBF781FC4FF0000A07E04FF0D3
:10517000D840A0F880900AF101001FFA80FA019847
:105180008245F4DB601C84B24445E7DDBDE8FC8F5A
:105190002DE9F84F07460D4690469946DDF828B0B0
:1051A000A8EB0700401C1FFA80FAA9EB0500401C81
:1051B00080B20090002418E038000020BC824042F9
:1051C000281981B23846FBF76DFCFBF74EFC002630
:1051D00007E004FB0A603BF81000F8490880701CE7
:1051E00086B25645F5DB601C84B200988442E7DB4A
:1051F000BDE8F88F2DE9FF4F84B081468A46002034
:10520000039002900698A0EB09050798A0EB0A0608
:10521000CDF80490CDF800A0002D01DD012705E0B8
:105220000DB9002702E04FF0FF376D42002E02DD7E
:105230004FF0010806E016B94FF0000802E04FF009
:10524000FF387642B54201DD2C4600E034464FF08F
:10525000000B21E0009A91B2019A90B2FBF77BFF1C
:105260000398284403900298304402900398A04287
:1052700005DD0398001B03900198384401900298C3
:10528000A04205DD0298001B029000984044009067
:105290000BF101001FFA80FB601C8345DADD08B0CA
:1052A000BDE8F08FF0B504460D4616461F462B4666
:1052B000324629462046FFF79DFF3B4622462946B7
:1052C0002046FFF797FF3B46324639462046FFF718
:1052D00091FF3B46324629463046FFF78BFFF0BD33
:1052E0002DE9F04306460F4690460024454603202C
:1052F000A0EB48093CE07A1B91B2321990B2FBF75F
:105300002AFF3A1B91B2721990B2FBF724FF3A19A7
:1053100091B2721990B2FBF71EFF7A1991B232194D
:1053200090B2FBF718FF7A1991B2321B90B2FBF7DB
:1053300012FF3A1991B2721B90B2FBF70CFF7A1B65
:1053400091B2321B90B2FBF706FF3A1B91B2721B6F
:1053500090B2FBF700FF641CB9F1000F03DAA00064
:10536000801D814404E0601B80000A3081446D1E72
:10537000AC42C0DDBDE8F0832DE9F84F80460E4613
:1053800017461C46B3462046E31704EB5373DB1065
:1053900021464FEAE47C04EB5C7C4FEAEC0CA4EB86
:1053A000CC0CBCF1000F02D04FF0010C01E04FF02B
:1053B000000C6344224604EBD27C4FEA6C0C03FBE6
:1053C0000CF3DBB20093A7F12000C7B2002556E032
:1053D0000C2C07D107EB4700794901EB800010F84E
:1053E000059013E0102C05D1764800EB071010F85B
:1053F00005900BE0182C07D107EBC700724901EBB1
:10540000800010F8059001E0BDE8F88F4FF0000A29
:105410002FE009F0800030B16C48028831464046E8
:10542000FBF7A7FE07E00A9828B9694802883146C9
:105430004046FBF79EFE4FEA49604FEA1069701C38
:1054400086B264484088B04200DCDDE7A6EB0B0082
:10545000A0420AD15E4608F101001FFA80F85D48BB
:105460000088404500DCCFE706E00AF1010000F0CB
:10547000FF0ABAF1080FCCDB00BF681CC5B2009868
:105480008542A5DB00BFBFE710B50246012000E062
:1054900050430B1EA1F10104E1B2F9D110BD2DE979
:1054A000FF4F81B0074691461E460E9D4FF0000A01
:1054B000002439E0301B401EC1B20A20FFF7E4FF90
:1054C000B9FBF0F00A21B0FBF1F201FB1208BAF1CE
:1054D000000F16D1701EA04213DDB8F1000F0ED1DF
:1054E0000020AB4605EBDB71491001FB0471009015
:1054F00088B22B4620220299FFF73EFF12E04FF0C0
:10550000010A0020AB4605EBDB71491001FB047179
:10551000009088B208F13001CAB22B460299FFF719
:105520002BFF00BF601CC4B2B442C3DB05B0BDE8B2
:10553000F08F2DE9FF4F82B0064692461F46DDE907
:105540000F480020019000255CE0781B401EC1B28E
:105550000A20FFF799FFBAFBF0F00A21B0FBF1F245
:1055600001FB1209019840BB781EA84236DDB9F153
:10557000000F31D108F0800078B108F00100A34697
:1055800004EBDB71491001FB0561009088B22346F2
:1055900030220399FFF7F0FE0EE008F00100A34669
:1055A00004EBDB71491001FB0561009088B22346D2
:1055B00020220399FFF7E0FE22E00FE08000006C5C
:1055C000BCBC000830C1000820C70008140000203F
:1055D00016000020380000200120019008F0010092
:1055E000A34604EBDB71491001FB0561009088B212
:1055F00009F13001CAB223460399FFF7BDFE00BF8F
:10560000681CC5B2BD42A0DB06B0BDE8F08F2DE935
:10561000F84704460D4690469946DDE9096704F0CF
:10562000FF0A08EB04001FFA80F809EB05001FFAD7
:1056300080F916E0444502DB5446A81985B24D4571
:1056400000DB14E0002000903A78334629462046DB
:10565000FFF792FE304606EBD07104EB61018CB28D
:105660007F1C38787E2802DC38782028E2DA00BFF8
:10567000BDE8F88700B58DB00121084601F05EFE57
:105680000121080201F0B4FEE0200B9003208DF808
:10569000300000208DF833000BA99F4801F0CCF8B2
:1056A0000121080201F0F9FE00214FF4807001F0A1
:1056B000F4FE002007900A904FF480400990C0004B
:1056C000089007A800F03AFE0020019001208DF814
:1056D00008008DF8090000200390059003208DF844
:1056E000180001A98D4800F0FAFD072301220521C9
:1056F0008A4800F07AFE072302220621874800F03C
:1057000074FE072303221946844800F06EFE01212F
:10571000824800F015FF0121804800F006FF0121BA
:105720007E4800F022FE0DB000BD2DE9F04190B0A2
:1057300004460D4616461F46DDF8588078488442D8
:1057400004D90121880501F0F9FD03E00121480594
:1057500001F0F4FD204603F093F800BF204603F06B
:10576000B8F90028FAD10195029603970490CDF874
:10577000148006904FF480600790400008908000ED
:10578000099040110A9000020B9000200C90032019
:105790000D9000200E900F9001A9204603F012F901
:1057A00038208DF8000001208DF801008DF80200EE
:1057B0008DF80300684600F01CFD00BF584810300B
:1057C00003F087F90028F9D101215548103003F082
:1057D00033F910B0BDE8F08130B50023002021E09E
:1057E000002114E001EB41044E4D05EBC40434F8F4
:1057F0001040002C09DD01EB410405EBC40434F832
:1058000010401444A2B25C1CE3B24C1CE1B20A2961
:10581000E8DB92FBF3F4444D25F81040002200230E
:10582000441CE0B20328DBDB30BD10B53F493C48E7
:10583000103003F05EF9012804D13C49384810309B
:1058400003F073F910BD08B5FFF714FF7820354B4E
:10585000324A4C320021009031481030FFF765FF8A
:1058600008BD70B52DED0A8B0546FFF7B5FF2E4834
:1058700030F81540002C00DC012400EE104AB8EE90
:10588000400ADFED2B0A20EE200ADFED2A0A80EE27
:10589000208A9FED270A30EE480AC0EE080A10EE73
:1058A000906A304606F010F941EC1B0B9FED220B7D
:1058B00053EC102B05F012FE41EC1A0B05F034FBF3
:1058C00009EE100AB3EE0E0AC9EE000A10EE906A55
:1058D000304606F0F9F841EC1C0B9FED191BB0EEB9
:1058E0004C0AF0EE6C0A04F0D7FBB0EE40BAF0EED2
:1058F00060BA9FED150B53EC102B51EC1B0B05F010
:10590000EDFD41EC1A0B05F00FFB08EE900AB0EE2E
:10591000680ABDEC0A8B70BD000002400020014007
:105920000064024046000020360100202080001064
:105930003333534000008045CDCCCCCCCCCC12408E
:10594000000000408D9700C000000040332F8340CE
:105950001CB50121084601F0F1FC01200090022055
:105960008DF807006946034800F066FF00F017F85D
:105970001CBD00000000024010B50A2000F04EFBE4
:10598000012002F074FF19A004F08EF81F4800688F
:1059900008B9012000E000201C49086010BD0EB5C8
:1059A0000121880301F024FD0021084602F055F88A
:1059B0000120009000208DF8040008208DF80500DB
:1059C00001208DF80600684602F0E0FE06208DF802
:1059D000080000208DF8090002208DF80A0001203F
:1059E0008DF80B0002A800F004FC0EBD0D0ABAEC05
:1059F000CDE2C8C8CACDB5E7BFAAB9D8BCE0B2E20B
:105A0000B5BDD3D0C8CB0D0A00000000A882424229
:105A100010B56248006820F0C00060490860084680
:105A2000006840F04000086000205D4908601420D4
:105A300000F0F4FA01205B49C1F88C021E2000F04E
:105A4000A5FA10BD10B500245448006820F0C0002D
:105A50005249086008460068086004E0601CC4B24F
:105A6000012000F093FA4E488038006808B1642C99
:105A7000F4DB642C01DB012010BD002404E0601C79
:105A8000C4B2012000F082FA45488038006808B9A5
:105A9000642CF4DB642C01DB0120EDE70020EBE754
:105AA00010B5002404E0601CC4B2012000F06EFABE
:105AB0003B488038006808B1642CF4DB002404E023
:105AC000601CC4B2012000F061FA354880380068DB
:105AD00008B9642CF4DB282000F058FA30488038EC
