:020000040800F2
:1000000050190020F11D0008050C0008070C00081D
:100010000B0C00080F0C0008130C00080000000077
:10002000000000000000000000000000170C0008A5
:10003000190C0008000000001B0C00081D0C000833
:100040000B1E00080B1E00080B1E00080B1E0008EC
:100050000B1E00080B1E00084D1100080B1E0008A7
:100060000B1E00080B1E00080B1E00080B1E0008CC
:100070000B1E00080B1E00080B1E00080B1E0008BC
:100080000B1E00080B1E00080B1E00080B1E0008AC
:100090000B1E00080B1E00080B1E00080B1E00089C
:1000A0000B1E00080B1E00080B1E00080B1E00088C
:1000B000AD1600080B1E00080B1E00080B1E0008E2
:1000C0000B1E00080B1E00080B1E00080B1E00086C
:1000D0000B1E0008651D0008254300086D18000868
:1000E0000B1E00080B1E00080B1E00080B1E00084C
:1000F0000B1E00080B1E00080B1E00080B1E00083C
:100100000B1E00080B1E0008271700080B1E000816
:100110001D1A00080B1E00080B1E00088B43000868
:10012000271000080B1E00080B1E00080B1E0008FD
:100130000B1E00080B1E00080B1E00080B1E0008FB
:100140000B1E00080B1E00080B1E00080B1E0008EB
:100150000B1E00080B1E00080B1E0008255100088E
:100160000B1E00080B1E00080B1E00080B1E0008CB
:100170000B1E00080B1E00080B1E00080B1E0008BB
:100180000B1E00080B1E000800F002F800F092F8A9
:100190000AA090E8000C82448344AAF10107DA45E2
:1001A00001D100F087F8AFF2090EBAE80F0013F0A2
:1001B000010F18BFFB1A43F001031847CC8C000055
:1001C000EC8C0000103A24BF78C878C1FAD85207E6
:1001D00024BF30C830C144BF04680C6070470000C1
:1001E0000023002400250026103A28BF78C1FBD840
:1001F000520728BF30C148BF0B6070476E2905F019
:100200005983702905F0C384662908F02682652980
:1002100008F02382672908F020826129AFF300806B
:1002200003681B0A28BF41F08001692905F0BE80E0
:10023000642905F0BB80752905F0B8806F2905F0A9
:100240005084782905F08F84E92905F0EB83E429AF
:1002500005F0E883F52905F0E583EF2905F04D84E5
:10026000F82905F08E840368DB0928BF41F080017E
:10027000632905F05A83732905F05F83E32905F0AC
:100280002587F32905F02A87002070471FB508F05D
:10029000DAF905F07DFF04000020002107F0B0FB33
:1002A000401C60600020002107F094FBE0601FBD4F
:1002B00010B510BD05F03EFF1146FFF7E7FF00F057
:1002C000AEF906F01BF803B4FFF7F2FF03BC01F030
:1002D000E9FC00002DE9F041A2B006468846174629
:1002E000B8F1410F09D0B8F1460F0CD0B8F14C0F5E
:1002F00005D0B8F1520F08D103E0EEA405E0EFA459
:1003000003E0F0A401E0F1A400BF00BF412F06D03C
:10031000482F0AD04C2F04D04D2F08D103E0EBA575
:1003200005E0ECA503E0EDA501E0EEA500BF00BFF0
:1003300023463246ED4902A8009504F0D1FF02A8F9
:1003400001F04CFB22B0BDE8F0812DE9F0478EB002
:1003500006460024E6A500200090E6A1304605F000
:1003600025F9044604F1010804F1030998F8017025
:10037000342101A805F0FDF96A4601A9484604F0B8
:1003800045FA82463846362F72D008DCA0F131009B
:1003900005280DD2DFE800F00C0D60798F003728BA
:1003A00067D038286FD039286ED0612800D1DAE0C4
:1003B000EEE0D1A004F088FF9DF804004F284AD158
:1003C0009DF80500412806D0462810D04C2806D0BC
:1003D000522810D107E0CCA004F076FF0BE0D2A0A9
:1003E00004F072FF07E0D8A004F06EFF03E0DEA087
:1003F00004F06AFF00BF00BF9DF80800412806D046
:10040000482810D04C2806D04D2810D107E0DEA097
:1004100004F05AFF0BE0E4A004F056FF07E0EAA066
:1004200004F052FF03E0F0A004F04EFF00BF00BF55
:100430009DF807309DF80620F3A1284604F050FFF0
:100440002946F3A004F040FF9DF808209DF8051010
:100450002846FFF73FFF9BE0F5A004F035FFF8A129
:1004600001A805F0A3F828B1F6A004F02DFF09E0DB
:1004700036E04AE0F6A101A805F098F810B1F5A021
:1004800004F022FF84E055E069E001A9F4A004F043
:100490001BFFEBA101A805F089F818B1F5A004F045
:1004A00013FF07E0EAA101A805F080F810B1F5A05C
:1004B00004F00AFF6CE0F7A004F006FFE0A101A839
:1004C00005F074F818B1F6A004F0FEFE07E0E0A114
:1004D00001A805F06BF810B1F4A004F0F5FE57E0A8
:1004E000F5A004F0F1FED6A101A805F05FF818B15F
:1004F000F5A004F0E9FE07E0D5A101A805F056F843
:1005000010B1F5A004F0E0FE42E0F7A004F0DCFE3C
:10051000CBA101A805F04AF818B1F7A004F0D4FE69
:1005200007E0CBA101A805F041F810B1F6A004F056
:10053000CBFE2DE0F8A004F0C7FEC1A101A805F094
:1005400035F818B1F8A004F0BFFE07E0C0A101A87B
:1005500005F02CF810B1F8A004F0B6FE18E0FAA0EF
:1005600004F0B2FE14E0FCA004F0AEFEB4A101A8B9
:1005700005F01CF818B1FCA004F0A6FE07E0B4A139
:1005800001A805F013F810B1FAA004F09DFE00BF19
:1005900000BF0EB0BDE8F08730B599B004460D46F7
:1005A000602101A805F0E5F86022214601A805F0C8
:1005B00079F801A9F2A004F087FE01A8FFF7C5FEB3
:1005C00019B030BD10B5C82001F04CFBF1A001F00E
:1005D00005FAF2A001F002FAF6A001F0FFF9FB48DB
:1005E00001F0FCF9FA4801F0F9F9FA4801F0F6F9DE
:1005F000F94801F0F3F9F94801F0F0F9F84801F091
:10060000EDF9F8A001F0EAF9F9A001F0E7F98FA0FF
:1006100001F0E4F94FF47A7001F024FB10BDA4B0AE
:1006200000BF00BF00BF00BF00BF00BF00BF00BFD2
:1006300000BF00BF00BF00BF00BF01AC0122EE49F8
:10064000204604F074FC4FF4A06001F0F1FBA820F8
:1006500001F0A6FA4FF4E13001F032FB4FF4E13043
:1006600001F042F94FF4E13001F016FA00F0E0FB3E
:10067000FFF7A8FF02E0E1A001F063FAFBE710B585
:10068000002403E00124DFA004F01EFE00F053FE6E
:100690000028F7D10A2001F0E5FA03E00124DEA0EA
:1006A00004F012FE00F013FF0028F7D10A2001F039
:1006B000D9FABFE1D7D4B6AF00000000D6C6C0E477
:1006C00000000000D6C6C8C800000000CBCDB7E7C8
:1006D00000000000B5CDCBD900000000D6D0CBD9AA
:1006E00000000000B8DFCBD900000000A88C000893
:1006F000323600002C000000C9E8D6C3BFD5B5F7DC
:100700002E2E2E0D0A0000005B616972636F6E640D
:100710006974696F6E5D2D3EC4A3CABD3AD7D4B665
:10072000AF204C0D0A0000005B616972636F6E645C
:100730006974696F6E5D2D3EC4A3CABD3A20D6C6EA
:10074000C0E40D0A000000005B616972636F6E64B3
:100750006974696F6E5D2D3EC4A3CABD3A20D6C6CA
:10076000C8C80D0A000000005B616972636F6E64A7
:100770006974696F6E5D2D3EC4A3CABD3A20CBCDAE
:10078000B7E70D0A000000005B616972636F6E6479
:100790006974696F6E5D2D3EB7E7CBD93A20D7D427
:1007A000B6AF0D0A000000005B616972636F6E6492
:1007B0006974696F6E5D2D3EB7E7CBD93A20B5CD30
:1007C000CBD90D0A000000005B616972636F6E6433
:1007D0006974696F6E5D2D3EB7E7CBD93A20D6D0EC
:1007E000CBD90D0A000000005B616972636F6E6413
:1007F0006974696F6E5D2D3EB7E7CBD93A20B8DFDB
:10080000CBD90D0A0000000025632563000000001D
:100810005B616972636F6E646974696F6E5D2D3EB2
:10082000CEC2B6C83A202573A1E60D0A000000002A
:10083000BFD8D6C6B4B0C1B12E2E2E0D0A0000000E
:100840004F000000B4F2BFAAB4B0C1B10D0A00005D
:1008500043000000B9D8B1D5B4B0C1B10D0A000051
:10086000C9E8D6C3BCD2CDA5C4A3CABD25733A205E
:100870000D0A0000B4F2BFAACBF9D3D0B5C60D0A59
:1008800000000000B9D8B1D5CBF9D3D0B5C60D0A58
:1008900000000000BFD8D6C6B7E7BBFA0D0A0000BB
:1008A000B4F2BFAAB7E7BBFA0D0A0000B9D8B1D5B8
:1008B000B7E7BBFA0D0A0000BFD8D6C6BFCDCCFC47
:1008C000B5C60D0A00000000B4F2BFAABFCDCCFC33
:1008D000B5C60D0A00000000B9D8B1D5BFCDCCFC1B
:1008E000B5C60D0A00000000BFD8D6C6CED4CAD205
:1008F000B5C60D0A00000000B4F2BFAACED4CAD219
:10090000B5C60D0A00000000B9D8B1D5CED4CAD200
:10091000B5C60D0A00000000BFD8D6C6B3F8B7BFF1
:10092000B5C60D0A00000000B4F2BFAAB3F8B7BF05
:10093000B5C60D0A00000000B9D8B1D5B3F8B7BFED
:10094000B5C60D0A00000000BFD8D6C6D4A1CAD2D1
:10095000B5C60D0A00000000C9E8D6C3CDD8D5B988
:10096000C3FCC1EE0D0A0000CDD8D5B9BFAA0D0A4F
:1009700000000000CDD8D5B9B9D80D0A000000009C
:100980005B494E464F5D7265637620646174613ADF
:1009900025730000434C532830293B005738444608
:1009A00028342C322C27313233333435363627294C
:1009B0003B00000057384D552831302C31302C3950
:1009C000302C39302C352C30293B0000208C00088D
:1009D000988B0008108B0008848A0008488D000856
:1009E000EC8D0008573853452830293B00000000A3
:1009F0005342432830293B00508700083132330DE1
:100A00000A0000002044485431315F3120696E698A
:100A100074206572726F72002044485431315F3225
:100A200020696E6974206572726F720001243DA0A6
:100A300004F04AFC00F017FE0028F7D114B93EA0DC
:100A400004F042FC10BD10B5002403E0012440A0D6
:100A500004F03AFC03F097FF0028F7D14FF4C87078
:100A600001F000F903E0012441A004F02DFC002076
:100A700004F012F80028F6D14FF4C87001F0F2F833
:100A800003E0012442A004F01FFC04F02AF800282F
:100A9000F7D14FF4C87001F0E5F803E0012444A059
:100AA00004F012FC4AA004F071F80028F6D14FF4CB
:100AB000C87001F0D7F814B948A004F005FC10BDC7
:100AC000F0B5A1B007460D4616461C46012F04D0CE
:100AD000022F0DD0032F21D115E033462A46464977
:100AE00001A8009404F0FCFB01A800F077FF15E0DA
:100AF00033462A46414901A8009404F0F1FB01A8BD
:100B000000F06CFF0AE033462A463D4901A80094F4
:100B100004F0E6FB01A800F061FF00BF00BF21B0B8
:100B2000F0BD00002044485431315F3320696E69C4
:100B300074206572726F7200444854313120494EFE
:100B40004954205355434553532121210D0A000098
:100B50005B4E425F4552524F525D434845434B20E6
:100B60004D4F44454C204661696C0D0A0000000061
:100B70005B4E425F4552524F525D4D4F44454C20B3
:100B8000474554435351204661696C0D0A000000EB
:100B90005B4E425F4552524F525D4D4F44454C2093
:100BA0004745544345524547204661696C0D0A004C
:100BB0005B4E425F4552524F525D4D4F44454C2073
:100BC0005345544E434450204661696C0D0A000061
:100BD00034392E342E38352E323332004E42204DE9
:100BE0004F44454C20494E49542053554345535397
:100BF0002121210D0A000000EC890008608900080D
:100C0000D4880008704700BFFEE700BFFEE700BFC2
:100C1000FEE700BFFEE7704770477047704700006F
:100C20000CB50020019000907648006840F48030B8
:100C30007449086000BF7348006800F400300090F9
:100C40000198401C0190009818B90198B0F5A04F88
:100C5000F1D16C48006800F4003010B10120009020
:100C600001E0002000900098012846D165484030FE
:100C7000006840F080506349403108606248006875
:100C800040F44040604908605E48083000685D49B3
:100C9000083108600846006840F4004008600846D3
:100CA000006840F4A05008605848091F0860081FF9
:100CB000006840F08070091F086000BF514800685C
:100CC00000F000700028F9D040F20570504908602B
:100CD0004C480830006820F003004A490831086099
:100CE0000846006840F00200086000BF4548083030
:100CF000006800F00C000828F8D10CBD10B545487C
:100D0000006840F47000434908603E48006840F0C5
:100D100001003C49086000203A4908310860394820
:100D200000683D490840374908603C48091D086093
:100D3000081F006820F48020091F08600020314946
:100D40000C310860FFF76CFF4FF0006031498039CB
:100D5000086010BD70B5002000220223002402218B
:100D6000284D08352D6805F00C0020B1042806D068
:100D7000082834D107E02A4D2A4E356033E02A4D49
:100D8000284E35602FE01F4D2D1D2D68C5F3805472
:100D90001C4D2D1D2D6805F03F0154B1224DB5FBB2
:100DA000F1F5184E361D3668C6F3881605FB06F2B7
:100DB00009E01B4DB5FBF1F5124E361D3668C6F342
:100DC000881605FB06F20F4D2D1D2D68C5F3014554
:100DD0006D1C6B00B2FBF3F5124E356003E0104D55
:100DE000104E356000BF00BF064D08352D68C5F3B5
:100DF00003150E4E705D0B4D2D68C540094E3560D4
:100E000070BD0000003802400070004008544007E8
:100E1000003C024088ED00E0FFFFF6FE10300024A9
:100E20000024F4000000002000127A0004000020DA
:100E30001CB50121202001F0C1FD4FF4C0600090DD
:100E400001208DF8040000208DF8060003208DF8A5
:100E5000050001208DF807006946044801F010FBE9
:100E60004FF4C061014801F087FB1CBD0014024033
:100E700000B58DB00121084601F0A0FD0121080256
:100E800001F0F6FDE0200B9003208DF830000020EB
:100E90008DF833000BA99F4801F0F2FA01210802F6
:100EA00001F03BFE00214FF4807001F036FE00207F
:100EB00007900A904FF480400990C000089007A85E
:100EC00001F060F80020019001208DF808008DF8F5
:100ED000090000200390059003208DF8180001A957
:100EE0008D4801F020F80723012205218A4801F0EE
:100EF000A0F8072302220621874801F09AF8072369
:100F000003221946844801F094F80121824801F037
:100F10003BF90121804801F02CF901217E4801F0C4
:100F200048F80DB000BD2DE9F04190B004460D46E3
:100F300016461F46DDF858807848844204D90121BE
:100F4000880501F03BFD03E00121480501F036FD75
:100F5000204602F0D5FF00BF204603F0FAF8002833
:100F6000FAD10195029603970490CDF8148006906B
:100F70004FF4806007904000089080000990401175
:100F80000A9000020B9000200C9003200D9000208E
:100F90000E900F9001A9204603F054F838208DF8E8
:100FA000000001208DF801008DF802008DF803008B
:100FB000684600F042FF00BF5848103003F0C9F8FF
:100FC0000028F9D101215548103003F075F810B010
:100FD000BDE8F08130B50023002021E0002114E0BD
:100FE00001EB41044E4D05EBC40434F81040002CD5
:100FF00009DD01EB410405EBC40434F8104014444E
:10100000A2B25C1CE3B24C1CE1B20A29E8DB92FB01
:10101000F3F4444D25F8104000220023441CE0B2B4
:101020000328DBDB30BD10B53F493C48103003F0EE
:10103000A0F8012804D13C493848103003F0B5F835
:1010400010BD08B5FFF714FF7820354B324A4C32FB
:101050000021009031481030FFF765FF08BD70B5E2
:101060002DED0A8B0546FFF7B5FF2E4830F81540E9
:10107000002C00DC012400EE104AB8EE400ADFED3F
:101080002B0A20EE200ADFED2A0A80EE208A9FED4F
:10109000270A30EE480AC0EE080A10EE906A304681
:1010A00007F060FA41EC1B0B9FED220B53EC102B69
:1010B00006F062FF41EC1A0B06F0C4FC09EE100AC0
:1010C000B3EE0E0AC9EE000A10EE906A304607F041
:1010D00049FA41EC1C0B9FED191BB0EE4C0AF0EEE7
:1010E0006C0A05F035FDB0EE40BAF0EE60BA9FED47
:1010F000150B53EC102B51EC1B0B06F03DFF41EC94
:101100001A0B06F09FFC08EE900AB0EE680ABDECE0
:101110000A8B70BD000002400020014000640240C4
:101120003C0000202C01002020800010333353406D
:1011300000008045CDCCCCCCCCCC1240000000408F
:101140008D9700C000000040332F834010B50A2067
:1011500000F088FD012002F0CAFE19A004F0B4F8E6
:101160001F48006808B9012000E000201C49086001
:1011700010BD0EB50121880301F07AFC002108465C
:1011800001F0ABFF0120009000208DF80400082042
:101190008DF8050001208DF80600684602F036FE45
:1011A00006208DF8080000208DF8090002208DF837
:1011B0000A0001208DF80B0002A800F03EFE0EBDD3
:1011C0000D0ABAECCDE2C8C8CACDB5E7BFAAB9D8F6
:1011D000BCE0B2E2B5BDD3D0C8CB0D0A0000000020
:1011E000A882424210B56248006820F0C000604901
:1011F00008600846006840F04000086000205D4933
:101200000860142000F02EFD01205B49C1F88C021B
:101210001E2000F0DFFC10BD10B50024544800680B
:1012200020F0C0005249086008460068086004E0E9
:10123000601CC4B2012000F0CDFC4E48803800682C
:1012400008B1642CF4DB642C01DB012010BD002408
:1012500004E0601CC4B2012000F0BCFC45488038AA
:10126000006808B9642CF4DB642C01DB0120EDE795
:101270000020EBE710B5002404E0601CC4B201209C
:1012800000F0A8FC3B488038006808B1642CF4DB0F
:10129000002404E0601CC4B2012000F09BFC35482F
:1012A0008038006808B9642CF4DB282000F092FC38
:1012B00030488038006808B1012010BD0020FCE7EC
:1012C00070B50024002506E06006040EFFF7D2FF8B
:1012D0000443681CC5B2082DF6DB204670BD7CB502
:1012E00005460E46FFF77EFFFFF796FFF8B900248C
:1012F00005E0FFF7E5FF0DF80400601CC4B2052C03
:10130000F7DB9DF800009DF8011008449DF80210DD
:1013100008449DF8031008449DF80410884208D141
:101320009DF8000030709DF80200287001E0012057
:101330007CBD0020FCE71CB50121042001F03EFB30
:101340000820009001208DF8040000208DF8060090
:1013500002208DF8050001208DF807006946044839
:1013600001F08EF8FFF73EFFFFF756FF1CBD0000AF
:10137000000802408C0241420000414210B5624820
:10138000006820F44070604908600846006840F436
:101390008070086000205D490860142000F062FC45
:1013A00001205B49C1F890021E2000F013FC10BD23
:1013B00010B500245448006820F440705249086079
:1013C00008460068086004E0601CC4B2012000F018
:1013D00001FC4E488038006808B1642CF4DB642CB2
:1013E00001DB012010BD002404E0601CC4B2012018
:1013F00000F0F0FB45488038006808B9642CF4DB45
:10140000642C01DB0120EDE70020EBE710B50024A0
:1014100004E0601CC4B2012000F0DCFB3B488038D3
:10142000006808B1642CF4DB002404E0601CC4B242
:10143000012000F0CFFB35488038006808B9642CE3
:10144000F4DB282000F0C6FB30488038006808B183
:10145000012010BD0020FCE770B50024002506E047
:101460006006040EFFF7D2FF0443681CC5B2082DC6
:10147000F6DB204670BD7CB505460E46FFF77EFFC5
:10148000FFF796FFF8B9002405E0FFF7E5FF0DF838
:101490000400601CC4B2052CF7DB9DF800009DF829
:1014A000011008449DF8021008449DF803100844F8
:1014B0009DF80410884208D19DF8000030709DF816
:1014C0000200287001E001207CBD0020FCE71CB573
:1014D0000121042001F072FA1020009001208DF803
:1014E000040000208DF8060002208DF80500012080
:1014F0008DF807006946044800F0C2FFFFF73EFF81
:10150000FFF756FF1CBD0000000802409002414258
:101510000000414210B56248006820F44060604914
:1015200008600846006840F48060086000205D495B
:101530000860142000F096FB01205B49C1F894027A
:101540001E2000F047FB10BD10B500245448006871
:1015500020F440605249086008460068086004E0D2
:10156000601CC4B2012000F035FB4E488038006892
:1015700008B1642CF4DB642C01DB012010BD0024D5
:1015800004E0601CC4B2012000F024FB4548803810
:10159000006808B9642CF4DB642C01DB0120EDE762
:1015A0000020EBE710B5002404E0601CC4B2012069
:1015B00000F010FB3B488038006808B1642CF4DB75
:1015C000002404E0601CC4B2012000F003FB354895
:1015D0008038006808B9642CF4DB282000F0FAFA9F
:1015E00030488038006808B1012010BD0020FCE7B9
:1015F00070B50024002506E06006040EFFF7D2FF58
:101600000443681CC5B2082DF6DB204670BD7CB5CE
:1016100005460E46FFF77EFFFFF796FFF8B9002458
:1016200005E0FFF7E5FF0DF80400601CC4B2052CCF
:10163000F7DB9DF800009DF8011008449DF80210AA
:1016400008449DF8031008449DF80410884208D10E
:101650009DF8000030709DF80200287001E0012024
:101660007CBD0020FCE71CB50121042001F0A6F997
:101670002020009001208DF8040000208DF8060045
:1016800002208DF8050001208DF807006946044806
:1016900000F0F6FEFFF73EFFFFF756FF1CBD00000F
:1016A00000080240940241420000414210B501216D
:1016B000880702F0B0FA68B167480078401C6649B4
:1016C00008700121880702F0B7FA00214FF080402E
:1016D00001F072FE10BD7FB505460C46012108469B
:1016E00001F0B5F90195ADF800400020ADF8080013
:1016F000ADF8020069464FF0804001F0D4FD0122B0
:101700001146900702F070FA1C208DF80C000020A2
:101710008DF80D0001208DF80E008DF80F0003A844
:1017200000F08BFB7FBD10B501214C4802F073FA2D
:1017300068B14B48008840F40040494908800121C5
:10174000464802F079FA0021444801F035FE10BD08
:101750007FB505460C460121082001F078F9029575
:10176000ADF804400020ADF80600ADF80C0001A96A
:101770003A4801F098FD01221146384802F034FA47
:101780000121364801F018FE32208DF800000120BA
:101790008DF8010003208DF8020001208DF8030070
:1017A000684600F04AFB7FBD30B58BB004460D465D
:1017B0000121022001F04BF90121022001F0FEF885
:1017C00002220121274800F0E6FE022200212548DE
:1017D00000F0E1FE0320099002208DF8280003208C
:1017E0008DF8290000208DF82A0001208DF82B00AB
:1017F00009A91C4800F044FEA8B2ADF8180000206A
:10180000ADF81A000794ADF8200006A9164801F0BB
:101810004AFD6020ADF804000120ADF8060002206A
:10182000ADF8100001A9104801F0BEFE01A90E4854
:1018300001F054FE08210C4801F076FF08210A4807
:1018400001F069FF0121084801F098FD01210648D7
:1018500001F0B2FD0BB030BD14000020000C0040C0
:1018600038000020000402400004004010B540F29F
:101870002551654801F0D6FB10B3634801F010FB19
:10188000C4B26248008800F40040C8B95F480088CC
:1018900000F4804060B10A2C03D000205B4908802E
:1018A00021E05A48008840F40040584908801AE076
:1018B0000D2C06D15548008840F4804053490880DB
:1018C00011E052480088C0F30D0051490C544F48B4
:1018D0000088401C4D49088008460088B0F5C87F44
:1018E00001DB0020088010BD10B588B0044601213E
:1018F000022001F063F80121880401F0A8F84248B1
:1019000001F0B0F907220B21424800F044FE072203
:101910000A21404800F03FFE4FF44060059002204D
:101920008DF818008DF8190000208DF81A0001209C
:101930008DF81B0005A9374800F0A2FD0194002096
:10194000ADF80800ADF80A00ADF80C00ADF81000D5
:101950000C20ADF80E0001A92B4801F0EAF9012195
:10196000294801F06EFA012240F22551264801F083
:101970001EFB27208DF81C0002208DF81D0003207F
:101980008DF81E0001208DF81F0007A800F055FA01
:1019900008B010BD0FB438B505A800901E48009AD5
:1019A000049903F07FFC002000901B4803F010FE18
:1019B00085B200240DE000BF4021134801F01CFB5C
:1019C0000028F9D01448015D0F4801F065FA601C49
:1019D00084B2AC42EFDB38BC5DF814FB70B5044652
:1019E000002510E0605D68B1615D074801F054FAC0
:1019F00000BF8021044801F0FFFA0028F9D0681CDC
:101A0000C5B200E070BDEDE70048004016000020C0
:101A1000D8020020000402404801002010B540F226
:101A200025515A4801F0FEFA10B3584801F038FA2F
:101A3000C4B25748008800F40040C8B95448008830
:101A400000F4804060B10A2C03D000205049088087
:101A500021E04F48008840F400404D4908801AE0DA
:101A60000D2C06D14A48008840F48040484908803F
:101A700011E047480088C0F30D0046490C54444823
:101A80000088401C4249088008460088B0F5C87F9D
:101A900001DB0020088010BD10B588B0044601218C
:101AA000042000F08BFF0121C80400F0D0FF37486C
:101AB00001F0D8F808220B21374800F06CFD08220D
:101AC0000A21354800F067FD4FF440600590022080
:101AD0008DF818008DF8190000208DF81A000120EB
:101AE0008DF81B0005A92C4800F0CAFC01940020C9
:101AF000ADF80800ADF80A00ADF80C00ADF8100024
:101B00000C20ADF80E0001A9204801F012F90121C6
:101B10001E4801F096F9012240F225511B4801F0C0
:101B200046FA34208DF81C0003208DF81D008DF836
:101B30001E0001208DF81F0007A800F07EF908B0F4
:101B400010BD0FB438B505A800901448009A049948
:101B500003F0A8FB00200090104803F039FD85B287
:101B600000240DE000BF4021084801F045FA00289C
:101B7000F9D00A48015D054801F08EF9601C84B275
:101B8000AC42EFDB38BC5DF814FB0000004C0040B9
:101B900018000020F805002000080240680400201A
:101BA00010B504466FF0040000F094F9E11704EB5F
:101BB0005171C1F3C701394A11701046007800EB2A
:101BC0004001C1EBC0104FF6FF7101EAC00034497B
:101BD000088010BD0146314A12784A434FF0E02395
:101BE0005A6100229A611A46126942F001021A6192
:101BF00000BF4FF0E022106900F001021AB100F4BA
:101C00008032002AF5D04FF0E022126922F0010262
:101C10004FF0E0231A6100229A6170470146204A82
:101C200012884A434FF0E0235A6100229A611A4613
:101C3000126942F001021A6100BF4FF0E022106900
:101C400000F001021AB100F48032002AF5D04FF002
:101C5000E022126922F001024FF0E0231A61002213
:101C60009A61704770B504464FF4077094FBF0F02A
:101C7000C6B24FF4077094FBF0F100FB114085B23F
:101C800005E04FF40770FFF7C9FF701EC6B2002EC3
:101C9000F7D115B12846FFF7C1FF70BD1A0000202B
:101CA0001C000020014600BF704700BF4C4A12884C
:101CB00002F04002002AF9D0C2B2494B9A80704724
:101CC00010B588B004460121084600F077FE0121D6
:101CD000102000F0CDFE07220921424800F05BFCF5
:101CE00007220A213F4800F056FC4FF4C0600690DE
:101CF00002208DF81C008DF81D0000208DF81E00BC
:101D000001208DF81F0006A9364800F0B9FB0294A7
:101D10000020ADF80C00ADF80E00ADF81000ADF8E5
:101D200014000C20ADF8120002A92D4801F001F8B2
:101D300001212B4801F085F8012240F22551284865
:101D400001F035F925208DF8040003208DF80500F9
:101D50008DF8060001208DF8070001A800F06DF84D
:101D600008B010BD10B540F225511D4801F05AF9D8
:101D700010B31B4801F094F8C4B21B48008800F46B
:101D80000040C8B91848008800F4804060B10A2CAF
:101D900003D000201449088020E01348008840F454
:101DA00000401149088019E00D2C06D10E4800882A
:101DB00040F480400C49088010E00B480088C0F3D4
:101DC0000D000A490C5408480088401C0649088048
:101DD00008460088C72801DD0020088010BD0000EB
:101DE000001001400000024024000020880700206D
:101DF0000948804709480047FEE7FEE7FEE7FEE79F
:101E0000FEE7FEE7FEE7FEE7FEE7FEE704480549DA
:101E1000054A064B70470000FD0C000889010008C8
:101E2000501300205019002050150020501500209C
:101E300032490143324A1160704770B500210023D6
:101E40000F22C4781CB32E4C246804F4E064C4F55B
:101E5000E064C4F30721C1F10404E3B20A41447809
:101E60009C40E1B28478144021430C07210E254C9C
:101E700005786155047804F01F050124AC4005780D
:101E80006D11AD0005F1E025C5F8004109E00478C9
:101E900004F01F050124AC401B4D0678761145F86F
:101EA000264070BD194A0A400243154B1B1F1A6099
:101EB000704739B1124A121D12680243104B1B1DA4
:101EC0001A6006E00E4A121D126882430C4B1B1D5D
:101ED0001A607047042808D14FF0E021096941F0E9
:101EE00004014FF0E022116107E04FF0E0210969A1
:101EF00021F004014FF0E022116170470000FA0563
:101F00000CED00E000E400E080E100E080FFFF1F56
:101F100010B50121080200F000FE00214FF480708E
:101F200000F0FBFD10BD30B50246002000235068D4
:101F3000F84C20400D790C6844EA05242043506099
:101F40009068F54C2040D1E903542C438D682C4314
:101F50004D7944EA450420439060D06A20F4700033
:101F60000C7D641EE4B2234340EA0350D06230BDCE
:101F700000210160017141718160C1600161012135
:101F8000017570470021E54A1168E54A1140D0E922
:101F900000231A4383681A43C3681A431143E14A72
:101FA000C2F8041370470021016041608160C16084
:101FB000704721B1826842F00102826003E08268CA
:101FC00022F00102826070470A4600214168D64B28
:101FD00019401143416070474162826270470A466E
:101FE0000021416821F01F0111434160704738B161
:101FF000CA49096841F40001CA4AC2F8041306E05C
:10200000C649096821F40001C64AC2F804137047A2
:1020100038B1C249096841F48001C24AC2F80413C8
:1020200006E0BE49096821F48001BE4AC2F80413E3
:102030007047F0B504460D4600200021092D11DD42
:10204000E068A5F10A0606EB4607072606FA07F13F
:102050008843A5F10A0606EB460603FA06F1084393
:10206000E0600CE0206905EB4507072606FA07F15A
:10207000884305EB450603FA06F108432061072A69
:102080000FDA606B561E06EB86071F2606FA07F16D
:102090008843561E06EB860605FA06F10843606380
:1020A00022E00D2A0FDA206BD61F06EB86071F26CB
:1020B00006FA07F18843D61F06EB860605FA06F1F5
:1020C0000843206310E0E06AA2F10D0606EB8607E4
:1020D0001F2606FA07F18843A2F10D0606EB8606D5
:1020E00005FA06F10843E062F0BD816841F08041E5
:1020F00081607047014600208A6802F080420AB180
:10210000012000E00020704721B1826842F4806223
:10211000826003E0826822F480628260704721B1AD
:10212000826842F00202826003E0826822F00202CA
:102130008260704710B50A4600210023416821F4EF
:102140006041531E41EA4331416010BD21B14268F4
:1021500042F40062426003E0426822F4006242609E
:1021600070470146C86C80B270476C48001D00681B
:10217000704721B1826842F48072826003E0826815
:1021800022F480728260704721B1826842F400724A
:10219000826003E0826822F400728260704738B186
:1021A0005E49096841F400515E4AC2F8041306E032
:1021B0005A49096821F400515A4AC2F80413704779
:1021C000F0B504461546002000220026092911DD3D
:1021D000E068A1F10A0707EB470C072707FA0CF2A2
:1021E0009043A1F10A0707EB470703FA07F21043F0
:1021F000E0600CE0206901EB410C072707FA0CF2C4
:10220000904301EB410703FA07F210432061A06BF2
:10221000C0F30156EF1C06F1010CA7EB0C0707EB0E
:10222000870C1F2707FA0CF29043EF1C06F1010CF4
:10223000A7EB0C0707EB870701FA07F21043A0632F
:10224000F0BD10B50A4600210023816B21F4401136
:10225000531E41EA0351816310BD08B5002300936A
:102260000090009B0B440093009B1A6008BD0A4637
:102270000021816821F470211143816070470A4672
:102280000021816821F44011114381607047816809
:1022900041F4800181607047014600208A6802F4A1
:1022A00080020AB1012000E00020704721B142689D
:1022B00042F48062426003E0426822F4806242603D
:1022C000704721B1426842F48052426003E04268A4
:1022D00022F480524260704708B502460020009008
:1022E000009201F12800009B1844009000980068BB
:1022F00080B208BD10B50B460021D9B2012404FA02
:1023000001F11AB144680C43446002E044688C4314
:10231000446010BDFFFEFFFCFDF7FFC00423014039
:10232000E030FCFF00200140FFFD3FFF024600209F
:1023300013680B400BB1012000E000207047CA4336
:102340000260704770B502460020002300240B1283
:10235000556801268E4005EA060415681D4015B132
:102360000CB1012000E0002070BD00220A12D3430E
:102370000360704710B504469848844208D1012193
:10238000084600F086FB0021012000F082FB76E089
:102390009348844208D10121022000F07AFB0021F9
:1023A000022000F076FB6AE08E48844208D10121C9
:1023B000042000F06EFB0021042000F06AFB5EE0C8
:1023C0008948844208D10121082000F062FB0021E5
:1023D000082000F05EFB52E08448844208D10121CD
:1023E000102000F056FB0021102000F052FB46E0C8
:1023F0007F48844208D10121202000F04AFB0021BF
:10240000202000F046FB3AE07A48844208D10121BE
:10241000402000F03EFB0021402000F03AFB2EE07F
:102420007548844208D10121802000F032FB002150
:10243000802000F02EFB22E07048844208D1012168
:10244000801500F026FB0021A01500F022FB16E00D
:102450006B48844208D10121401500F01AFB00218D
:10246000601500F016FB0AE06648844207D101219E
:10247000001500F00EFB0021201500F00AFB10BD36
:10248000F0B50A4600210023002400BF3DE00125ED
:1024900005FA01F3156805EA03049C4234D1056886
:1024A0004F000326BE40B543056015794E00B54088
:1024B0000668354305601579012D02D01579022D86
:1024C00016D185684F000326BE40B5438560557917
:1024D0004E00B540866835438560456801268E40CC
:1024E000B5434560456896798E40B6B23543456040
:1024F000C5684F000326BE40B543C560D5794E0080
:10250000B540C6683543C560491C1029BFD3F0BD2E
:102510004FF6FF7101600021017141718171C1713C
:10252000704708B54FF480320092009A0A43009237
:10253000009AC261C161009AC261C2690092C26917
:10254000009208BD0246002013690B400BB1012028
:1025500000E0002070470146086980B270470246DB
:10256000002053690B400BB1012000E000207047B0
:102570000146486980B270470183704741837047C4
:102580000AB1018300E041837047416170474269AD
:102590004A4042617047F0B5002300244D07ED0E1C
:1025A00002FA05F3CE1000F1200555F826504E072B
:1025B000F70E0F26BE40B543CF1000F1200646F8B7
:1025C0002750CE1000F1200555F8265045EA0304A7
:1025D000CE1000F1200545F82640F0BD0000024075
:1025E0000004024000080240000C024000100240BB
:1025F0000014024000180240001C0240002002406B
:102600000024024000280240F948006840F0010020
:10261000F74908600020F64908310860F44800686E
:10262000F4490840F2490860F348091D0860F3487E
:10263000EF4984310860F0481038091D0860EC4803
:10264000006820F48020EA4908600020E8490C3145
:102650000860E7498C31086070470021E44A921C09
:10266000117011460870704710B501460022002312
:1026700000204A11012A02D1DD4C236808E0022A19
:1026800003D1DB4C7034236802E0D94C74342368E6
:1026900001F01F02012494401C400CB1012000E015
:1026A000002010BD38B5002000900024002500BF98
:1026B0003120FFF7D9FF05460098401C0090009894
:1026C000B0F5A04F01D0002DF2D03120FFF7CCFFA4
:1026D00008B1012400E00024204638BD0146002056
:1026E000C34A106820F0F80040EAC100106070474B
:1026F000C349086070470021BD4A703211701170E3
:10270000012802D004280AD104E00121B84A70321D
:10271000117005E00521B64A7032117000E000BF6B
:1027200000BF7047B7490860704770B5049C41EA24
:1027300082150126C6EB530645EA0645054345EAE0
:102740000465AB4E361D356070BDAD4908667047F7
:10275000820142EA0172A64B84331A607047A8498D
:102760008866704710B5830143EA016343EA027348
:102770009F4C8834236010BDA14908677047A04969
:10278000C864704702460020994B0833186820F04F
:10279000EC6042EA01031843954B08331860704718
:1027A00002460020924B0833186820F0784042EA35
:1027B000010318438E4B0833186070470146002010
:1027C0008B4A0832106820F00300084310607047FD
:1027D00087480830006800F00C0070470146002070
:1027E000834A0832106820F0F000084310607047F8
:1027F000014600207E4A0832106820F4E050084369
:102800001060704701460020794A0832106820F4B1
:10281000604040EAC10010607047F0B5002100221E
:102820000024022500260223714F08373F6807F075
:102830000C0121B1042905D0082937D105E0724FD8
:10284000076036E0714F076033E0694F3F1D3F6816
:10285000C7F38056664F3F1D3F6807F03F036EB1D8
:102860006A4FB7FBF3F7DFF888C10CF1040CDCF812
:1028700000C0CCF3881C07FB0CF40CE0624FB7FBE4
:10288000F3F7DFF86CC10CF1040CDCF800C0CCF3FA
:10289000881C07FB0CF4564F3F1D3F68C7F30147E8
:1028A0007F1C7D00B4FBF5F7076002E0564F076020
:1028B00000BF00BF4E4F08373F6807F0F00109091D
:1028C000534F7A5C0768D7404760494F08373F68E5
:1028D00007F4E051890A4E4F7A5C4768D740876019
:1028E000434F08373F6807F46041490B484F7A5C13
:1028F0004768D740C760F0BD002100F44072B2F5D0
:10290000407F0AD13A4A0832116821F4F811414A4D
:1029100002401143364A08321160354A703212685B
:10292000C0F30B031A43324B70331A6070473549BA
:102930004439086070473349403908607047364968
:102940000860704701460020294A8C32106820F048
:102950001F004A1E1043264A8C3210607047014601
:102960000020234A8C32106820F4F8504A1E40EAB6
:1029700002201F4A8C3210607047014600201C4A1A
:102980008C32106820F440100843106070470146F4
:102990000020174A8C32106820F440000843106071
:1029A000704701460020124A8C32106820F44030F3
:1029B00008431060704719490860704739B10C4AE4
:1029C0003032126802430A4B30331A6006E0084A7C
:1029D000303212688243064B30331A607047F9B1C7
:1029E000034A343212680243014B34331A601CE04C
:1029F00000380240FFFFF6EA1030002400300020CB
:102A000000004742800E47420024F40000127A0082
:102A100026000020FFFCFF0F5C014742E011474207
:102A20008F4A126882438E4B1A60704739B18C4AC4
:102A3000121D126802438A4B1B1D1A6006E0884A69
:102A4000121D12688243864B1B1D1A60704739B1F4
:102A5000834A0C3212680243814B0C331A6006E041
:102A60007F4A0C32126882437D4B0C331A607047E8
:102A700039B17B4A103212680243794B10331A6025
:102A800006E0774A103212688243754B10331A60A1
:102A9000704739B1724A243A12680243704B243BA2
:102AA0001A6006E06E4A243A126882436C4B243B5B
:102AB0001A60704739B16A4A203A12680243684B7B
:102AC000203B1A6006E0664A203A12688243644B53
:102AD000203B1A60704739B1614A1C3A12680243C0
:102AE0005F4B1C3B1A6006E05D4A1C3A1268824349
:102AF0005B4B1C3B1A60704739B1594A143A126853
:102B00000243574B143B1A6006E0554A143A1268C8
:102B10008243534B143B1A60704739B1504A103A04
:102B2000126802434E4B103B1A6006E04C4A103AC2
:102B3000126882434A4B103B1A60704739B1484AC9
:102B40001C3212680243464B1C331A6006E0444AAA
:102B50001C3212688243424B1C331A60704739B1F1
:102B60003F4A2032126802433D4B20331A6006E090
:102B70003B4A203212688243394B20331A60704737
:102B800039B1374A243212680243354B24331A6074
:102B900006E0334A243212688243314B24331A60F0
:102BA000704739B12E4A2C32126802432C4B2C3319
:102BB0001A6006E02A4A2C3212688243284B2C33D2
:102BC0001A60704739B1264A303212680243244BEA
:102BD00030331A6006E0224A303212688243204BBA
:102BE00030331A607047012808D11D493C3109680B
:102BF00041F008011A4A3C32116007E018493C31A3
:102C0000096821F00801164A3C321160704739B159
:102C1000134A273A12780243114B273B1A7006E0F9
:102C20000F4A273A127882430D4B273B1A707047A0
:102C30000B484030006840F080700949403108601E
:102C4000704701460020064A283A12680A400AB135
:102C5000012000E0002070470149263908707047C4
:102C60003438024010B50446FA48844208D10121A4
:102C70001020FFF752FF00211020FFF74EFF57E012
:102C8000F548844209D101214804FFF735FF0021AE
:102C90004FF40030FFF730FF4AE0F048844209D19A
:102CA00001218804FFF728FF00214FF48020FFF75F
:102CB00023FF3DE0EA48844209D10121C804FFF71F
:102CC0001BFF00214FF40020FFF716FF30E0E5481E
:102CD000844209D101210805FFF70EFF00214FF4BE
:102CE0008010FFF709FF23E0DF48844208D101216B
:102CF0002020FFF712FF00212020FFF70EFF17E032
:102D0000DA48844209D101218807FFF7F5FE002146
:102D10004FF08040FFF7F0FE0AE0D548844207D12B
:102D200001214005FFF7E8FE00216005FFF7E4FE02
:102D300010BD2DE9FF4705460E460024A14600BF01
:102D4000A046B08900B100BF2C8A24F44054F0881A
:102D500004432C82AC8941F20C608443B0883189F1
:102D60000843718908430443AC81AC8A24F440745D
:102D7000B0890443AC826846FFF74FFDB5488542F1
:102D800002D0B948854202D1DDF80C9001E0DDF8AF
:102D90000890A88900F4004040B109EBC90000EB9D
:102DA000091031684900B0FBF1F707E009EBC900F1
:102DB00000EB091031688900B0FBF1F76420B7FB24
:102DC000F0F004012009642101FB1078A88900F4C7
:102DD000004040B1322000EBC800B0FBF1F000F041
:102DE0000700044308E0322000EB08106421B0FB28
:102DF000F1F000F00F0004432C81BDE8FF874FF491
:102E00001651016000218180C18001810C21418126
:102E100000218181704710B502460020108A20F4FD
:102E200070600B884C8823438C882343CC882343D1
:102E30001843108210BD0021018041808180C18033
:102E4000704721B1828942F40052828104E0828974
:102E50004DF6FF731A4082817047028B02F47F4265
:102E60000283028B0A430283704721B1828942F4B4
:102E70000042828103E08289C2F30E0282817047A0
:102E800021B1828A42F40062828204E0828A4FF297
:102E9000FF731A4082827047C1F308028280704734
:102EA00001468888C0F308007047028A4FF6F07325
:102EB0001A400282028A0A430282704721B1828943
:102EC00042F00202828104E082894FF6FD731A40CB
:102ED0008281704782894FF2FF731A408281828912
:102EE0000A4382817047028A4FF6DF731A400282DA
:102EF000028A0A430282704721B1028A42F4804268
:102F0000028204E0028A4BF6FF731A400282704785
:102F1000818941F001018181704721B1828A42F0AB
:102F20000802828204E0828A4FF6F7731A40828296
:102F30007047028BD2B20283028B42EA01220283E3
:102F4000704721B1828A42F02002828204E0828AA4
:102F50004FF6DF731A408282704721B1828A42F0B5
:102F60001002828204E0828A4FF6EF731A40828256
:102F70007047828A4FF6FB731A408282828A0A4324
:102F80008282704721B1828A42F00202828204E08A
:102F9000828A4FF6FD731A40828270471AB1838A83
:102FA0000B43838202E0838A8B4383827047F0B5B0
:102FB0000346002400260025002040F66A17B94287
:102FC00000D100BF1846C1F3421401F01F060127CB
:102FD00007FA06F5012C01D10C3004E0022C01D1D6
:102FE000103000E014301AB107682F43076002E088
:102FF0000768AF430760F0BD02460020B1F5007FCF
:1030000000D100BF13880B400BB1012000E000206D
:10301000704701F40072B2F5007F00D100BFCA43CF
:103020000280704770B5024600240023002500206E
:1030300040F66A16B14200D100BFC1F3421501F05B
:103040001F03012606FA03F3012D13D1968933409D
:1030500017E000000010014000440040004800401C
:10306000004C004000500040001401400078004037
:10307000007C0040022D02D1168A334001E0968A7E
:1030800033400C12012606FA04F41688344013B1BA
:103090000CB1012000E0002070BD10B5002200231B
:1030A00040F66A14A14200D100BF0A1201249440E4
:1030B000A3B2DC43048010BD10B501218803FFF7E3
:1030C0002CFD00214FF48040FFF727FD10BD1C4967
:1030D000086070471B490862704730B500228B07B3
:1030E0001C0F0F2303FA04F2154B08338C1053F80E
:1030F00024309343124C08348D1044F82530234675
:103100008C1053F824308C07240F00FA04F4234366
:103110000B4C08348D1044F8253030BD0949DC31A2
:103120000860704708490860704700200449203152
:10313000096801F4807109B1012000E000207047A6
:1031400000380140000027420004274210B5044621
:10315000FE48844208D101210846FFF7DEFC002129
:103160000120FFF7DAFC9DE0B4F1804F08D1012186
:103170000846FFF7C1FC00210120FFF7BDFC91E0EC
:10318000F348844208D101210220FFF7B5FC002159
:103190000220FFF7B1FC85E0EE48844208D101210E
:1031A0000420FFF7A9FC00210420FFF7A5FC79E02B
:1031B000E948844208D101210820FFF79DFC002145
:1031C0000820FFF799FC6DE0E448844208D1012112
:1031D0001020FFF791FC00211020FFF78DFC61E02B
:1031E000DF48844208D101212020FFF785FC00211F
:1031F0002020FFF781FC55E0DA48844208D1012104
:103200000220FFF78AFC00210220FFF786FC49E03C
:10321000D548844209D101210804FFF77EFC002132
:103220004FF48030FFF779FC3CE0D048844209D16C
:1032300001214804FFF771FC00214FF40030FFF733
:103240006CFC2FE0CA48844209D101218804FFF7B1
:1032500064FC00214FF48020FFF75FFC22E0C548AA
:10326000844208D101214020FFF746FC0021402084
:10327000FFF742FC16E0C048844208D101218020BB
:10328000FFF73AFC00218020FFF736FC0AE0BB483C
:10329000844207D101218015FFF72EFC0021A015E3
:1032A000FFF72AFC10BD00220288A84B98420ED0DE
:1032B000AC4B98420BD0B0F1804F08D0A44B984251
:1032C00005D0A44B984202D0A34B984204D14FF6AC
:1032D0008F731A404B881A43A04B984207D0A04BDB
:1032E000984204D04FF6FF431A400B891A430280DC
:1032F0004B68C3620B880385944B984202D0994B6C
:10330000984201D18B7A03860123838270474FF064
:10331000FF3141600021018001814180817270474D
:103320000185828270470A46002101884FF68F731B
:10333000194011430180704741627047C162704774
:103340000146486A70470146088D704721B10288DE
:1033500042F00202028004E002884FF6FD731A4038
:103360000280704721B1028842F00402028004E02A
:1033700002884FF6FB731A400280704721B1028821
:1033800042F08002028004E002884FF67F731A4008
:103390000280704702884FF6F7731A400280028855
:1033A0000A430280704702884FF6FF431A400280AA
:1033B00002880A430280704721B1028842F001026C
:1033C000028004E002884FF6FE731A4002807047C4
:1033D00070B5002400220023058C4FF6FE763540A0
:1033E0000584028C8388048B4FF68F752C40B51EA4
:1033F0002C400D882C43751E2A408D892A434D8808
:103400002A43524DA84202D0564DA84213D14FF63E
:10341000F7752A40CD892A434FF6FB752A408D88DF
:103420002A434FF6FF652B404FF6FF552B400D8A80
:103430002B434D8A2B43838004838D68456302842C
:1034400070BD70B5002400220023058C4FF6EF7686
:1034500035400584028C8388048B48F6FF752C4028
:103460004FF6FF452C400D884FF6FF7606EA0525FE
:103470002C434FF6DF752A408D8906EA05152A434D
:103480004D8806EA05152A43304DA84202D0354D35
:10349000A8421DD14FF67F752A40CD894FF6FF76A1
:1034A00006EA05152A434FF6BF752A408D8806EABD
:1034B00005152A434FF6FF352B404FF2FF752B4081
:1034C0000D8A06EA85052B434D8A06EA85052B43BE
:1034D000838004838D688563028470BD70B5002489
:1034E00000220023058C4FF6FF6635400584028CD0
:1034F0008388848B4FF68F752C404FF6FC752C40DB
:103500000D882C434FF6FF552A408D894FF6FF76E4
:1035100006EA05252A434D8806EA05252A430B4D70
:10352000A84202D00F4DA84238D14FF2FF752A4071
:10353000CD894FF6FF7606EA05252A434FF6FF357B
:103540002A408D8806EA05252A4319E0000001403B
:103550000004004000080040000C00400010004043
:1035600000140040000401400040014000440140BC
:103570000048014000180040001C004000200040AE
:103580004EF6FF752B404DF6FF752B400D8A06EA6F
:1035900005152B434D8A06EA05152B43838084834A
:1035A0008D68C563028470BD70B5002200230024BD
:1035B000058C4EF6FF7635400584038C8488828B1B
:1035C00048F6FF752A404FF6FF452A400D884FF612
:1035D000FF7606EA05252A434DF6FF752B408D89B7
:1035E00006EA05352B434D8806EA05352B43FE4D8B
:1035F000A84202D0FD4DA84208D14BF6FF752C40E1
:103600000D8A4FF6FF7606EA85152C438480828367
:103610008D680564038470BD002101804180818034
:1036200081608181C18101824182704770B503460A
:10363000002000241846183001258D40ACB21D8CA6
:10364000A5431D8409B108290AD100EB6100056872
:103650004FF68F76354005600568154305600FE02D
:103660000D1FC5F34E052844056848F6FF76354022
:10367000056005684FF6FF7606EA022635430560C9
:1036800070BD4163704781637047C16370470164D7
:1036900070470A460021018B4FF68F731940114382
:1036A000018370470A460021018B48F6FF731940D9
:1036B0004FF6FF7303EA02231943018370470A465A
:1036C0000021818B4FF68F7319401143818370471E
:1036D0000A460021818B48F6FF7319404FF6FF73AD
:1036E00003EA02231943818370470A460021018BB4
:1036F0004FF6F77319401143018370470A460021C2
:10370000018B4FF2FF7319404FF6FF7303EA022358
:103710001943018370470A460021818B4FF6F773E6
:1037200019401143818370470A460021818B4FF273
:10373000FF7319404FF6FF7303EA02231943818395
:1037400070470A460021018B4FF6FB731940114365
:10375000018370470A460021018B4FF6FF33194061
:103760004FF6FF7303EA02231943018370470A46A9
:103770000021818B4FF6FB73194011438183704701
:103780000A460021818B4FF6FF3319404FF6FF7335
:1037900003EA02231943818370470A460021018B03
:1037A0004FF67F7319401143018370470A46002189
:1037B000018BC1F30E014FF6FF7303EA0223194395
:1037C000018370470A460021818B4FF67F731940B1
:1037D0001143818370470A460021818BC1F30E019A
:1037E0004FF6FF7303EA02231943818370470A46A9
:1037F0000021018C4FF6FD7319401143018470477D
:103800000A460021018C4FF6F773194011430184D9
:1038100070470A460021018C4FF6DF7319404FF6BE
:10382000FF7303EA02131943018470470A4600211B
:10383000018C4FF67F7319404FF6FF7303EA0213B2
:103840001943018470470A460021018C4FF6FF534B
:1038500019404FF6FF7303EA0223194301847047AE
:103860000A460021018C4FF2FF7319404FF6FF7397
:1038700003EA02231943018470470A460021018CA0
:103880004DF6FF7319404FF6FF7303EA02331943F5
:103890000184704730B5002301248C40A3B2048C0E
:1038A0009C430484048C02FA01F5ADB22C430484D9
:1038B00030BD30B5002304248C40A3B2048C9C435B
:1038C0000484048C02FA01F5ADB22C43048430BDAB
:1038D000828B4FF2FF331A408283828B4FF6FF7345
:1038E00003EA01231A4382837047F0B50C4615465C
:1038F000002100220026078C4EF6FF7C07EA0C0709
:103900000784818B028C4FF6FF7707EA043640F676
:10391000FF4739404FF6FF7707EA052739434FF64F
:10392000FF7707EA0337394345F6FF773A4046F415
:1039300080573A4381830284F0BD828B4FF6F37344
:103940001A408283828B0A4382837047F0B50C460B
:103950001546002100220026078C4FF6FF6C07EA6F
:103960000C070784818B028C4FF6FF7707EA042649
:103970004FF60C7739404FF6FF7707EA03172F43CE
:1039800039434FF2FF573A4046F480773A438183F8
:103990000284F0BD028B4FF2FF331A400283028B88
:1039A0004FF6FF7303EA01231A4302837047F0B511
:1039B0000C461546002100220026078C4FF6EF7CAE
:1039C00007EA0C070784018B028C4FF6FF7707EAA2
:1039D000041640F6FF4739404FF6FF7707EA0337F2
:1039E00039434FF6FF7703E0000001400004014037
:1039F00007EA052739434FF65F773A4046F010074C
:103A00003A4301830284F0BD028B4FF6F3731A40F0
:103A10000283028B0A4302837047F0B50C461546B9
:103A200000210022068C4FF6FE773E400684018B73
:103A3000028C4FF60C7631407E1C06EA03162E43AC
:103A400031434FF6F576324044F0010632430183AC
:103A50000284F0BD70B505460C46208850B9238914
:103A6000A28861882846FFF7D8FFE1882846FFF73B
:103A7000CBFF25E0208804280AD12389A288618809
:103A80002846FFF794FFE1882846FFF783FF17E0F9
:103A9000208808280AD12389A28861882846FFF750
:103AA00055FFE1882846FFF748FF09E02389A288EF
:103AB00061882846FFF719FFE1882846FFF708FFCD
:103AC00070BD002101804180012181800021C180E1
:103AD000018170472DE9F04105460C46002601277B
:103AE000608808B9022600E00026A088012801D1DC
:103AF000022700E001272088A0B92389A2886188D5
:103B00002846FFF78AFFE1882846FFF77DFF2389D3
:103B10003A4631462846FFF74AFFE1882846FFF734
:103B200039FF13E02389A28861882846FFF73FFF09
:103B3000E1882846FFF72EFF23893A46314628467A
:103B4000FFF76BFFE1882846FFF75EFFBDE8F081D5
:103B50000146486B70470146886B70470146C86B49
:103B600070470146086C70470A884B881A438B8857
:103B70001A43CB881A430B891A434B891A438B8902
:103B80001A43A0F8442070470021018041808180C1
:103B9000C180018141818181704731B1B0F84420F9
:103BA00042F40042A0F8442005E0B0F84420C2F3FB
:103BB0000E02A0F84420704721B1828842F004022E
:103BC000828004E082884FF6FB731A40828070473F
:103BD00021B1828842F00102828004E082884FF69F
:103BE000FE731A40828070471AB183890B43838128
:103BF00002E083898B43838170478182704702464C
:103C00000020138A0B400BB1012000E00020704718
:103C1000CA430282704730B50246002000230024C8
:103C2000158A05EA0103958905EA010413B10CB16F
:103C3000012000E0002030BDCA430282704741EA03
:103C40000203A0F8483070471AB183890B4383817F
:103C500002E083898B438381704721B1828842F0DF
:103C60000802828004E082884FF6F7731A4082804F
:103C7000704701894FF6F8721140018170470A467A
:103C8000002101894FF68F7319401143018170475C
:103C900030B504460D4629462046FFF7F0FF20893F
:103CA00040F00700208130BD2DE9F04104460D466B
:103CB00016461F46602D06D13B460122314620465E
:103CC000FFF775FE05E03B46012231462046FFF72F
:103CD000A4FE29462046FFF7D2FF208940F00700C6
:103CE0002081BDE8F08130B50C4600210189C9B2C0
:103CF0004FF6FF7505EA0325154325432943018146
:103D000030BD2DE9F04105460E4617469846002481
:103D100043463A4631462846FFF7E5FF2C894FF6E1
:103D2000F870044044F007044FF68F70044044F0EC
:103D300070042C81BDE8F081F0B504460D461646AE
:103D40001F463B46324629462046FFF7CCFF2089D6
:103D500040F480402081F0BD82884FF68F731A4076
:103D6000828082880A438280704702894FF6F87306
:103D70001A40028102890A430281704702894FF684
:103D80007F731A40028102890A4302817047F0B5AD
:103D90000C4615461E460021002200230189028B95
:103DA000038C4FF6F877394021434FF6FC473A40F1
:103DB00040F201173A434FF6DD773B404FF6FF776D
:103DC00007EA06172F433B43018102830384F0BDBA
:103DD00021B1828842F08002828004E082884FF61E
:103DE0007F731A4082807047A0F85010704700001F
:103DF000002041490860091D0860091D0860091D6F
:103E000008603E483C4914310860704700213A4937
:103E10008279002A3AD00A46126803689A430B4610
:103E20001A600A1D126803689A430B1D1A60027912
:103E300011440A6803681A430A602F4A083212685C
:103E400003689A432C4B08331A601A1D12680368E2
:103E50009A43294B0C331A604279102A0ED11A1F4B
:103E6000126803681A43244B08331A601A1D12683B
:103E700003681A43204B0C331A600DE01E49427947
:103E800011440A6803681A430A6005E00279114484
:103E90000A6803689A430A60704700210160017153
:103EA0000C2141710021817170471349103109685B
:103EB0000143114A103211607047014600200E4A3A
:103EC000143212680A400AB1012000E00020704755
:103ED000094914310860704701460020064A14322F
:103EE00012680A400AB1012000E000207047024930
:103EF0001431086070470000003C0140FFFF7F0064
:103F0000016821F0010101600021016041608160D0
:103F1000C160016121214161DB49884204D13D2119
:103F2000D94A103A91608CE0D7491831884205D1BE
:103F30004FF47461D44A103A916082E0D249303132
:103F4000884205D14FF47411CF4A103A916078E05D
:103F5000CD494831884205D14FF07461CA4A103AC0
:103F600091606EE0C8496031884204D1C749C64AB1
:103F7000103AD16065E0C4497831884204D1C4491F
:103F8000C14A103AD1605CE0BF499031884204D107
:103F9000C049BD4A103AD16053E0BB49A8318842BC
:103FA00005D14FF03D51B84A103AD16049E0BA49C5
:103FB000884204D13D21B84A083A116041E0B6492F
:103FC0001831884205D14FF47461B34A083A116040
:103FD00037E0B1493031884205D14FF47411AE4A0F
:103FE000083A11602DE0AC494831884205D14FF0C4
:103FF0007461A94A083A116023E0A74960318842F8
:1040000004D1A249A44A121F11601AE0A2497831D2
:10401000884204D19E49A04A121F116011E09E49B6
:104020009031884204D19B499B4A121F116008E0DD
:104030009949A831884204D14FF03D51964A121F48
:104040001160704710B500220268944B1A40CC688A
:104050000B6823434C6923438C692343CC69234376
:104060000C6A23434C6A23438C6A23434C6B2343DF
:104070008C6B23431A430260426922F00702D1E9A4
:104080000B3423431A4342610B6943604B688360DE
:104090008B68C36010BD0021016041608160C16018
:1040A000016141618161C161016241628162C162FC
:1040B000016341638163704721B1026842F00102EC
:1040C000026003E0026822F001020260704721B141
:1040D000026842F40042026003E0026822F40042F7
:1040E0000260704721B1026842F02002026003E0E2
:1040F000026822F02002026070474160704701466A
:10410000486880B2704722B1036843F4002303601B
:1041100003E0036823F4002303600161704721B1C9
:10412000026842F48022026003E0026822F48022E6
:10413000026070470AB1016100E0C160704701464A
:1041400000200A6802F400220AB1012000E00020E9
:104150007047014600200A6802F001020AB10120FE
:1041600000E000207047014600204A6902F0380054
:10417000704730B503460A4600200024464DAB4246
:1041800002D24149103901E04349103902F000558B
:104190000DB14C6800E00C68414D2C4004EA02056A
:1041A0000DB1012000E0002030BD02463A4B9A429A
:1041B00002D23548103801E03748103801F000537A
:1041C0001BB1374B0B40C36002E0354B0B408360A3
:1041D000704710B501F080034BB122B1436943F041
:1041E0008003436103E0436923F080034361802936
:1041F0000BD02AB1036801F01E042343036004E0DE
:10420000036801F01E04A343036010BD70B50246AD
:10421000002000240025204EB24202D21A4B103B4F
:1042200001E01D4B103B1F4E0E4036B11E2606EA24
:10423000D124166806EA040502E0566906F08005F6
:1042400001F000560EB15C6800E01C68144E34406A
:1042500004EA010616B10DB1012000E0002070BD96
:1042600002460D4B9A4202D20748103801E00A4834
:10427000103801F000531BB1094B0B40C36002E042
:10428000074B0B4083607047106002403D000020E8
:10429000400F002000003D20106402403F801CF0D1
:1042A0007D0F7D0F3C0F3C0F2DE9F04704460F4674
:1042B0000026B146B04626E017F8085006EB460146
:1042C000601C00EB41124846411C01F0FF091554E7
:1042D000BAF10D0F13D10A2D11D1B9F1020F02D18C
:1042E0004FF000090DE0002106EB4602601C00EBD8
:1042F0004212A9F102001154701CC6B28946AA46A6
:1043000000BF08F10108384601F062F94045D3D8F2
:10431000002106EB4602601C00EB421001700020F9
:10432000BDE8F08710B540F22551F848FEF77AFE57
:1043300018B3F648001D0088C4B2F548008800F4A0
:104340000040D0B9F248008818B9F148008800212F
:104350000180EF480088802810D20020ED490860D5
:104360000121EC482438FFF727F8E9480188008844
:10437000401CE74A1080E848445405E0E4480088BF
:1043800040F40040E249088010BD10B5E0480088C4
:10439000C0F30E0028B1DE48008840F40040DC493C
:1043A00008800121DB482438FFF746FC0021D9486A
:1043B0002438FFF701F810BD7FB505460C460121F2
:1043C0002020FEF744FB0195ADF800400020ADF839
:1043D0000800ADF802006946CE482438FEF763FFB6
:1043E00001221146CB482438FFF7FEFB37208DF819
:1043F0000C0000208DF80D0001208DF80E008DF8C6
:104400000F0003A8FDF719FD7FBD10B588B0044665
:1044100001210846FEF7D2FA01214804FEF717FBF6
:10442000BA48FEF71FFC07220221BC48FEF7B3F88A
:1044300007220321B948FEF7AEF80C2005900220B0
:104440008DF818008DF8190000208DF81A00012051
:104450008DF81B0005A9B148FEF712F80194002061
:10446000ADF80800ADF80A00ADF80C00ADF810008A
:104470000C20ADF80E0001A9A448FEF75AFC01215A
:10448000A248FEF7DEFC012240F225519F48FEF7CC
:104490008EFD26208DF81C0002208DF81D000320C3
:1044A0008DF81E0001208DF81F0007A8FDF7C5FC40
:1044B00008B010BD10B5024600200CE000BF934BC1
:1044C0001B8803F04003002BF9D0135C8F4C241D94
:1044D0002380431C98B28842F0DB10BD10B54FF426
:1044E0001650FFF792FF40F2E73140F24730FFF7F6
:1044F00063FF10BD70B505460C461646B4F5806FD7
:1045000004D987A000F0E0FE002070BDA1B22846CB
:10451000FFF7D0FF2046F8E770B5044600257C4839
:10452000008800F4004058B1002079490988C1F39F
:104530000E01794A50542146104601F037F80546DD
:10454000284670BD10B504467CA1204601F02EF827
:1045500018B121467BA000F0B7FE012010BD2DE967
:10456000F04704460F4615461E464FF00008C14668
:10457000002067490880204601F02AF880280AD9DF
:10458000204601F025F88246514671A000F09CFEBD
:104590000220BDE8F087FF2C0AD800BF5B480088E6
:1045A00000F040000028F9D05849091D0C800AE0AD
:1045B00022466EA16E4800F093FE1FFA80F949462C
:1045C0006B48FFF777FF002F43D0002D41D038E034
:1045D0000A20FDF747FB4E48008800F4004078B3FE
:1045E0003846FFF7AFFF58B33846FFF795FF80B165
:1045F00047480088C0F30E024749304601F052F8A0
:10460000002043490988C1F30E01705440490880D5
:104610001BE058A0FFF780FF90B13D480088C0F331
:104620000E023D49304601F03DF800203849098826
:10463000C1F30E017054364908804FF0020804E0BF
:10464000FFE7681E80B2051EC2D100BF0DB94FF052
:10465000010840469DE770B504462D48008800F4E7
:104660000040B0F5004F19D12948008820F40040DF
:104670002749088008460088A4F886000846028872
:104680002549601D01F00EF8002021490880002511
:1046900000E06D1C052DFCDB002070BD0120FCE757
:1046A0002DE9F04106460C461546002718480088BB
:1046B00000F4004010B90220BDE8F08116B30CB33D
:1046C00000BF0A20FDF7CEFA1148008800F4004030
:1046D000C8B13046FFF736FFA8B13046FFF71CFFE0
:1046E00090B10B480088C0F30E020B49284600F039
:1046F000D9FF002006490988C1F30E016854044916
:10470000088043E045E03DE038E000000044004020
:104710003600002024140040500800200000024011
:104720004E4241545F73656E64206C656E20697300
:10473000206572726F720D0A000000002B4E534FFD
:104740004D490000726573706F6E733A20257300D7
:104750004E4241545F73656E64436D64204C656ED8
:104760002069732025640D0A0000000025730000F5
:10477000D00800204552524F52000000AFF20C000A
:10478000FFF7CAFE601E80B2041E9AD100BF04B9B2
:104790000127384690E710B500240848008800F447
:1047A000004040B106A1084800F000FF18B1802188
:1047B000054800F0BCFF002010BD000036000020BE
:1047C0002B4E4E4D490000005008002070B50646A3
:1047D0000D46002410E0305DF74901EB2010017810
:1047E00005F81410305D00F00F00F349095C60001B
:1047F000401C2954601C84B2304600F0E9FE80B2AF
:10480000A042E8DC002105F8141070BD2DE9F0414C
:1048100005460E4617460024A046284600F0D8FE5E
:1048200000F0010010B10120BDE8F08140E04FF040
:104830000008285D302807DB285D392804DC285D66
:10484000303800F0FF0817E0285D412807DB285DBD
:10485000462804DC285D373800F0FF080CE0285DAE
:10486000612807DB285D662804DC285D373800F006
:10487000FF0801E00220D7E7204604EBD071491081
:10488000A4EB410139B94FEA0871090E04EBD0726B
:104890005210B1540AE0204604EBD0714910715C0B
:1048A00041EA080104EBD0725210B154601C84B28A
:1048B000284600F08DFE80B2A042B8DC284600F009
:1048C00087FE400838600020AEE72DE9F047074634
:1048D0000D461646A8463C46284600F079FE81461D
:1048E0004E4500DD4E4603E018F8010B04F8010BBD
:1048F000301EA6F10106F7D104F8010B3846BDE8D9
:10490000F0872DE9F04780460C4615462646C146FD
:10491000204600F05DFE0746BD4200DD3D46781BA7
:10492000064400BF16F8011B09F8011B0029F9D144
:104930004046BDE8F0872DE9F04104460D46164695
:104940009846284600F044FE0746BE4201DA002E93
:1049500002DA0120BDE8F081B84501DDA7EB0608C9
:10496000354403E015F8010B04F8010BB8F1000021
:10497000A8F10108F6D104F8010B00BFEAE710B571
:10498000FFF7ACFD10BD10B500248C4B64228CA148
:104990008CA0FFF7E4FD044634B98CA000F094FC31
:1049A000864994A000F090FC204610BD10B500246C
:1049B000824B642295A198A0FFF7D1FD044614B95B
:1049C00098A000F081FC204610BD10B500247B4B60
:1049D00064227BA17BA0FFF7C2FD044614B999A015
:1049E00000F072FC204610BD10B50024734B642209
:1049F00073A19CA0FFF7B3FD044614B99CA000F07E
:104A000063FC204610BD10B500246C4B64226CA1E1
:104A1000A0A0FFF7A4FD044634B9A1A000F054FC07
:104A2000664974A000F050FC204610BD10B500246B
:104A3000624B6422A3A1A4A0FFF791FD04463CB9F8
:104A4000A4A000F041FC5D496AA000F03DFC06E036
:104A5000A9A000F039FC594966A000F035FC2046B9
:104A600010BD10B50024554B642255A1A9A0FFF735
:104A700076FD04463CB9ABA000F026FC4F495DA092
:104A800000F022FC06E09CA000F01EFC4B4959A05F
:104A900000F01AFC204610BD70B504460025474BB7
:104AA000642247A1A8A0FFF75AFD0546A5B94348CF
:104AB000007A30384149C979303901EB810100EB86
:104AC0004100C6B2632E04D1A2A000F0FDFB03207A
:104AD00070BD04B1267002E087A000F0F5FB284607
:104AE000F6E770B5002400250026344B642234A17B
:104AF0009DA0FFF734FD0446002C13D19DA000F0CB
:104B0000E3FB2E493BA000F0DFFBA3A12B4800F004
:104B10004DFD0546A3A1294800F048FD06460DB904
:104B200006B90124204670BD10B50024234B642231
:104B300023A19FA0FFF713FD044614B9A0A000F025
:104B4000C3FB204610BD70B50024002500261B4B7A
:104B500064221BA1A3A0FFF702FD0446002C13D181
:104B6000A3A000F0B1FB154922A000F0ADFBA9A164
:104B7000124800F01BFD0546A8A1104800F016FDE4
:104B800006460DB906B90124204670BD70B504462D
:104B900000252246A3A1A74800F0A2FB074B6422F0
:104BA00007A1A448FFF7DBFC054615B9A2A000F059
:104BB0008BFB284670BD00005C870008D0090020F0
:104BC0004F4B000041540D0A000000005B494E4667
:104BD0004F5D434845434B204D4F44454C20524583
:104BE00053504F4E534520535543434553530D0A9D
:104BF000000000005B494E464F5D524553504F4EFA
:104C000053452049532025730D0A00005245424F59
:104C10004F54494E4700000041542B4E52420D0A5A
:104C2000000000005B494E464F5D5245424F4F54D5
:104C300020524553504F4E534520535543434553FF
:104C4000530D0A005B494E464F5D47455441434B67
:104C500020524553504F4E534520535543434553DF
:104C6000530D0A0041542B434D45453D310D0A007B
:104C70005B494E464F5D534554434D454520524593
:104C800053504F4E534520535543434553530D0AFC
:104C90000000000041542B4E42414E443F0D0A009B
:104CA0005B494E464F5D4745544E42414E4420526B
:104CB0004553504F4E534520535543434553530D91
:104CC0000A0000003436000041542B43494D490D81
:104CD0000A0000005B494E464F5D47455443494D2D
:104CE0004920524553504F4E534520535543434559
:104CF00053530D0A000000005B494E464F5D41547E
:104D000020524553504F4E5345204641494C0D0AC1
:104D10000000000041542B43474154543D310D0ADB
:104D2000000000005B494E464F5D534554434741E8
:104D3000545420524553504F4E53452053554343EE
:104D40004553530D0A00000041542B4353510D0AA3
:104D5000000000005B4552524F525D47455443539B
:104D600051204661696C0A0041542B434552454726
:104D70003F0D0A005B494E464F5D4745544345523F
:104D8000454720524553504F4E53452053554343BA
:104D90004553530D0A0000002B43455245473A3016
:104DA0002C3100002B43455245473A312C3100004D
:104DB00041542B43455245473D310D0A0000000048
:104DC0005B494E464F5D534554434552454720523B
:104DD0004553504F4E534520535543434553530D70
:104DE0000A00000041542B434F50533F0D0A00006E
:104DF0005B494E464F5D474554434F505320524503
:104E000053504F4E534520535543434553530D0A7A
:104E100000000000343630313100000034363030CC
:104E20003000000041542B4E4344503D25730D0A81
:104E300000000000D00B00205B494E464F5D5345FB
:104E4000544E43445020524553504F4E53452053E7
:104E50005543434553530D0A0000000070B5044606
:104E60000025204600F0B4FB4608234632466AA1DE
:104E70006D4800F035FA6D4B4FF4FA62AFF2C02185
:104E80006948FFF76CFB054615B969A000F01CFAEC
:104E9000284670BD10B50024644B6422AFF2E021B7
:104EA0006CA0FFF75CFB044614B973A000F00CFA89
:104EB000204610BD70B5002400255C4B6422AFF283
:104EC000003176A0FFF74BFB04464CB976A000F00A
:104ED000FBF97EA1554800F069FB054605B90124A0
:104EE000204670BD70B50024002500264F4B64227B
:104EF000AFF2343178A0FFF732FB0446002C14D116
:104F000078A000F0E1F94949AFF2183000F0DCF97F
:104F10007DA1464800F04AFB05467EA1434800F0CB
:104F200045FB06460DB906B90124204670BD016057
:104F3000027170472DE9F04704464FF0000904F173
:104F40000509B4F88680002543E005EB4502216899
:104F500051F8220000F03CFB87B205EB45022168C6
:104F600001EB8201486800F033FB86B2B819404576
:104F700000DD2CE06FB105EB4502206850F82210EF
:104F80003A46484600F043FB08B9012002E0002001
:104F900000E00120D0B186B105EB4503226802EBA9
:104FA0008302516809EB0802901B324600F02FFB88
:104FB00008B9012002E0002000E0012030B105EB3B
:104FC0004501206800EB8100BDE8F08700BF681C48
:104FD00085B22079A842B8DC0020F5E770B5044618
:104FE00000252046FFF737FB054695B92046FFF719
:104FF000A1FF061E0CD04A48006808B9012000E055
:10500000002047490860B4F88610601DB2689047D8
:1050100000BF284670BD000041542B4E4D47533D04
:1050200025642C25730D0A00D00B0020D009002028
:105030005B494E464F5D5345544E4D4753205245B4
:1050400053504F4E534520535543434553530D0A38
:105050000000000041542B434744434F4E543D3120
:105060002C224950222C224855415745492E434F66
:105070004D220D0A000000005B494E464F5D53452E
:1050800054434744434F4E5420524553504F4E5380
:105090004520535543434553530D0A0041542B4378
:1050A000474154543F0D0A005B494E464F5D47450A
:1050B00054434741545420524553504F4E5345207A
:1050C000535543434553530D0A0000002B434741BA
:1050D00054543A310000000041542B4353434F4E87
:1050E0003F0D0A005B494E464F5D474554435343CD
:1050F0004F4E20524553504F4E5345205355434336
:105100004553530D0A0000002B4353434F4E3A3092
:105110002C3100002B4353434F4E3A302C300000CB
:10512000A482424210B540F225515748FDF77AFF5C
:1051300000B35548FDF7B4FEC4B25448008800F4EB
:105140000040B8B951480088B0F5C87F13DA002193
:105150004F48FEF7F1F84D48008818B901214C4836
:10516000FEF72AF9494801880088401C474A108008
:105170004848445405E04548008840F4004043490D
:10518000088010BD10B588B0044601210420FDF749
:1051900015FC01212020FDF76BFC082206213E486A
:1051A000FDF7F9F9082207213B48FDF7F4F9C02083
:1051B000069002208DF81C008DF81D0000208DF84F
:1051C0001E0001208DF81F0006A93348FDF758F98D
:1051D00002940020ADF80C00ADF80E00ADF8100000
:1051E000ADF814000C20ADF8120002A92648FDF716
:1051F000A0FD01212448FDF724FE012240F22551A3
:105200002148FDF7D4FE47208DF8040003208DF8D7
:1052100005008DF8060001208DF8070001A8FCF7B5
:105220000CFE42F2CF0140F2E730FCF791FA002089
:105230001649088000211648FEF7BEF808B010BDD8
:105240000FB438B505A800901448009A049900F0EE
:1052500029F800200090114800F0BAF985B2002426
:105260000DE000BF40210848FDF7C6FE0028F9D038
:105270000A48015D0448FDF70FFE601C84B2AC4291
:10528000EFDB38BC5DF814FB00140140380000204F
:10529000000C00406011002000080240D00F0020E8
:1052A000704700001CB50C46064B7B4469460090D5
:1052B000204600F018FB04460020694600F026FB5B
:1052C00020461CBD5F0600000FB4044910B503AAB8
:1052D000029800F037FB10BC5DF814FB20000020A2
:1052E0000FB41CB5084B06AA7B446946009005988C
:1052F00000F0F9FA04460020694600F007FB20465A
:105300001CBC5DF814FB00002106000070B50446CB
:1053100085690068C10601D5302600E02026C00757
:1053200007D070BDD4E9012130469047206A401C67
:1053300020626D1EF6D570BD70B504468569007893
:10534000C00707D170BDD4E9012120209047206A11
:10535000401C20626D1EF6D570BD70B50C4605462A
:10536000012A05D02878800600D5EA69002302E0EA
:10537000012305E05B1C934202D2E05C0028F9D1D6
:10538000A869E618C01AA861286A18442862284645
:10539000FFF7BCFF04E0D5E9012114F8010B9047A9
:1053A000B442F8D32846FFF7C7FF70BD2DE9F0419E
:1053B0000646002410687529314616A510D000F065
:1053C0000EFA002802DA404213A507E031688A0786
:1053D00001D512A502E0490704D511A5012401E079
:1053E00000F006FA00210A2206F1240709E0B0FBCA
:1053F000F2FCB0FBF2F302FB1C003030785418468C
:10540000491C0028F3D123462A463046BDE8F04126
:1054100000F0F7B9000000002D0000002B00000094
:10542000200000002DE9F05F894604464FF0000A95
:10543000DFF874B1FB44C0F820A02046E16888473B
:10544000002874D0252806D0D4E901219047206A8D
:10545000401C2062F1E700265F462046E16888474D
:105460002028054607DB312D05D2781910F8200CCD
:1054700008B10643F1E7B00701D526F00406C4F8E9
:105480001CA00027C4F818A02A2D09D0284602F035
:1054900057FA38B304EB8708303DC8F8185019E0C4
:1054A00059F8041B204604EB87029161E1688847A4
:1054B000012F054618D1E069002820DA26F02006E1
:1054C0001DE0D8F8180000EB800005EB40003038F4
:1054D000C8F818002046E1688847054602F030FA0F
:1054E0000028EED1012F0AD02E2D08D12046E168E8
:1054F00088477F1C0546022F46F02006C4DBA069C2
:10550000002803DA404246F00106A061F00701D00E
:1055100026F010066C2D0BD0682D09D04C2D39D0FB
:105520006A2D35D0742D35D07A2D33D016E038E081
:10553000E1682F4620468847B842054609D16C2FBE
:1055400026D04FF48060E168064320468847054630
:1055500004E06C2F1AD04FF4807006430DB3A5F110
:105560004100192802D8203546F400664A462946EB
:10557000204626604E46FAF741FE80B101280BD046
:10558000F61D26F0070000F1080956E74020E4E781
:105590008020D8E70020D6E706F104094DE7284629
:1055A00052E7206ABDE8F09F3433000030B505466D
:1055B0000B462A4613F8014B12F8010B08B1A04222
:1055C000F8D01CB1002802D06D1CF1E7284630BD90
:1055D00010B5431C02E010F8011B71B18107FAD12C
:1055E0004FF0013202C88C1A8C4314EAC211F9D070
:1055F000C01A0A0603D0C01E10BDC01A10BD0A048E
:1056000001D0801E10BD0902FCD0401E10BD40EA32
:10561000010370B59B072ED14FF00136042A2AD31F
:1056200008C810C99D1B9D43121F15EAC61517D047
:10563000D8B2E1B2401A50EA056110D198B2A1B2D5
:10564000401A50EA05410AD123F07F4024F07F41FF
:10565000401A50EA052102D1180EA0EB146070BD6B
:10566000A342DBD018BA21BA884201D9012070BD0B
:105670004FF0FF3070BD0AB9002070BD10F8013B3B
:1056800011F8014B63B1A3420AD1521E08D010F8A1
:10569000013B11F8014B1BB1A34201D1521EEDD1C8
:1056A000181B70BD032A40F2308010F0030C00F08C
:1056B000158011F8013BBCF1020F624498BF11F84C
:1056C00001CB00F8013B38BF11F8013BA2F1040205
:1056D00098BF00F801CB38BF00F8013B11F003037D
:1056E00000F06082083AC0F0088051F8043B083AA4
:1056F00051F804CBA0E80810F5E7121D5CBF51F883
:10570000043B40F8043BAFF30080D20724BF11F8FC
:10571000013B11F801CB48BF11F8012B24BF00F861
:10572000013B00F801CB48BF00F8012B70474FF058
:1057300000020429C0F0128010F0030C00F01B805E
:10574000CCF1040CBCF1020F18BF00F8012BA8BF6C
:1057500020F8022BA1EB0C0100F00DB85FEAC17C30
:1057600024BF00F8012B00F8012B48BF00F8012BE3
:1057700070474FF0000200B5134694469646203914
:1057800022BFA0E80C50A0E80C50B1F12001BFF4FA
:10579000F7AF090728BFA0E80C5048BF0CC05DF860
:1057A00004EB890028BF40F8042B08BF704748BFAE
:1057B00020F8022B11F0804F18BF00F8012B704722
:1057C000704770477047704710B500F01DFA0068C9
:1057D00010BD10B5044600F017FA046010BD09684A
:1057E0004A0501D540B27047C905FCD500B27047E3
:1057F00009684A0501D5C0B27047C905FCD580B219
:1058000070472DE9F0470D4699469246044600F14F
:1058100024080168880604D5E06921F010012160A0
:1058200000E00120A84201DD471B00E00027A1693C
:105830007A1902EB0900081AA0612078C00602D488
:105840002046FFF763FD002608E0D4E901211AF89D
:1058500006009047206A401C761C20624E45F4DB0F
:105860002078C0060AD52046FFF750FD06E0D4E9AF
:10587000012130209047206A401C2062381EA7F189
:105880000107F4DC07E0D4E9012118F8050090478E
:10589000206A401C2062281EA5F10105F3DC204689
:1058A000FFF74AFD2078000602D50220BDE8F08708
:1058B0000120FBE711680268006A530501D50870F2
:1058C0000AE0D30501D5088006E0130603D5C21708
:1058D000C1E9000200E008600120704701694A1C2C
:1058E00002610878704700B58FB0CDE90131002121
:1058F000059105497944CDE9031011466846FFF743
:1059000091FD0FB000BD0000E5FFFFFF0A6802F83F
:10591000010B0A60704710B5436913B1AFF3008003
:1059200001E0FFF71AFD012010BD127800F12401FB
:105930000A7000224A700122EDE711684FF0FF3231
:10594000E9E70000074B70B50D467B44FFF7CBFF3E
:105950000446284600F0C6FB10B14FF0FF3070BD82
:10596000204670BD5DC3FFFF2DE9FF5F15468A46E7
:105970000446DFF8AC80F8440027D8E900103E4622
:10598000CDE9001010E03AF816106A4602A800F0BF
:10599000ADFB411C07D02178890603D5E26939188F
:1059A00091420DD80744761C2078800602D5E06924
:1059B000B84205DDAE42E6DB3AF816000028E2D137
:1059C000A069C01BA0612046FFF7A0FCD8E9001029
:1059D000CDE90010002017E03AF818106A4602A836
:1059E00000F084FBB0F1FF3F81460BD000250DF1A4
:1059F000080B05E0D4E901211BF8050090476D1C58
:105A00004D45F7D308F10100B0428046E4DB206A3F
:105A1000384420622046FFF78FFCBDE8FF9F00005E
:105A20008E2E00002DE9F0418046D21D22F00702A3
:105A30000025D2E90002F52915A614D0011E72F145
:105A4000000106DA0023D0EB030063EB020211A68B
:105A500008E0D8F800108B0701D50FA602E049072F
:105A600001D50EA601251146002408F1240704E003
:105A700000F0CEF830323A55641C50EA0102F7D1FA
:105A80002B46324621464046BDE8F041FFF7B9BEFD
:105A9000000000002D0000002B000000200000008E
:105AA00030B4002100F1240408E002F00705D20818
:105AB000303542EA4372DB086554491C52EA03055B
:105AC000F3D10468002310A2250707D5A40600D44B
:105AD00021B1C46901230DA2641EC46130BCFFF76B
