:020000040800F2
:100000005019002075230008871000088910000887
:100010008D100008911000089510000800000000E5
:10002000000000000000000000000000991000081F
:100030009B100008000000009D1000089F100008A1
:100040008F2300088F2300088F2300088F230008C8
:100050008F2300088F230008CD1500088F23000888
:100060008F2300088F2300088F2300088F230008A8
:100070008F2300088F2300088F2300088F23000898
:100080008F2300088F2300088F2300088F23000888
:100090008F2300088F2300088F2300088F23000878
:1000A0008F2300088F2300088F2300088F23000868
:1000B0002D1B00088F2300088F2300088F230008C2
:1000C0008F2300088F2300088F2300088F23000848
:1000D0008F230008E9220008A9480008ED1C000849
:1000E0008F2300088F2300088F2300088F23000828
:1000F0008F2300088F2300088F2300088F23000818
:100100008F2300088F230008A71B00088F230008F7
:100110009D1E00088F2300088F2300080F49000848
:10012000A71400088F2300088F2300088F230008DE
:100130008F2300088F2300088F2300088F230008D7
:100140008F2300088F2300088F2300088F230008C7
:100150008F2300088F2300088F23000841590008CF
:100160008F2300088F2300088F2300088F230008A7
:100170008F2300088F2300088F2300088F23000897
:100180008F2300088F23000800F002F800F092F897
:100190000AA090E8000C82448344AAF10107DA45E2
:1001A00001D100F087F8AFF2090EBAE80F0013F0A2
:1001B000010F18BFFB1A43F00103184748950000D0
:1001C00068950000103A24BF78C878C1FAD8520761
:1001D00024BF30C830C144BF04680C6070470000C1
:1001E0000023002400250026103A28BF78C1FBD840
:1001F000520728BF30C148BF0B6070476E2905F019
:100200006787702906F0E182662908F0368665293D
:1002100008F03386672908F030866129AFF3008043
:1002200003681B0A28BF41F08001692905F0CC84CE
:10023000642905F0C984752905F0C6846F2906F084
:100240006E82782906F0AD82E92906F00982E42958
:1002500006F00682F52906F00382EF2906F06B828C
:10026000F82906F0AC820368DB0928BF41F0800161
:10027000632906F07881732906F07D81E32906F071
:100280007983F32906F07E83002070471FB508F0BC
:10029000EAFD06F0D7FA04000020002107F0C0FFB5
:1002A000401C60600020002107F0A4FFE0601FBD3B
:1002B00010B510BD06F004FC1146FFF7E7FF00F093
:1002C00047FC06F02BFC03B4FFF7F2FF03BC01F080
:1002D000ABFF00002DE9F041A2B006468846174664
:1002E000B8F1410F09D0B8F1460F0CD0B8F14C0F5E
:1002F00005D0B8F1520F08D103E0F2A405E0F3A451
:1003000003E0F4A401E0F5A400BF00BF412F06D034
:10031000482F0AD04C2F04D04D2F08D103E0E9A577
:1003200005E0F0A503E0F1A501E0F2A500BF00BFE4
:10033000802102A805F02BFEF0A005F0D3FB234698
:100340003246F14902A8009505F0D8FBEFA005F070
:10035000C9FB02A801F082FDEFA005F0C3FB22B0AB
:10036000BDE8F0812DE9F0478EB006460024EDA5EA
:1003700000200090ECA1304605F026FD044604F173
:10038000010804F1030998F80170342101A805F06F
:10039000FEFD6A4601A9484604F0FAFC824638464A
:1003A000362F78D008DCA0F1310005280DD2DFE827
:1003B00000F00C0D667F950037286DD038286CD082
:1003C00039286BD0612800D1FEE012E1D7A005F0FA
:1003D00089FB9DF804004F2850D19DF80500412865
:1003E00006D0462810D04C2806D0522810D107E05D
:1003F000D2A005F077FB0BE0D8A005F073FB07E077
:10040000DEA005F06FFB03E0E4A005F06BFB00BF8E
:1004100000BF9DF80800412806D0482810D04C287D
:1004200006D04D2810D107E0E4A005F05BFB0BE0FF
:10043000EAA005F057FB07E0F0A005F053FB03E04E
:10044000F6A005F04FFB00BF00BF9DF807309DF8F8
:100450000620FAA1284605F051FB2946F9A005F02F
:1004600041FBA6A005F03EFB9DF808209DF8051075
:100470002846FFF72FFFFBA005F034FBB9E0FCA0F6
:1004800005F030FBFEA101A805F09EFC38B1FDA0EF
:1004900005F028FB0BE03CE058E074E090E0FCA1A4
:1004A00001A805F091FC10B1FAA005F01BFBA0E03B
:1004B00001A9FBA005F016FBF1A101A805F084FC41
:1004C00018B1FCA005F00EFB07E0F1A101A805F0B2
:1004D0007BFC10B1FBA005F005FB8AE0FDA005F058
:1004E00001FBE7A101A805F06FFC30B10120FC4938
:1004F0000860FCA005F0F6FA0AE0E5A101A805F005
:1005000063FC28B10020F6490860F9A005F0EAFA7A
:100510006FE0FAA005F0E6FAD9A101A805F054FCB5
:1005200038B10120EE490C390860F8A005F0DAFA7C
:100530000BE0D7A101A805F047FC30B10020E84945
:100540000C390860F5A005F0CDFA52E0F7A005F0EF
:10055000C9FACBA101A805F037FC38B10120E04968
:1005600008390860F5A005F0BDFA0BE0C8A101A8A4
:1005700005F02AFC30B10020D94908390860F3A001
:1005800005F0B0FA35E0F5A005F0ACFABCA101A881
:1005900005F01AFC38B10120D149091F0860F3A009
:1005A00005F0A0FA0BE0BAA101A805F00DFC30B1EE
:1005B0000020CB49091F0860F0A005F093FA18E06D
:1005C000F2A005F08FFA14E0F4A005F08BFAACA1CC
:1005D00001A805F0F9FB18B1F4A005F083FA07E0D3
:1005E000ABA101A805F0F0FB10B1F3A005F07AFA79
:1005F00000BF00BF0EB0BDE8F08730B599B004462B
:100600000D46602101A805F0C2FC6022214601A828
:1006100005F056FC01A9EBA005F064FA01A8FFF76C
:10062000A1FE19B030BD2DE9F047A2B005460E4637
:1006300017469846B146BA464446012D04D0022DCD
:1006400015D0032D39D125E0802102A805F09FFCAB
:100650002146E1A005F046FA53464A46E44902A87D
:10066000009405F04BFA02A801F0F8FB25E0802188
:1006700002A805F08CFC2146DEA005F033FA5346B3
:100680004A46E24902A8009405F038FA02A801F0AF
:10069000E5FB12E0802102A805F079FC2146DCA0F0
:1006A00005F020FA53464A46DF4902A8009405F0B7
:1006B00025FA02A801F0D2FB00BF00BF22B0BDE8BE
:1006C000F0870000D7D4B6AF00000000D6C6C0E463
:1006D00000000000D6C6C8C800000000CBCDB7E7B8
:1006E00000000000B5CDCBD900000000D6D0CBD99A
:1006F00000000000B8DFCBD9000000005B64656239
:1007000075675D3100000000989200085B646562C7
:1007100075675D32000000005B64656275675D337C
:1007200000000000323600002C000000C9E8D6C3EB
:10073000BFD5B5F72E2E2E0D0A0000005B61697241
:10074000636F6E646974696F6E5D2D3EC4A3CABD2C
:100750003AD7D4B6AF204C0D0A0000005B61697235
:10076000636F6E646974696F6E5D2D3EC4A3CABD0C
:100770003A20D6C6C0E40D0A000000005B61697231
:10078000636F6E646974696F6E5D2D3EC4A3CABDEC
:100790003A20D6C6C8C80D0A000000005B61697225
:1007A000636F6E646974696F6E5D2D3EC4A3CABDCC
:1007B0003A20CBCDB7E70D0A000000005B616972FB
:1007C000636F6E646974696F6E5D2D3EB7E7CBD958
:1007D0003A20D7D4B6AF0D0A000000005B61697201
:1007E000636F6E646974696F6E5D2D3EB7E7CBD938
:1007F0003A20B5CDCBD90D0A000000005B616972CB
:10080000636F6E646974696F6E5D2D3EB7E7CBD917
:100810003A20D6D0CBD90D0A000000005B61697286
:10082000636F6E646974696F6E5D2D3EB7E7CBD9F7
:100830003A20B8DFCBD90D0A0000000025632563FC
:10084000000000005B616972636F6E646974696FB8
:100850006E5D2D3ECEC2B6C83A202573A1E60D0AC4
:10086000000000005B64656275675D340000000095
:10087000BFD8D6C6B4B0C1B12E2E2E0D0A000000CE
:100880004F000000B4F2BFAAB4B0C1B10D0A00001D
:1008900043000000B9D8B1D5B4B0C1B10D0A000011
:1008A000C9E8D6C3BCD2CDA5C4A3CABD25733A201E
:1008B0000D0A0000B4F2BFAACBF9D3D0B5C60D0A19
:1008C00000000000B9D8B1D5CBF9D3D0B5C60D0A18
:1008D00000000000BFD8D6C6B7E7BBFA0D0A00007B
:1008E000A0824042B4F2BFAAB7E7BBFA0D0A0000EB
:1008F000B9D8B1D5B7E7BBFA0D0A0000BFD8D6C644
:10090000BFCDCCFCB5C60D0A00000000B4F2BFAAF2
:10091000BFCDCCFCB5C60D0A00000000B9D8B1D5DA
:10092000BFCDCCFCB5C60D0A00000000BFD8D6C6AE
:10093000CED4CAD2B5C60D0A00000000B4F2BFAAD8
:10094000CED4CAD2B5C60D0A00000000B9D8B1D5C0
:10095000CED4CAD2B5C60D0A00000000BFD8D6C694
:10096000B3F8B7BFB5C60D0A00000000B4F2BFAAC5
:10097000B3F8B7BFB5C60D0A00000000B9D8B1D5AD
:10098000B3F8B7BFB5C60D0A00000000BFD8D6C681
:10099000D4A1CAD2B5C60D0A00000000C9E8D6C36A
:1009A000CDD8D5B9C3FCC1EE0D0A0000CDD8D5B95C
:1009B000BFAA0D0A00000000CDD8D5B9B9D80D0ADC
:1009C000000000005B494E464F5D7265637620640F
:1009D0006174613A257300005B64656275675D73DD
:1009E0006D6F6B655F74656D70313A25640D0A003B
:1009F0000C9200085B64656275675D736D6F6B6573
:100A00005F74656D70323A25640D0A0080910008AC
:100A10005B64656275675D736D6F6B655F74656D53
:100A200070333A25640D0A00F490000810B50024D4
:100A300003E00124E8A005F055F804F066FA002868
:100A4000F7D14FF4C87001F0CFFB03E00124EAA016
:100A500005F048F8002004F0E1FA0028F6D14FF440
:100A6000C87001F0C1FB03E00124EBA005F03AF8E7
:100A700004F0F9FA0028F7D14FF4C87001F0B4FB84
:100A800003E00124ECA005F02DF8F3A004F040FBF6
:100A90000028F6D14FF4C87001F0A6FB14B9F1A0FC
:100AA00005F020F810BD10B5002403E00124F4A0E7
:100AB00005F018F800F07FFE0028F7D10A2001F0B9
:100AC00093FB03E00124F3A005F00CF800F03FFFD6
:100AD0000028F7D10A2001F087FB03E00124F2A0EF
:100AE00005F000F800F0FFFF0028F7D114B9F3A0DB
:100AF00004F0F8FF10BD10B5C82001F075FBF5A09B
:100B000001F0ACF9F5A001F0A9F9FAA001F0A6F9FD
:100B1000FE4801F0A3F9FE4801F0A0F9FD4801F0FC
:100B20009DF9FD4801F09AF9FC4801F097F9FC485D
:100B300001F094F9FBA001F091F9FDA001F08EF90C
:100B4000C4A001F08BF94FF47A7001F04DFB10BD99
:100B50002DED068BADF5107D00BF0025002600278A
:100B600000241A208F908E908D9000208C908B9076
:100B70008A9000BF0FF2C0380DF11C090122EF4925
:100B8000484604F096FC4FF4A06001F013FCA82046
:100B900001F0C8FA4FF4E13001F054FB4FF4E130BA
:100BA00001F0E2F84FF4165001F0B6F94FF4E130DD
:100BB00004F0F6FE00F07CFB01F076FA01F091FA09
:100BC000FFF799FF00F07DFCFFF76DFFDC4801F0B7
:100BD0004EFD04F096F9FFF729FF04F0D7FD1B2026
:100BE00001F02BFA0020D74908604BE2484604F098
:100BF000B7FC4FF4C87094FBF0F100FB11400028E3
:100C00007DD1D048006808B9012000E00020CD491E
:100C100008608CA98FA800F0A2FD8BA98EA800F017
:100C20006AFE8AA98DA800F032FF9DF830229DF857
:100C30003C12C5A004F056FF9DF82C229DF83812F6
:100C4000CBA004F04FFF9DF828229DF83412D2A0CB
:100C500004F048FF9DF83C02632801DD1A208F90C4
:100C60009DF83802632801DD1A208E909DF8340229
:100C7000632801DD1A208D909DF83002632801DD84
:100C800032208C909DF82C02632801DD32208B905D
:100C90009DF82802632801DD32208A90002000F0B0
:100CA0001EFCB0EE408A012000F019FCF0EE408AF4
:100CB000022000F014FCB0EE409A18EE100A08F082
:100CC00061F841EC1A0B53EC1A2BBDA004F00AFF9B
:100CD00018EE900A08F056F841EC1A0B53EC1A2B58
:100CE000BCA004F0FFFE19EE100A08F04BF841EC2E
:100CF0001A0B53EC1A2BBCA004F0F4FE00E0B8E190
:100D0000BCEEC80A10EE100A85B2BCEEE80A10EE7E
:100D1000100A86B2BCEEC90A10EE100A87B242F27F
:100D20000F70854200DD054642F20F70864200DDFD
:100D3000064642F20F70874200DD07469DF8280202
:100D40009DF83412CDE90507CDE903619DF82C0229
:100D50009DF83812CDE9005102909DF830329DF88F
:100D60003C22A6A16AA804F0C9FE6AA9AAA004F0C0
:100D7000B9FE80214AA805F00AF94AA96AA803F039
:100D8000E7FF4AAB4246ADA12AA804F0B7FE2AA865
:100D900004F026FB2AA9ABA004F0A4FEBCEEC80A0E
:100DA00010EE100A83B29DF830229DF83C1201200B
:100DB000FFF739FCBCEEE80A10EE100A83B29DF88A
:100DC0002C229DF838120220FFF72DFCBCEEC90A38
:100DD00010EE100A83B245E15B4E425F4552524F1E
:100DE000525D434845434B204D4F44454C2046619E
:100DF000696C0D0A000000005B4E425F4552524F85
:100E0000525D4D4F44454C20474554435351204675
:100E100061696C0D0A0000005B4E425F4552524F03
:100E2000525D4D4F44454C2047455443455245473C
:100E3000204661696C0D0A005B4E425F4552524F7D
:100E4000525D4D4F44454C205345544E4344502031
:100E50004661696C0D0A000034392E342E38352E67
:100E6000323332004E42204D4F44454C20494E49CA
:100E700054205355434553532121210D0A000000AE
:100E80002044485431315F3120696E6974206572A5
:100E9000726F72002044485431315F3220696E69AC
:100EA00074206572726F72002044485431315F3390
:100EB00020696E6974206572726F72004448543103
:100EC0003120494E49542053554345535321212144
:100ED0000D0A0000434C532830293B005738444644
:100EE00028342C322C273132333334353636272907
:100EF0003B00000057384D552831302C31302C390B
:100F0000302C39302C352C30293B0000E09400087F
:100F100058940008D093000844930008689500088E
:100F20000C960008573853452830293B0000000034
:100F30005342432830293B0030300000708F0008B6
:100F400000200140B08240425B444154415D7465E1
:100F50006D7065726174757265313A256420206820
:100F6000756D69646974793A25640D0A00000000A2
:100F70005B444154415D74656D7065726174757256
:100F800065323A2564202068756D69646974793228
:100F90003A25640D0A0000005B444154415D7465CC
:100FA0006D7065726174757265333A2564202068CE
:100FB000756D6964697479333A25640D0A0000001F
:100FC0005B444154415D70706D313A252E32660D9F
:100FD0000A0000005B444154415D70706D323A2557
:100FE0002E32660D0A0000005B444154415D707072
:100FF0006D333A252E32660D0A0000002532642535
:101000003264253464253264253264253464253203
:1010100064253264253464000D0A5B494E464F5DF9
:10102000636F61702073656E64207072696D6172A8
:101030007920646174613A25730D0A002573257364
:10104000000000005B494E464F5D636F6170207386
:10105000656E642048455820646174613A25730DBB
:101060000A0000009DF828229DF834120320FFF7A3
:10107000DAFA142001F0B8F8B4F5C87F00DD0024D6
:10108000601CC4B2B2E5704700BFFEE700BFFEE7D8
:1010900000BFFEE700BFFEE770477047704770472C
:1010A0000CB50020019000907648006840F4803034
:1010B0007449086000BF7348006800F40030009075
:1010C0000198401C0190009818B90198B0F5A04F04
:1010D000F1D16C48006800F4003010B1012000909C
:1010E00001E0002000900098012846D1654840307A
:1010F000006840F0805063494031086062480068F1
:1011000040F44040604908605E48083000685D492E
:10111000083108600846006840F40040086008464E
:10112000006840F4A05008605848091F0860081F74
:10113000006840F08070091F086000BF51480068D7
:1011400000F000700028F9D040F2057050490860A6
:101150004C480830006820F003004A490831086014
:101160000846006840F00200086000BF45480830AB
:10117000006800F00C000828F8D10CBD10B54548F7
:10118000006840F47000434908603E48006840F041
:1011900001003C49086000203A490831086039489C
:1011A00000683D490840374908603C48091D08600F
:1011B000081F006820F48020091F086000203149C2
:1011C0000C310860FFF76CFF4FF000603149803947
:1011D000086010BD70B50020002202230024022107
:1011E000284D08352D6805F00C0020B1042806D0E4
:1011F000082834D107E02A4D2A4E356033E02A4DC5
:10120000284E35602FE01F4D2D1D2D68C5F38054ED
:101210001C4D2D1D2D6805F03F0154B1224DB5FB2D
:10122000F1F5184E361D3668C6F3881605FB06F232
:1012300009E01B4DB5FBF1F5124E361D3668C6F3BD
:10124000881605FB06F20F4D2D1D2D68C5F30145CF
:101250006D1C6B00B2FBF3F5124E356003E0104DD0
:10126000104E356000BF00BF064D08352D68C5F330
:1012700003150E4E705D0B4D2D68C540094E35604F
:1012800070BD000000380240007000400854400764
:10129000003C024088ED00E0FFFFF6FE1030002425
:1012A0000024F4000000002000127A000400002056
:1012B0001CB50121022001F043FE4FF44050009084
:1012C00001208DF8040000208DF8060003208DF821
:1012D000050001208DF807006946044801F092FBE3
:1012E0004FF44051014801F009FC1CBD00040240CC
:1012F00000B58DB00121084601F022FE012108024F
:1013000001F078FEE0200B9003208DF830000020E3
:101310008DF833000BA99F4801F074FB01210802EE
:1013200001F0BDFE00214FF4807001F0B8FE0020F6
:1013300007900A904FF480400990C000089007A8D9
:1013400001F0E2F80020019001208DF808008DF8EE
:10135000090000200390059003208DF8180001A9D2
:101360008D4801F0A2F80723012205218A4801F0E7
:1013700022F9072302220621874801F01CF90723DE
:1013800003221946844801F016F90121824801F030
:10139000BDF90121804801F0AEF901217E4801F03C
:1013A000CAF80DB000BD2DE9F04190B004460D46DD
:1013B00016461F46DDF858807848844204D901213A
:1013C000880501F0BDFD03E00121480501F0B8FDED
:1013D000204603F057F800BF204603F07CF90028B0
:1013E000FAD10195029603970490CDF814800690E7
:1013F0004FF48060079040000890800009904011F1
:101400000A9000020B9000200C9003200D90002009
:101410000E900F9001A9204603F0D6F838208DF8E1
:10142000000001208DF801008DF802008DF8030006
:10143000684600F0C4FF00BF5848103003F04BF975
:101440000028F9D101215548103003F0F7F810B009
:10145000BDE8F08130B50023002021E0002100220A
:10146000002314E001EB41044D4D05EBC40434F8B6
:101470001040002C09DD01EB410405EBC40434F8F5
:1014800010401444A2B25C1CE3B24C1CE1B20A2925
:10149000E8DB92FBF3F4434D25F81040441CE0B226
:1014A0000328DBDB30BD10B53F493C48103003F06A
:1014B00022F9012804D13C493848103003F037F9AB
:1014C00010BD08B5FFF714FF7820354B324A4C3277
:1014D0000021009031481030FFF765FF08BD70B55E
:1014E0002DED0A8B0546FFF7B5FF2E4830F8154065
:1014F000002C00DC012400EE104AB8EE400ADFEDBB
:101500002B0A20EE200ADFED2A0A80EE208A9FEDCA
:10151000270A30EE480AC0EE080A10EE906A3046FC
:1015200007F030FC41EC1B0B9FED220B53EC102B12
:1015300007F032F941EC1A0B06F094FE09EE100A9E
:10154000B3EE0E0AC9EE000A10EE906A304607F0BC
:1015500019FC41EC1C0B9FED191BB0EE4C0AF0EE90
:101560006C0A05F005FFB0EE40BAF0EE60BA9FEDF0
:10157000150B53EC102B51EC1B0B07F00DF941EC44
:101580001A0B06F06FFE08EE900AB0EE680ABDEC8A
:101590000A8B70BD00000240002001400064024040
:1015A00040000020300100202080001033335340E1
:1015B00000008045CDCCCCCCCCCC1240000000400B
:1015C0008D9700C000000040332F834010B50A20E3
:1015D00000F00AFE012002F04CFF19A004F082FA8C
:1015E0001F48006808B9012000E000201C4908607D
:1015F00010BD0EB50121880301F0FCFC0021084656
:1016000002F02DF80120009000208DF80400082041
:101610008DF8050001208DF80600684602F0B8FE3E
:1016200006208DF8080000208DF8090002208DF8B2
:101630000A0001208DF80B0002A800F0C0FE0EBDCC
:101640000D0ABAECCDE2C8C8CACDB5E7BFAAB9D871
:10165000BCE0B2E2B5BDD3D0C8CB0D0A000000009B
:10166000B482404210B56248006820F0C000604972
:1016700008600846006840F04000086000205D49AE
:101680000860142000F0B0FD01205B49C1F88C0215
:101690001E2000F061FD10BD10B500245448006804
:1016A00020F0C0005249086008460068086004E065
:1016B000601CC4B2012000F04FFD4E488038006825
:1016C00008B1642CF4DB642C01DB012010BD002484
:1016D00004E0601CC4B2012000F03EFD45488038A3
:1016E000006808B9642CF4DB642C01DB0120EDE711
:1016F0000020EBE710B5002404E0601CC4B2012018
:1017000000F02AFD3B488038006808B1642CF4DB07
:10171000002404E0601CC4B2012000F01DFD354827
:101720008038006808B9642CF4DB282000F014FD30
:1017300030488038006808B1012010BD0020FCE767
:1017400070B50024002506E06006040EFFF7D2FF06
:101750000443681CC5B2082DF6DB204670BD7CB57D
:1017600005460E46FFF77EFFFFF796FFF8B9002407
:1017700005E0FFF7E5FF0DF80400601CC4B2052C7E
:10178000F7DB9DF800009DF8011008449DF8021059
:1017900008449DF8031008449DF80410884208D1BD
:1017A0009DF8000030709DF80200287001E00120D3
:1017B0007CBD0020FCE71CB50121042001F0C0FB2A
:1017C0000820009001208DF8040000208DF806000C
:1017D00002208DF8050001208DF8070069460448B5
:1017E00001F010F9FFF73EFFFFF756FF1CBD0000A8
:1017F000000802408C0241420000414210B562489C
:10180000006820F44070604908600846006840F4B1
:101810008070086000205D490860142000F0E4FC3E
:1018200001205B49C1F890021E2000F095FC10BD1C
:1018300010B500245448006820F4407052490860F4
:1018400008460068086004E0601CC4B2012000F093
:1018500083FC4E488038006808B1642CF4DB642CAB
:1018600001DB012010BD002404E0601CC4B2012093
:1018700000F072FC45488038006808B9642CF4DB3D
:10188000642C01DB0120EDE70020EBE710B500241C
:1018900004E0601CC4B2012000F05EFC3B488038CC
:1018A000006808B1642CF4DB002404E0601CC4B2BE
:1018B000012000F051FC35488038006808B9642CDC
:1018C000F4DB282000F048FC30488038006808B17C
:1018D000012010BD0020FCE770B50024002506E0C3
:1018E0006006040EFFF7D2FF0443681CC5B2082D42
:1018F000F6DB204670BD7CB505460E46FFF77EFF41
:10190000FFF796FFF8B9002405E0FFF7E5FF0DF8B3
:101910000400601CC4B2052CF7DB9DF800009DF8A4
:10192000011008449DF8021008449DF80310084473
:101930009DF80410884208D19DF8000030709DF891
:101940000200287001E001207CBD0020FCE71CB5EE
:101950000121042001F0F4FA1020009001208DF8FC
:10196000040000208DF8060002208DF805000120FB
:101970008DF807006946044801F044F8FFF73EFF80
:10198000FFF756FF1CBD00000008024090024142D4
:101990000000414210B56248006820F44060604990
:1019A00008600846006840F48060086000205D49D7
:1019B0000860142000F018FC01205B49C1F8940273
:1019C0001E2000F0C9FB10BD10B50024544800686B
:1019D00020F440605249086008460068086004E04E
:1019E000601CC4B2012000F0B7FB4E48803800688C
:1019F00008B1642CF4DB642C01DB012010BD002451
:101A000004E0601CC4B2012000F0A6FB4548803809
:101A1000006808B9642CF4DB642C01DB0120EDE7DD
:101A20000020EBE710B5002404E0601CC4B20120E4
:101A300000F092FB3B488038006808B1642CF4DB6E
:101A4000002404E0601CC4B2012000F085FB35488E
:101A50008038006808B9642CF4DB282000F07CFB97
:101A600030488038006808B1012010BD0020FCE734
:101A700070B50024002506E06006040EFFF7D2FFD3
:101A80000443681CC5B2082DF6DB204670BD7CB54A
:101A900005460E46FFF77EFFFFF796FFF8B90024D4
:101AA00005E0FFF7E5FF0DF80400601CC4B2052C4B
:101AB000F7DB9DF800009DF8011008449DF8021026
:101AC00008449DF8031008449DF80410884208D18A
:101AD0009DF8000030709DF80200287001E00120A0
:101AE0007CBD0020FCE71CB50121042001F028FA90
:101AF0002020009001208DF8040000208DF80600C1
:101B000002208DF8050001208DF807006946044881
:101B100000F078FFFFF73EFFFFF756FF1CBD000007
:101B200000080240940241420000414210B50121E8
:101B3000880702F032FB68B167480078401C6649AC
:101B400008700121880702F039FB00214FF0804026
:101B500001F0F4FE10BD7FB505460C460121084694
:101B600001F037FA0195ADF800400020ADF808000B
:101B7000ADF8020069464FF0804001F056FE0122A8
:101B80001146900702F0F2FA1C208DF80C0000209C
:101B90008DF80D0001208DF80E008DF80F0003A8C0
:101BA00000F00DFC7FBD10B501214C4802F0F5FAA4
:101BB00068B14B48008840F4004049490880012141
:101BC000464802F0FBFA0021444801F0B7FE10BD80
:101BD0007FB505460C460121082001F0FAF902956F
:101BE000ADF804400020ADF80600ADF80C0001A9E6
:101BF0003A4801F01AFE01221146384802F0B6FABE
:101C00000121364801F09AFE32208DF800000120B3
:101C10008DF8010003208DF8020001208DF80300EB
:101C2000684600F0CCFB7FBD30B58BB004460D4656
:101C30000121022001F0CDF90121022001F080F9FB
:101C400002220121274800F068FF022200212548D6
:101C500000F063FF0320099002208DF82800032084
:101C60008DF8290000208DF82A0001208DF82B0026
:101C700009A91C4800F0C6FEA8B2ADF81800002063
:101C8000ADF81A000794ADF8200006A9164801F037
:101C9000CCFD6020ADF804000120ADF80600022064
:101CA000ADF8100001A9104801F040FF01A90E484D
:101CB00001F0D6FE08210C4801F0F8FF08210A487F
:101CC00001F0EBFF0121084801F01AFE012106484E
:101CD00001F034FE0BB030BD14000020000C0040B9
:101CE0003C000020000402400004004010B540F217
:101CF0002551654801F058FC10B3634801F092FB90
:101D0000C4B26248008800F40040C8B95F48008847
:101D100000F4804060B10A2C03D000205B490880A9
:101D200021E05A48008840F40040584908801AE0F1
:101D30000D2C06D15548008840F480405349088056
:101D400011E052480088C0F30D0051490C544F482F
:101D50000088401C4D49088008460088B0F5C87FBF
:101D600001DB0020088010BD10B588B004460121B9
:101D7000022001F0E5F80121880401F02AF9424827
:101D800001F032FA07220B21424800F0C6FE07227A
:101D90000A21404800F0C1FE4FF440600590022047
:101DA0008DF818008DF8190000208DF81A00012018
:101DB0008DF81B0005A9374800F024FE019400208F
:101DC000ADF80800ADF80A00ADF80C00ADF8100051
:101DD0000C20ADF80E0001A92B4801F06CFA01218E
:101DE000294801F0F0FA012240F22551264801F07D
:101DF000A0FB27208DF81C0002208DF81D00032079
:101E00008DF81E0001208DF81F0007A800F0D7FAFA
:101E100008B010BD0FB438B505A800901E48009A50
:101E2000049903F04DFE002000901B4803F0DEFFF4
:101E300085B200240DE000BF4021134801F09EFB55
:101E40000028F9D01448015D0F4801F0E7FA601C42
:101E500084B2AC42EFDB38BC5DF814FB70B50446CD
:101E6000002510E0605D68B1615D074801F0D6FAB9
:101E700000BF8021044801F081FB0028F9D0681CD4
:101E8000C5B200E070BDEDE700480040160000203C
:101E9000D8020020000402404801002010B540F2A2
:101EA0002551774801F080FB10B3754801F0BAFA6C
:101EB000C4B27448008800F40040C8B97148008872
:101EC00000F4804060B10A2C03D000206D490880E6
:101ED00021E06C48008840F400406A4908801AE01C
:101EE0000D2C06D16748008840F480406549088081
:101EF00011E064480088C0F30D0063490C54614848
:101F00000088401C5F49088008460088B0F5C87FFB
:101F100001DB0020088010BD10B588B00446012107
:101F2000042001F00DF80121C80401F052F85448D2
:101F300001F05AF908220B21544800F0EEFD082266
:101F40000A21524800F0E9FD4FF44060059002205C
:101F50008DF818008DF8190000208DF81A00012066
:101F60008DF81B0005A9494800F04CFD01940020A4
:101F7000ADF80800ADF80A00ADF80C00ADF810009F
:101F80000C20ADF80E0001A93D4801F094F90121A3
:101F90003B4801F018FA012240F22551384801F07F
:101FA000C8FA34208DF81C0003208DF81D008DF830
:101FB0001E0001208DF81F0007A800F000FA08B0ED
:101FC00010BD0FB438B505A800903148009A0499A7
:101FD00003F076FD002000902D4803F007FF85B246
:101FE00000240DE000BF4021254801F0C7FA002879
:101FF000F9D02748015D224801F010FA601C84B234
:10200000AC42EFDB38BC5DF814FB2DE9F04105462E
:102010000E46374600240CE000BF4021184801F06E
:10202000ADFA0028F9D0295D154801F0F7F9601CD8
:10203000C4B2BC42F0DBBDE8F0811CB5044615A17A
:1020400003C9CDE900018DF8034014A003F04AFD57
:1020500005216846FFF7D9FF322000F0C5F81CBD06
:102060001CB504460EA103C9CDE900018DF804405A
:1020700006216846FFF7C9FF322000F0B5F81CBD05
:10208000004C004018000020F80500200008024025
:10209000680400207E030616EF0000003132330092
:1020A0007E04030001EF00001CB50121022000F0B6
:1020B00047FFE020009001208DF8040002208DF8F9
:1020C000050000208DF8060001208DF80700694604
:1020D000134800F097FC4FF4F071114800F010FD28
:1020E0001CBD1CB50121022000F02AFF4FF48070B6
:1020F000009001208DF8040002208DF805000020DA
:102100008DF8060001208DF807006946044800F0AC
:1021100079FC4FF48071024800F0F2FC1CBD000015
:102120000004024010B504466FF0040000F094F97A
:10213000E11704EB5171C1F3C701394A1170104620
:10214000007800EB4001C1EBC0104FF6FF7101EACF
:10215000C0003449088010BD0146314A12784A4314
:102160004FF0E0235A6100229A611A46126942F048
:1021700001021A6100BF4FF0E022106900F0010275
:102180001AB100F48032002AF5D04FF0E022126933
:1021900022F001024FF0E0231A6100229A61704799
:1021A0000146204A12884A434FF0E0235A61002238
:1021B0009A611A46126942F001021A6100BF4FF09B
:1021C000E022106900F001021AB100F48032002A06
:1021D000F5D04FF0E022126922F001024FF0E02327
:1021E0001A6100229A61704770B504464FF4077077
:1021F00094FBF0F0C6B24FF4077094FBF0F100FBD3
:10220000114085B205E04FF40770FFF7C9FF701E5B
:10221000C6B2002EF7D115B12846FFF7C1FF70BD39
:102220001A0000201C000020014600BF704700BFBC
:102230004C4A128802F04002002AF9D0C2B2494B3F
:102240009A80704710B588B004460121084600F016
:1022500077FE0121102000F0CDFE0722092142481F
:1022600000F05BFC07220A213F4800F056FC4FF4C7
:10227000C060069002208DF81C008DF81D00002023
:102280008DF81E0001208DF81F0006A9364800F0C9
:10229000B9FB02940020ADF80C00ADF80E00ADF8CB
:1022A0001000ADF814000C20ADF8120002A92D4862
:1022B00001F001F801212B4801F085F8012240F2DC
:1022C0002551284801F035F925208DF80400032018
:1022D0008DF805008DF8060001208DF8070001A893
:1022E00000F06DF808B010BD10B540F225511D4842
:1022F00001F05AF910B31B4801F094F8C4B21B481E
:10230000008800F40040C8B91848008800F48040F4
:1023100060B10A2C03D000201449088020E0134843
:10232000008840F400401149088019E00D2C06D1C6
:102330000E48008840F480400C49088010E00B48AB
:102340000088C0F30D000A490C5408480088401C5E
:102350000649088008460088C72801DD002008805B
:1023600010BD0000001001400000024024000020C9
:10237000880700200948804709480047FEE7FEE734
:10238000FEE7FEE7FEE7FEE7FEE7FEE7FEE7FEE725
:1023900004480549054A064B704700007D110008B6
:1023A000890100085013002050190020501500200A
:1023B0005015002032490143324A1160704770B510
:1023C000002100230F22C4781CB32E4C246804F48F
:1023D000E064C4F5E064C4F30721C1F10404E3B28E
:1023E0000A4144789C40E1B28478144021430C07B0
:1023F000210E254C05786155047804F01F05012451
:10240000AC4005786D11AD0005F1E025C5F800413F
:1024100009E0047804F01F050124AC401B4D067848
:10242000761145F8264070BD194A0A400243154B03
:102430001B1F1A60704739B1124A121D12680243FD
:10244000104B1B1D1A6006E00E4A121D12688243D3
:102450000C4B1B1D1A607047042808D14FF0E02177
:10246000096941F004014FF0E022116107E04FF0EB
:10247000E021096921F004014FF0E0221161704769
:102480000000FA050CED00E000E400E080E100E06F
:1024900080FFFF1F10B50121080200F000FE00219F
:1024A0004FF4807000F0FBFD10BD30B502460020F7
:1024B00000235068F84C20400D790C6844EA05244C
:1024C000204350609068F54C2040D1E903542C43E0
:1024D0008D682C434D7944EA450420439060D06ACE
:1024E00020F470000C7D641EE4B2234340EA0350E4
:1024F000D06230BD00210160017141718160C16015
:1025000001610121017570470021E54A1168E54A22
:102510001140D0E900231A4383681A43C3681A4361
:102520001143E14AC2F80413704700210160416081
:102530008160C160704721B1826842F0010282600F
:1025400003E0826822F00102826070470A4600219F
:102550004168D64B19401143416070474162826225
:1025600070470A460021416821F01F011143416074
:10257000704738B1CA49096841F40001CA4AC2F833
:10258000041306E0C649096821F40001C64AC2F8EE
:102590000413704738B1C249096841F48001C24A46
:1025A000C2F8041306E0BE49096821F48001BE4A5E
:1025B000C2F804137047F0B504460D460020002110
:1025C000092D11DDE068A5F10A0606EB460707268E
:1025D00006FA07F18843A5F10A0606EB460603FA58
:1025E00006F10843E0600CE0206905EB450707268B
:1025F00006FA07F1884305EB450603FA06F108439E
:102600002061072A0FDA606B561E06EB86071F262D
:1026100006FA07F18843561E06EB860605FA06F110
:102620000843606322E00D2A0FDA206BD61F06EB09
:1026300086071F2606FA07F18843D61F06EB860693
:1026400005FA06F10843206310E0E06AA2F10D06E6
:1026500006EB86071F2606FA07F18843A2F10D064E
:1026600006EB860605FA06F10843E062F0BD8168D4
:1026700041F0804181607047014600208A6802F085
:1026800080420AB1012000E00020704721B1826839
:1026900042F48062826003E0826822F48062826099
:1026A000704721B1826842F00202826003E08268D2
:1026B00022F002028260704710B50A460021002312
:1026C000416821F46041531E41EA4331416010BD2D
:1026D00021B1426842F40062426003E0426822F4A1
:1026E0000062426070470146C86C80B270476C4817
:1026F000001D0068704721B1826842F480728260D8
:1027000003E0826822F480728260704721B182689F
:1027100042F40072826003E0826822F400728260F8
:10272000704738B15E49096841F400515E4AC2F809
:10273000041306E05A49096821F400515A4AC2F8C4
:1027400004137047F0B50446154600200022002609
:10275000092911DDE068A1F10A0707EB470C0727FB
:1027600007FA0CF29043A1F10A0707EB470703FAB7
:1027700007F21043E0600CE0206901EB410C0727F1
:1027800007FA0CF2904301EB410703FA07F21043FA
:102790002061A06BC0F30156EF1C06F1010CA7EB02
:1027A0000C0707EB870C1F2707FA0CF29043EF1C6E
:1027B00006F1010CA7EB0C0707EB870701FA07F2FC
:1027C0001043A063F0BD10B50A4600210023816BC1
:1027D00021F44011531E41EA0351816310BD08B535
:1027E000002300930090009B0B440093009B1A6011
:1027F00008BD0A460021816821F4702111438160DF
:1028000070470A460021816821F44011114381601C
:102810007047816841F48001816070470146002063
:102820008A6802F480020AB1012000E000207047AB
:1028300021B1426842F48062426003E0426822F4BF
:1028400080624260704721B1426842F48052426027
:1028500003E0426822F480524260704708B50246A5
:1028600000200090009201F12800009B1844009085
:102870000098006880B208BD10B50B460021D9B29F
:10288000012404FA01F11AB144680C43446002E0E7
:1028900044688C43446010BDFFFEFFFCFDF7FFC0A1
:1028A00004230140E030FCFF00200140FFFD3FFF1A
:1028B0000246002013680B400BB1012000E000200D
:1028C0007047CA430260704770B50246002000237B
:1028D00000240B12556801268E4005EA060415688F
:1028E0001D4015B10CB1012000E0002070BD002298
:1028F0000A12D3430360704710B5044698488442D7
:1029000008D10121084600F086FB0021012000F0DB
:1029100082FB76E09348844208D10121022000F036
:102920007AFB0021022000F076FB6AE08E488442A8
:1029300008D10121042000F06EFB0021042000F0EA
:102940006AFB5EE08948844208D10121082000F03A
:1029500062FB0021082000F05EFB52E084488442C4
:1029600008D10121102000F056FB0021102000F0BA
:1029700052FB46E07F48844208D10121202000F02C
:102980004AFB0021202000F046FB3AE07A488442CE
:1029900008D10121402000F03EFB0021402000F042
:1029A0003AFB2EE07548844208D10121802000F0D6
:1029B00032FB0021802000F02EFB22E07048844290
:1029C00008D10121801500F026FB0021A01500F0A0
:1029D00022FB16E06B48844208D10121401500F02B
:1029E0001AFB0021601500F016FB0AE066488442DD
:1029F00007D10121001500F00EFB0021201500F089
:102A00000AFB10BDF0B50A4600210023002400BFD8
:102A10003DE0012505FA01F3156805EA03049C422F
:102A200034D105684F000326BE40B54305601579D3
:102A30004E00B5400668354305601579012D02D07A
:102A40001579022D16D185684F000326BE40B54387
:102A5000856055794E00B540866835438560456888
:102A600001268E40B5434560456896798E40B6B2E2
:102A700035434560C5684F000326BE40B543C56079
:102A8000D5794E00B540C6683543C560491C10294C
:102A9000BFD3F0BD4FF6FF7101600021017141719C
:102AA0008171C171704708B54FF480320092009A6D
:102AB0000A430092009AC261C161009AC261C26970
:102AC0000092C269009208BD0246002013690B40C3
:102AD0000BB1012000E0002070470146086980B278
:102AE00070470246002053690B400BB1012000E003
:102AF000002070470146486980B2704701837047E3
:102B0000418370470AB1018300E04183704741610E
:102B1000704742694A4042617047F0B50023002483
:102B20004D07ED0E02FA05F3CE1000F1200555F821
:102B300026504E07F70E0F26BE40B543CF1000F1CA
:102B4000200646F82750CE1000F1200555F82650F3
:102B500045EA0304CE1000F1200545F82640F0BDFB
:102B6000000002400004024000080240000C024045
:102B7000001002400014024000180240001C0240F5
:102B8000002002400024024000280240F94800686A
:102B900040F00100F74908600020F649083108605C
:102BA000F4480068F4490840F2490860F348091DF8
:102BB0000860F348EF4984310860F0481038091D77
:102BC0000860EC48006820F48020EA490860002092
:102BD000E8490C310860E7498C31086070470021F2
:102BE000E44A921C117011460870704710B50146F6
:102BF0000022002300204A11012A02D1DD4C236863
:102C000008E0022A03D1DB4C7034236802E0D94C7F
:102C10007434236801F01F02012494401C400CB15D
:102C2000012000E0002010BD38B5002000900024F5
:102C3000002500BF3120FFF7D9FF05460098401C52
:102C400000900098B0F5A04F01D0002DF2D03120B7
:102C5000FFF7CCFF08B1012400E00024204638BD76
:102C600001460020C34A106820F0F80040EAC10085
:102C700010607047C349086070470021BD4A703238
:102C800011701170012802D004280AD104E001213A
:102C9000B84A7032117005E00521B64A70321170E1
:102CA00000E000BF00BF7047B7490860704770B5CB
:102CB000049C41EA82150126C6EB530645EA064507
:102CC000054345EA0465AB4E361D356070BDAD4920
:102CD00008667047820142EA0172A64B84331A608B
:102CE0007047A8498866704710B5830143EA0163BD
:102CF00043EA02739F4C8834236010BDA1490867E2
:102D00007047A049C864704702460020994B0833B9
:102D1000186820F0EC6042EA01031843954B083331
:102D20001860704702460020924B0833186820F064
:102D3000784042EA010318438E4B0833186070470D
:102D4000014600208B4A0832106820F00300084337
:102D50001060704787480830006800F00C0070472A
:102D600001460020834A0832106820F0F000084332
:102D700010607047014600207E4A0832106820F437
:102D8000E05008431060704701460020794A08323D
:102D9000106820F4604040EAC10010607047F0B550
:102DA000002100220024022500260223714F08374B
:102DB0003F6807F00C0121B1042905D0082937D15B
:102DC00005E0724F076036E0714F076033E0694FEE
:102DD0003F1D3F68C7F38056664F3F1D3F6807F0B1
:102DE0003F036EB16A4FB7FBF3F7DFF888C10CF110
:102DF000040CDCF800C0CCF3881C07FB0CF40CE0DE
:102E0000624FB7FBF3F7DFF86CC10CF1040CDCF890
:102E100000C0CCF3881C07FB0CF4564F3F1D3F68E5
:102E2000C7F301477F1C7D00B4FBF5F7076002E0A4
:102E3000564F076000BF00BF4E4F08373F6807F08E
:102E4000F0010909534F7A5C0768D7404760494F42
:102E500008373F6807F4E051890A4E4F7A5C4768AB
:102E6000D7408760434F08373F6807F46041490BFC
:102E7000484F7A5C4768D740C760F0BD002100F436
:102E80004072B2F5407F0AD13A4A0832116821F403
:102E9000F811414A02401143364A08321160354A5E
:102EA00070321268C0F30B031A43324B70331A604E
:102EB00070473549443908607047334940390860E4
:102EC000704736490860704701460020294A8C3215
:102ED000106820F01F004A1E1043264A8C321060F2
:102EE000704701460020234A8C32106820F4F850C5
:102EF0004A1E40EA02201F4A8C3210607047014689
:102F000000201C4A8C32106820F4401008431060E6
:102F1000704701460020174A8C32106820F44000A8
:102F200008431060704701460020124A8C32106836
:102F300020F440300843106070471949086070471A
:102F400039B10C4A3032126802430A4B30331A60EE
:102F500006E0084A303212688243064B30331A606A
:102F60007047F9B1034A343212680243014B3433DB
:102F70001A601CE000380240FFFFF6EA103000241F
:102F80000030002000004742800E47420024F40039
:102F900000127A0026000020FFFCFF0F5C01474270
:102FA000E01147428F4A126882438E4B1A60704785
:102FB00039B18C4A121D126802438A4B1B1D1A60DC
:102FC00006E0884A121D12688243864B1B1D1A6058
:102FD000704739B1834A0C3212680243814B0C337B
:102FE0001A6006E07F4A0C32126882437D4B0C3334
:102FF0001A60704739B17B4A103212680243794B2C
:1030000010331A6006E0774A103212688243754B1B
:1030100010331A60704739B1724A243A1268024379
:10302000704B243B1A6006E06E4A243A12688243D1
:103030006C4B243B1A60704739B16A4A203A1268D7
:103040000243684B203B1A6006E0664A203A126849
:103050008243644B203B1A60704739B1614A1C3A85
:10306000126802435F4B1C3B1A6006E05D4A1C3A43
:10307000126882435B4B1C3B1A60704739B1594A56
:10308000143A12680243574B143B1A6006E0554A43
:10309000143A12688243534B143B1A60704739B19B
:1030A000504A103A126802434E4B103B1A6006E039
:1030B0004C4A103A126882434A4B103B1A607047E0
:1030C00039B1484A1C3212680243464B1C331A601D
:1030D00006E0444A1C3212688243424B1C331A6099
:1030E000704739B13F4A2032126802433D4B2033CA
:1030F0001A6006E03B4A203212688243394B203383
:103100001A60704739B1374A243212680243354B8E
:1031100024331A6006E0334A243212688243314B6A
:1031200024331A60704739B12E4A2C321268024398
:103130002C4B2C331A6006E02A4A2C321268824348
:10314000284B2C331A60704739B1264A3032126846
:103150000243244B30331A6006E0224A30321268B0
:103160008243204B30331A607047012808D11D4933
:103170003C31096841F008011A4A3C32116007E00D
:1031800018493C31096821F00801164A3C321160A7
:10319000704739B1134A273A12780243114B273B43
:1031A0001A7006E00F4A273A127882430D4B273BEC
:1031B0001A7070470B484030006840F08070094931
:1031C00040310860704701460020064A283A1268DC
:1031D0000A400AB1012000E0002070470149263969
:1031E000087070473438024010B50446FA488442EB
:1031F00008D101211020FFF752FF00211020FFF716
:103200004EFF57E0F548844209D101214804FFF7F9
:1032100035FF00214FF40030FFF730FF4AE0F0485F
:10322000844209D101218804FFF728FF00214FF4CF
:103230008020FFF723FF3DE0EA48844209D10121C5
:10324000C804FFF71BFF00214FF40020FFF716FF13
:1032500030E0E548844209D101210805FFF70EFF5F
:1032600000214FF48010FFF709FF23E0DF4884427C
:1032700008D101212020FFF712FF00212020FFF7B5
:103280000EFF17E0DA48844209D101218807FFF7D1
:10329000F5FE00214FF08040FFF7F0FE0AE0D54830
:1032A000844207D101214005FFF7E8FE00216005B7
:1032B000FFF7E4FE10BD2DE9FF4705460E4600244A
:1032C000A14600BFA046B08900B100BF2C8A24F4FB
:1032D0004054F08804432C82AC8941F20C60844352
:1032E000B08831890843718908430443AC81AC8AB2
:1032F00024F44074B0890443AC826846FFF74FFD64
:10330000B548854202D0B948854202D1DDF80C901B
:1033100001E0DDF80890A88900F4004040B109EB15
:10332000C90000EB091031684900B0FBF1F707E074
:1033300009EBC90000EB091031688900B0FBF1F717
:103340006420B7FBF0F004012009642101FB107830
:10335000A88900F4004040B1322000EBC800B0FB67
:10336000F1F000F00700044308E0322000EB081001
:103370006421B0FBF1F000F00F0004432C81BDE8A4
:10338000FF874FF41651016000218180C1800181C7
:103390000C21418100218181704710B50246002037
:1033A000108A20F470600B884C8823438C88234358
:1033B000CC8823431843108210BD00210180418036
:1033C0008180C180704721B1828942F4005282819C
:1033D00004E082894DF6FF731A4082817047028BA8
:1033E00002F47F420283028B0A430283704721B1B9
:1033F000828942F40042828103E08289C2F30E0294
:103400008281704721B1828A42F40062828204E0A4
:10341000828A4FF2FF731A4082827047C1F308021A
:103420008280704701468888C0F308007047028A8E
:103430004FF6F0731A400282028A0A4302827047F2
:1034400021B1828942F00202828104E082894FF632
:10345000FD731A408281704782894FF2FF731A40D0
:10346000828182890A4382817047028A4FF6DF7324
:103470001A400282028A0A430282704721B1028AFC
:1034800042F48042028204E0028A4BF6FF731A4043
:1034900002827047818941F001018181704721B129
:1034A000828A42F00802828204E0828A4FF6F77331
:1034B0001A4082827047028BD2B20283028B42EAA8
:1034C00001220283704721B1828A42F02002828267
:1034D00004E0828A4FF6DF731A408282704721B17E
:1034E000828A42F01002828204E0828A4FF6EF73F1
:1034F0001A4082827047828A4FF6FB731A4082829A
:10350000828A0A438282704721B1828A42F0020293
:10351000828204E0828A4FF6FD731A4082827047ED
:103520001AB1838A0B43838202E0838A8B438382AE
:103530007047F0B50346002400260025002040F621
:103540006A17B94200D100BF1846C1F3421401F016
:103550001F06012707FA06F5012C01D10C3004E003
:10356000022C01D1103000E014301AB107682F434B
:10357000076002E00768AF430760F0BD0246002025
:10358000B1F5007F00D100BF13880B400BB10120C3
:1035900000E00020704701F40072B2F5007F00D116
:1035A00000BFCA430280704770B502460024002362
:1035B0000025002040F66A16B14200D100BFC1F3D9
:1035C000421501F01F03012606FA03F3012D13D162
:1035D0009689334017E0000000100140004400408D
:1035E00000480040004C00400050004000140140E2
:1035F00000780040007C0040022D02D1168A334042
:1036000001E0968A33400C12012606FA04F416886B
:10361000344013B10CB1012000E0002070BD10B5A2
:103620000022002340F66A14A14200D100BF0A1212
:1036300001249440A3B2DC43048010BD10B50121E5
:103640008803FFF72CFD00214FF48040FFF727FD92
:1036500010BD1C49086070471B490862704730B5AF
:1036600000228B071C0F0F2303FA04F2154B0833BB
:103670008C1053F824309343124C08348D1044F8C6
:10368000253023468C1053F824308C07240F00FA81
:1036900004F423430B4C08348D1044F8253030BD1E
:1036A0000949DC310860704708490860704700200C
:1036B00004492031096801F4807109B1012000E05A
:1036C00000207047003801400000274200042742D4
:1036D00010B50446FE48844208D101210846FFF790
:1036E000DEFC00210120FFF7DAFC9DE0B4F1804F01
:1036F00008D101210846FFF7C1FC00210120FFF796
:10370000BDFC91E0F348844208D101210220FFF77B
:10371000B5FC00210220FFF7B1FC85E0EE488442B1
:1037200008D101210420FFF7A9FC00210420FFF7A4
:10373000A5FC79E0E948844208D101210820FFF77F
:103740009DFC00210820FFF799FC6DE0E4488442CD
:1037500008D101211020FFF791FC00211020FFF774
:103760008DFC61E0DF48844208D101212020FFF771
:1037700085FC00212020FFF781FC55E0DA488442D7
:1037800008D101210220FFF78AFC00210220FFF767
:1037900086FC49E0D548844209D101210804FFF79D
:1037A0007EFC00214FF48030FFF779FC3CE0D048EC
:1037B000844209D101214804FFF771FC00214FF434
:1037C0000030FFF76CFC2FE0CA48844209D1012188
:1037D0008804FFF764FC00214FF48020FFF75FFCB2
:1037E00022E0C548844208D101214020FFF746FC71
:1037F00000214020FFF742FC16E0C048844208D177
:1038000001218020FFF73AFC00218020FFF736FCE1
:103810000AE0BB48844207D101218015FFF72EFC46
:103820000021A015FFF72AFC10BD00220288A84B3A
:1038300098420ED0AC4B98420BD0B0F1804F08D0DC
:10384000A44B984205D0A44B984202D0A34B984277
:1038500004D14FF68F731A404B881A43A04B9842FD
:1038600007D0A04B984204D04FF6FF431A400B8973
:103870001A4302804B68C3620B880385944B9842BD
:1038800002D0994B984201D18B7A0386012383821F
:1038900070474FF0FF31416000210180018141807C
:1038A000817270470185828270470A460021018833
:1038B0004FF68F7319401143018070474162704782
:1038C000C16270470146486A70470146088D7047DB
:1038D00021B1028842F00202028004E002884FF621
:1038E000FD731A400280704721B1028842F0040241
:1038F000028004E002884FF6FB731A400280704792
:1039000021B1028842F08002028004E002884FF672
:103910007F731A400280704702884FF6F7731A408F
:10392000028002880A430280704702884FF6FF43F4
:103930001A40028002880A430280704721B102883F
:1039400042F00102028004E002884FF6FE731A4042
:103950000280704770B5002400220023058C4FF6CA
:10396000FE7635400584028C8388048B4FF68F7574
:103970002C40B51E2C400D882C43751E2A408D8985
:103980002A434D882A43524DA84202D0564DA842A0
:1039900013D14FF6F7752A40CD892A434FF6FB75B0
:1039A0002A408D882A434FF6FF652B404FF6FF557E
:1039B0002B400D8A2B434D8A2B43838004838D68D3
:1039C0004563028470BD70B5002400220023058C7D
:1039D0004FF6EF7635400584028C8388048B48F6D9
:1039E000FF752C404FF6FF452C400D884FF6FF76B3
:1039F00006EA05252C434FF6DF752A408D8906EA35
:103A000005152A434D8806EA05152A43304DA8427C
:103A100002D0354DA8421DD14FF67F752A40CD8981
:103A20004FF6FF7606EA05152A434FF6BF752A4082
:103A30008D8806EA05152A434FF6FF352B404FF2D5
:103A4000FF752B400D8A06EA85052B434D8A06EA51
:103A500085052B43838004838D688563028470BD54
:103A600070B5002400220023058C4FF6FF66354018
:103A70000584028C8388848B4FF68F752C404FF61B
:103A8000FC752C400D882C434FF6FF552A408D893C
:103A90004FF6FF7606EA05252A434D8806EA0525F6
:103AA0002A430B4DA84202D00F4DA84238D14FF205
:103AB000FF752A40CD894FF6FF7606EA05252A4391
:103AC0004FF6FF352A408D8806EA05252A4319E07E
:103AD000000001400004004000080040000C0040CD
:103AE000001000400014004000040140004001406C
:103AF000004401400048014000180040001C004004
:103B0000002000404EF6FF752B404DF6FF752B4010
:103B10000D8A06EA05152B434D8A06EA05152B4347
:103B2000838084838D68C563028470BD70B5002274
:103B300000230024058C4EF6FF7635400584038C67
:103B40008488828B48F6FF752A404FF6FF452A404D
:103B50000D884FF6FF7606EA05252A434DF6FF75D8
:103B60002B408D8906EA05352B434D8806EA05353D
:103B70002B43FE4DA84202D0FD4DA84208D14BF682
:103B8000FF752C400D8A4FF6FF7606EA85152C430B
:103B9000848082838D680564038470BD0021018068
:103BA0004180818081608181C18101824182704731
:103BB00070B50346002000241846183001258D40BA
:103BC000ACB21D8CA5431D8409B108290AD100EBB4
:103BD000610005684FF68F7635400560056815432E
:103BE00005600FE00D1FC5F34E052844056848F633
:103BF000FF763540056005684FF6FF7606EA022637
:103C00003543056070BD4163704781637047C16390
:103C10007047016470470A460021018B4FF68F738D
:103C200019401143018370470A460021018B48F671
:103C3000FF7319404FF6FF7303EA02231943018310
:103C400070470A460021818B4FF68F73194011434C
:103C5000818370470A460021818B48F6FF73194023
:103C60004FF6FF7303EA02231943818370470A4624
:103C70000021018B4FF6F773194011430183704700
:103C80000A460021018B4FF2FF7319404FF6FF7374
:103C900003EA02231943018370470A460021818BFE
:103CA0004FF6F77319401143818370470A4600218C
:103CB000818B4FF2FF7319404FF6FF7303EA022323
:103CC0001943818370470A460021018B4FF6FB732D
:103CD00019401143018370470A460021018B4FF6BA
:103CE000FF3319404FF6FF7303EA022319430183A0
:103CF00070470A460021818B4FF6FB731940114330
:103D0000818370470A460021818B4FF6FF331940AB
:103D10004FF6FF7303EA02231943818370470A4673
:103D20000021018B4FF67F731940114301837047C7
:103D30000A460021018BC1F30E014FF6FF7303EA1F
:103D400002231943018370470A460021818B4FF6F5
:103D50007F7319401143818370470A460021818B8C
:103D6000C1F30E014FF6FF7303EA02231943818367
:103D700070470A460021018C4FF6FD73194011432C
:103D8000018470470A460021018C4FF6F7731940F1
:103D90001143018470470A460021018C4FF6DF73FE
:103DA00019404FF6FF7303EA021319430184704769
:103DB0000A460021018C4FF67F7319404FF6FF73BE
:103DC00003EA02131943018470470A460021018C5B
:103DD0004FF6FF5319404FF6FF7303EA02231943CE
:103DE000018470470A460021018C4FF2FF7319408D
:103DF0004FF6FF7303EA02231943018470470A4612
:103E00000021018C4DF6FF7319404FF6FF7303EA52
:103E1000023319430184704730B5002301248C40DC
:103E2000A3B2048C9C430484048C02FA01F5ADB265
:103E30002C43048430BD30B5002304248C40A3B24D
:103E4000048C9C430484048C02FA01F5ADB22C432B
:103E5000048430BD828B4FF2FF331A408283828B01
:103E60004FF6FF7303EA01231A4382837047F0B5CC
:103E70000C461546002100220026078C4EF6FF7CDA
:103E800007EA0C070784818B028C4FF6FF7707EA5D
:103E9000043640F6FF4739404FF6FF7707EA05271B
:103EA00039434FF6FF7707EA0337394345F6FF7783
:103EB0003A4046F480573A4381830284F0BD828BB6
:103EC0004FF6F3731A408283828B0A4382837047D2
:103ED000F0B50C461546002100220026078C4FF64F
:103EE000FF6C07EA0C070784818B028C4FF6FF7783
:103EF00007EA04264FF60C7739404FF6FF7707EABA
:103F000003172F4339434FF2FF573A4046F4807767
:103F10003A4381830284F0BD028B4FF2FF331A4093
:103F20000283028B4FF6FF7303EA01231A430283D5
:103F30007047F0B50C461546002100220026078C7C
:103F40004FF6EF7C07EA0C070784018B028C4FF6D3
:103F5000FF7707EA041640F6FF4739404FF6FF7730
:103F600007EA033739434FF6FF7703E000000140CB
:103F70000004014007EA052739434FF65F773A40CE
:103F800046F010073A4301830284F0BD028B4FF6DE
:103F9000F3731A400283028B0A4302837047F0B521
:103FA0000C46154600210022068C4FF6FE773E4057
:103FB0000684018B028C4FF60C7631407E1C06EA9B
:103FC00003162E4331434FF6F576324044F0010696
:103FD000324301830284F0BD70B505460C4620884B
:103FE00050B92389A28861882846FFF7D8FFE18865
:103FF0002846FFF7CBFF25E0208804280AD1238933
:10400000A28861882846FFF794FFE1882846FFF7D9
:1040100083FF17E0208808280AD12389A2886188B5
:104020002846FFF755FFE1882846FFF748FF09E0DB
:104030002389A28861882846FFF719FFE18828466E
:10404000FFF708FF70BD00210180418001218180C0
:104050000021C180018170472DE9F04105460C46E1
:1040600000260127608808B9022600E00026A08803
:10407000012801D1022700E001272088A0B9238967
:10408000A28861882846FFF78AFFE1882846FFF763
:104090007DFF23893A4631462846FFF74AFFE188EB
:1040A0002846FFF739FF13E02389A2886188284654
:1040B000FFF73FFFE1882846FFF72EFF23893A46A6
:1040C00031462846FFF76BFFE1882846FFF75EFF81
:1040D000BDE8F0810146486B70470146886B704728
:1040E0000146C86B70470146086C70470A884B88C8
:1040F0001A438B881A43CB881A430B891A434B897E
:104100001A438B891A43A0F844207047002101808C
:1041100041808180C180018141818181704731B1BD
:10412000B0F8442042F40042A0F8442005E0B0F882
:104130004420C2F30E02A0F84420704721B18288C7
:1041400042F00402828004E082884FF6FB731A403A
:104150008280704721B1828842F00102828004E0AF
:1041600082884FF6FE731A40828070471AB18389A5
:104170000B43838102E083898B4383817047818273
:10418000704702460020138A0B400BB1012000E06B
:1041900000207047CA430282704730B502460020B3
:1041A00000230024158A05EA0103958905EA010424
:1041B00013B10CB1012000E0002030BDCA430282DF
:1041C000704741EA0203A0F8483070471AB183896A
:1041D0000B43838102E083898B438381704721B144
:1041E000828842F00802828004E082884FF6F773EA
:1041F0001A408280704701894FF6F87211400181A0
:1042000070470A46002101894FF68F731940114308
:104210000181704730B504460D4629462046FFF718
:10422000F0FF208940F00700208130BD2DE9F041EA
:1042300004460D4616461F46602D06D13B46012218
:1042400031462046FFF775FE05E03B460122314628
:104250002046FFF7A4FE29462046FFF7D2FF20891B
:1042600040F007002081BDE8F08130B50C46002108
:104270000189C9B24FF6FF7505EA032515432543A9
:104280002943018130BD2DE9F04105460E46174610
:104290009846002443463A4631462846FFF7E5FF54
:1042A0002C894FF6F870044044F007044FF68F70E5
:1042B000044044F070042C81BDE8F081F0B5044660
:1042C0000D4616461F463B46324629462046FFF716
:1042D000CCFF208940F480402081F0BD82884FF6D9
:1042E0008F731A40828082880A43828070470289D5
:1042F0004FF6F8731A40028102890A43028170471F
:1043000002894FF67F731A40028102890A430281B3
:104310007047F0B50C4615461E46002100220023CA
:104320000189028B038C4FF6F877394021434FF611
:10433000FC473A4040F201173A434FF6DD773B40E5
:104340004FF6FF7707EA06172F433B4301810283AD
:104350000384F0BD21B1828842F08002828004E0B3
:1043600082884FF67F731A4082807047A0F8501001
:1043700070470000002041490860091D0860091DC0
:104380000860091D08603E483C49143108607047C8
:1043900000213A498279002A3AD00A461268036815
:1043A0009A430B461A600A1D126803689A430B1D54
:1043B0001A60027911440A6803681A430A602F4A96
:1043C0000832126803689A432C4B08331A601A1D8E
:1043D000126803689A43294B0C331A604279102AF9
:1043E0000ED11A1F126803681A43244B08331A604F
:1043F0001A1D126803681A43204B0C331A600DE033
:104400001E49427911440A6803681A430A6005E0AC
:10441000027911440A6803689A430A6070470021D0
:10442000016001710C2141710021817170471349B4
:10443000103109680143114A10321160704701467A
:1044400000200E4A143212680A400AB1012000E02E
:104450000020704709491431086070470146002068
:10446000064A143212680A400AB1012000E0002016
:10447000704702491431086070470000003C014059
:10448000FFFF7F00016821F0010101600021016050
:1044900041608160C160016121214161DB49884245
:1044A00004D13D21D94A103A91608CE0D7491831A6
:1044B000884205D14FF47461D44A103A916082E089
:1044C000D2493031884205D14FF47411CF4A103AA5
:1044D000916078E0CD494831884205D14FF0746150
:1044E000CA4A103A91606EE0C8496031884204D1EE
:1044F000C749C64A103AD16065E0C449783188425C
:1045000004D1C449C14A103AD1605CE0BF4990313E
:10451000884204D1C049BD4A103AD16053E0BB493A
:10452000A831884205D14FF03D51B84A103AD160C8
:1045300049E0BA49884204D13D21B84A083A11609D
:1045400041E0B6491831884205D14FF47461B34A4D
:10455000083A116037E0B1493031884205D14FF453
:104560007411AE4A083A11602DE0AC4948318842D6
:1045700005D14FF07461A94A083A116023E0A749B8
:104580006031884204D1A249A44A121F11601AE086
:10459000A2497831884204D19E49A04A121F116075
:1045A00011E09E499031884204D19B499B4A121FD9
:1045B000116008E09949A831884204D14FF03D517B
:1045C000964A121F1160704710B500220268944B82
:1045D0001A40CC680B6823434C6923438C692343FE
:1045E000CC6923430C6A23434C6A23438C6A2343DC
:1045F0004C6B23438C6B23431A430260426922F0C5
:104600000702D1E90B3423431A4342610B6943602B
:104610004B6883608B68C36010BD002101604160FE
:104620008160C160016141618161C161016241627A
:104630008162C162016341638163704721B1026895
:1046400042F00102026003E0026822F0010202600F
:10465000704721B1026842F40042026003E0026840
:1046600022F400420260704721B1026842F0200249
:10467000026003E0026822F020020260704741609D
:1046800070470146486880B2704722B1036843F41E
:104690000023036003E0036823F400230360016147
:1046A000704721B1026842F48022026003E0026890
:1046B00022F48022026070470AB1016100E0C1600B
:1046C0007047014600200A6802F400220AB1012066
:1046D00000E000207047014600200A6802F0010255
:1046E0000AB1012000E000207047014600204A691D
:1046F00002F03800704730B503460A460020002417
:10470000464DAB4202D24149103901E043491039CC
:1047100002F000550DB14C6800E00C68414D2C4092
:1047200004EA02050DB1012000E0002030BD024680
:104730003A4B9A4202D23548103801E037481038D7
:1047400001F000531BB1374B0B40C36002E0354B07
:104750000B408360704710B501F080034BB122B16C
:10476000436943F08003436103E0436923F080031E
:10477000436180290BD02AB1036801F01E04234352
:10478000036004E0036801F01E04A343036010BD4E
:1047900070B50246002000240025204EB24202D20D
:1047A0001A4B103B01E01D4B103B1F4E0E4036B123
:1047B0001E2606EAD124166806EA040502E05669B8
:1047C00006F0800501F000560EB15C6800E01C6840
:1047D000144E344004EA010616B10DB1012000E088
:1047E000002070BD02460D4B9A4202D20748103895
:1047F00001E00A48103801F000531BB1094B0B408F
:10480000C36002E0074B0B408360704710600240BA
:104810003D000020400F002000003D2010640240B9
:104820003F801CF07D0F7D0F3C0F3C0F2DE9F047C2
:1048300004460F460026B146B04626E017F8085059
:1048400006EB4601601C00EB41124846411C01F09A
:10485000FF091554BAF10D0F13D10A2D11D1B9F179
:10486000020F02D14FF000090DE0002106EB4602D5
:10487000601C00EB4212A9F102001154701CC6B278
:104880008946AA4600BF08F10108384601F0AEFA91
:104890004045D3D8002106EB4602601C00EB4210D5
:1048A00001700020BDE8F08710B540F22551F848AE
:1048B000FEF77AFE18B3F648001D0088C4B2F5482A
:1048C000008800F40040D0B9F248008818B9F148D7
:1048D000008800210180EF480088802810D2002045
:1048E000ED4908600121EC482438FFF727F8E94832
:1048F00001880088401CE74A1080E848445405E0DD
:10490000E448008840F40040E249088010BD10B53A
:10491000E0480088C0F30E0028B1DE48008840F46B
:104920000040DC4908800121DB482438FFF746FCC1
:104930000021D9482438FFF701F810BD7FB505469E
:104940000C4601212020FEF744FB0195ADF8004004
:104950000020ADF80800ADF802006946CE482438C2
:10496000FEF763FF01221146CB482438FFF7FEFB18
:1049700037208DF80C0000208DF80D0001208DF8F7
:104980000E008DF80F0003A8FDF719FD7FBD10B5CF
:1049900088B0044601210846FEF7D2FA01214804F6
:1049A000FEF717FBBA48FEF71FFC07220221BC489E
:1049B000FEF7B3F807220321B948FEF7AEF80C2042
:1049C000059002208DF818008DF8190000208DF850
:1049D0001A0001208DF81B0005A9B148FEF712F856
:1049E00001940020ADF80800ADF80A00ADF80C0005
:1049F000ADF810000C20ADF80E0001A9A448FEF798
:104A00005AFC0121A248FEF7DEFC012240F22551AA
:104A10009F48FEF78EFD26208DF81C0002208DF8A1
:104A20001D0003208DF81E0001208DF81F0007A82F
:104A3000FDF7C5FC08B010BD10B5024600200CE023
:104A400000BF934B1B8803F04003002BF9D0135C8D
:104A50008F4C241D2380431C98B28842F0DB10BD8C
:104A600010B54FF41650FFF792FF40F2E73140F2D5
:104A70004730FFF763FF10BD70B505460C4616467C
:104A8000B4F5806F04D987A001F02CF8002070BD28
:104A9000A1B22846FFF7D0FF2046F8E770B50446DC
:104AA00000257C48008800F4004058B10020794976
:104AB0000988C1F30E01794A50542146104601F08D
:104AC00083F90546284670BD10B504467CA12046F2
:104AD00001F07AF918B121467BA001F003F801201A
:104AE00010BD2DE9F04704460F4615461E464FF00F
:104AF0000008C146002067490880204601F076F989
:104B000080280AD9204601F071F98246514671A0E9
:104B100000F0E8FF0220BDE8F087FF2C0AD800BFB4
:104B20005B48008800F040000028F9D05849091D72
:104B30000C800AE022466EA16E4800F0DFFF1FFAEB
:104B400080F949466B48FFF777FF002F43D0002DCF
:104B500041D038E00A20FDF747FB4E48008800F4BA
:104B6000004078B33846FFF7AFFF58B33846FFF739
:104B700095FF80B147480088C0F30E024749304690
:104B800001F09EF9002043490988C1F30E017054D9
:104B9000404908801BE058A0FFF780FF90B13D48D6
:104BA0000088C0F30E023D49304601F089F900202B
:104BB00038490988C1F30E017054364908804FF016
:104BC000020804E0FFE7681E80B2051EC2D100BFE4
:104BD0000DB94FF0010840469DE770B504462D48D9
:104BE000008800F40040B0F5004F19D12948008832
:104BF00020F400402749088008460088A4F8860071
:104C0000084602882549601D01F05AF90020214913
:104C10000880002500E06D1C052DFCDB002070BD28
:104C20000120FCE72DE9F04106460C461546002719
:104C30001848008800F4004010B90220BDE8F08157
:104C400016B30CB300BF0A20FDF7CEFA1148008856
:104C500000F40040C8B13046FFF736FFA8B1304637
:104C6000FFF71CFF90B10B480088C0F30E020B4900
:104C7000284601F025F9002006490988C1F30E01F4
:104C800068540449088043E045E03DE038E0000016
:104C9000004400403600002024140040500800204A
:104CA000000002404E4241545F73656E64206C65A3
:104CB0006E206973206572726F720D0A0000000029
:104CC0002B4E534F4D490000726573706F6E733AEF
:104CD000202573004E4241545F73656E64436D64DA
:104CE000204C656E2069732025640D0A00000000C9
:104CF00025730000D00800204552524F520000009A
:104D0000AFF20C00FFF7CAFE601E80B2041E9AD1FB
:104D100000BF04B90127384690E710B500240848C1
:104D2000008800F4004040B106A1084801F04CF8AA
:104D300018B18021054801F008F9002010BD0000DD
:104D4000360000202B4E4E4D490000005008002038
:104D500070B506460D46002410E0305DF74901EBC2
:104D60002010017805F81410305D00F00F00F349B1
:104D7000095C6000401C2954601C84B2304601F07C
:104D800035F880B2A042E8DC002105F8141070BDAF
:104D90002DE9F04105460E4617460024A046284658
:104DA00001F024F800F0010010B10120BDE8F0810D
:104DB00040E04FF00008285D302807DB285D3928E7
:104DC00004DC285D303800F0FF0817E0285D41283A
:104DD00007DB285D462804DC285D373800F0FF0833
:104DE0000CE0285D612807DB285D662804DC285D6F
:104DF000373800F0FF0801E00220D7E7204604EB37
:104E0000D0714910A4EB410139B94FEA0871090E7C
:104E100004EBD0725210B1540AE0204604EBD0717A
:104E20004910715C41EA080104EBD0725210B15490
:104E3000601C84B2284600F0D9FF80B2A042B8DCE2
:104E4000284600F0D3FF400838600020AEE72DE987
:104E5000F04707460D461646A8463C46284600F051
:104E6000C5FF81464E4500DD4E4603E018F8010BB4
:104E700004F8010B301EA6F10106F7D104F8010B6E
:104E80003846BDE8F0872DE9F04780460C461546C8
:104E90002646C146204600F0A9FF0746BD4200DD78
:104EA0003D46781B064400BF16F8011B09F8011B9C
:104EB0000029F9D14046BDE8F0872DE9F0410446CC
:104EC0000D4616469846284600F090FF0746BE421B
:104ED00001DA002E02DA0120BDE8F081B84501DDDB
:104EE000A7EB0608354403E015F8010B04F8010BA5
:104EF000B8F10000A8F10108F6D104F8010B00BFD9
:104F0000EAE710B5FFF7ACFD10BD10B500248C4BDF
:104F100064228CA18CA0FFF7E4FD044634B98CA078
:104F200000F0E0FD864994A000F0DCFD204610BDB5
:104F300010B50024824B642295A198A0FFF7D1FD03
:104F4000044614B998A000F0CDFD204610BD10B560
:104F500000247B4B64227BA17BA0FFF7C2FD0446AB
:104F600014B999A000F0BEFD204610BD10B5002474
:104F7000734B642273A19CA0FFF7B3FD044614B9E0
:104F80009CA000F0AFFD204610BD10B500246C4B76
:104F900064226CA1A0A0FFF7A4FD044634B9A1A02F
:104FA00000F0A0FD664974A000F09CFD204610BDF5
:104FB00010B50024624B6422A3A1A4A0FFF791FDC9
:104FC00004463CB9A4A000F08DFD5D496AA000F044
:104FD00089FD06E0A9A000F085FD594966A000F012
:104FE00081FD204610BD10B50024554B642255A10B
:104FF000A9A0FFF776FD04463CB9ABA000F072FD16
:105000004F495DA000F06EFD06E09CA000F06AFD37
:105010004B4959A000F066FD204610BD70B504460E
:105020000025474B642247A1A8A0FFF75AFD05467B
:10503000A5B94348007A30384149C979303901EB84
:10504000810100EB4100C6B2632E04D1A2A000F0A2
:1050500049FD032070BD04B1267002E087A000F076
:1050600041FD2846F6E770B5002400250026344BA4
:10507000642234A19DA0FFF734FD0446002C13D117
:105080009DA000F02FFD2E493BA000F02BFDA3A119
:105090002B4800F099FE0546A3A1294800F094FE94
:1050A00006460DB906B90124204670BD10B500248E
:1050B000234B642223A19FA0FFF713FD044614B9DC
:1050C000A0A000F00FFD204610BD70B50024002503
:1050D00000261B4B64221BA1A3A0FFF702FD044680
:1050E000002C13D1A3A000F0FDFC154922A000F074
:1050F000F9FCA9A1124800F067FE0546A8A11048D6
:1051000000F062FE06460DB906B90124204670BDC6
:1051100070B5044600252246A3A1A74800F0EEFC86
:10512000074B642207A1A448FFF7DBFC054615B92D
:10513000A2A000F0D7FC284670BD00007C8F0008BC
:10514000D00900204F4B000041540D0A0000000020
:105150005B494E464F5D434845434B204D4F4445C8
:105160004C20524553504F4E5345205355434345D1
:1051700053530D0A000000005B494E464F5D5245F7
:1051800053504F4E53452049532025730D0A0000BC
:105190005245424F4F54494E4700000041542B4E58
:1051A00052420D0A000000005B494E464F5D5245D9
:1051B000424F4F5420524553504F4E534520535564
:1051C00043434553530D0A005B494E464F5D4745E7
:1051D0005441434B20524553504F4E534520535555
:1051E00043434553530D0A0041542B434D45453D20
:1051F000310D0A005B494E464F5D534554434D45C2
:105200004520524553504F4E534520535543434537
:1052100053530D0A0000000041542B4E42414E44AE
:105220003F0D0A005B494E464F5D4745544E424193
:105230004E4420524553504F4E53452053554343FF
:105240004553530D0A0000003436000041542B43EF
:10525000494D490D0A0000005B494E464F5D4745E8
:105260005443494D4920524553504F4E53452053C6
:105270005543434553530D0A000000005B494E4619
:105280004F5D415420524553504F4E5345204641A7
:10529000494C0D0A0000000041542B43474154542F
:1052A0003D310D0A000000005B494E464F5D5345FD
:1052B00054434741545420524553504F4E53452078
:1052C000535543434553530D0A00000041542B43AB
:1052D00053510D0A000000005B4552524F525D478A
:1052E0004554435351204661696C0A0041542B4395
:1052F000455245473F0D0A005B494E464F5D4745C5
:1053000054434552454720524553504F4E53452034
:10531000535543434553530D0A0000002B43455258
:1053200045473A302C3100002B43455245473A312E
:105330002C31000041542B43455245473D310D0A65
:10534000000000005B494E464F5D534554434552B3
:10535000454720524553504F4E53452053554343E4
:105360004553530D0A00000041542B434F50533F07
:105370000D0A00005B494E464F5D474554434F5070
:105380005320524553504F4E5345205355434345A8
:1053900053530D0A00000000343630313100000054
:1053A000343630303000000041542B4E4344503DE1
:1053B00025730D0A00000000D00B00205B494E460B
:1053C0004F5D5345544E43445020524553504F4E29
:1053D000534520535543434553530D0A00000000E5
:1053E00070B504460025204600F000FD460823461F
:1053F00032466AA16D4800F081FB6D4B4FF4FA62B2
:10540000AFF2C0216948FFF76CFB054615B969A0EA
:1054100000F068FB284670BD10B50024644B642280
:10542000AFF2E0216CA0FFF75CFB044614B973A057
:1054300000F058FB204610BD70B5002400255C4BE1
:105440006422AFF2003176A0FFF74BFB04464CB963
:1054500076A000F047FB7EA1554800F0B5FC05465C
:1054600005B90124204670BD70B500240025002632
:105470004F4B6422AFF2343178A0FFF732FB044681
:10548000002C14D178A000F02DFB4949AFF2183060
:1054900000F028FB7DA1464800F096FC05467EA161
:1054A000434800F091FC06460DB906B90124204698
:1054B00070BD0160027170472DE9F04704464FF05E
:1054C000000904F10509B4F88680002543E005EBE6
:1054D0004502216851F8220000F088FC87B205EBF4
:1054E0004502216801EB8201486800F07FFC86B22A
:1054F000B819404500DD2CE06FB105EB450220688E
:1055000050F822103A46484600F08FFC08B90120B6
:1055100002E0002000E00120D0B186B105EB450398
:10552000226802EB8302516809EB0802901B3246A5
:1055300000F07BFC08B9012002E0002000E001201F
:1055400030B105EB4501206800EB8100BDE8F08734
:1055500000BF681C85B22079A842B8DC0020F5E7BE
:1055600070B5044600252046FFF737FB054695B980
:105570002046FFF7A1FF061E0CD04A48006808B974
:10558000012000E0002047490860B4F88610601D43
:10559000B268904700BF284670BD000041542B4EB2
:1055A0004D47533D25642C25730D0A00D00B002078
:1055B000D00900205B494E464F5D5345544E4D4740
:1055C0005320524553504F4E534520535543434566
:1055D00053530D0A0000000041542B434744434FEE
:1055E0004E543D312C224950222C224855415745DA
:1055F000492E434F4D220D0A000000005B494E46E4
:105600004F5D534554434744434F4E5420524553F6
:10561000504F4E534520535543434553530D0A00B5
:1056200041542B43474154543F0D0A005B494E46B9
:105630004F5D474554434741545420524553504FC2
:105640004E534520535543434553530D0A00000024
:105650002B43474154543A310000000041542B433E
:1056600053434F4E3F0D0A005B494E464F5D474541
:10567000544353434F4E20524553504F4E534520B1
:10568000535543434553530D0A0000002B435343E6
:105690004F4E3A302C3100002B4353434F4E3A309B
:1056A0002C300000B082404270B5044600255948B5
:1056B000008800F4004078B1002056490988C1F301
:1056C0000E01554A5054114654A000F00BFA2146E1
:1056D000514800F079FB0546284670BD2DE9F041A0
:1056E00006460D461446002700204A4908803146E8
:1056F0004DA000F0B3F931464DA000F0F3F9C5B16B
:10570000BCB10FE06420FCF76FFD4248008800F454
:10571000004038B12846FFF7C7FF00B106E000207F
:105720003C490880601E80B2041EEBD100BF04B962
:1057300001273846BDE8F0812DE9F04106460D46C7
:105740001446002700203349088031463BA000F072
:1057500085F9C5B1BCB10FE00A20FCF745FD2D4825
:10576000008800F4004038B12846FFF79DFF00B1E3
:1057700006E0002027490880601E80B2041EEBD19D
:1057800000BF04B901273846BDE8F08110B50024F8
:105790002BA000F0A7F902E030A000F0A3F9462208
:1057A00036A139A0FFF79AFF0028F5D102E039A011
:1057B00000F098F9142241A141A0FFF78FFF0028C3
:1057C000F5D142A000F08EF9204610BD10B586B08C
:1057D00000240A2244A145A0FFF780FF02220021F5
:1057E00045480068FFF7A8FF1A2244A101A800F06D
:1057F00085F9322231A101A8FFF770FF04461CB9D8
:105800003FA000F06FF902E045A000F06BF906B090
:1058100010BD00003C000020601100205B61636B44
:105820005D3A25730D0A000025730D0A0000000083
:105830005B636D645D25730D0A0000002573000035
:105840005B64656275675D73696D38303020696EC1
:1058500069742073746172740D0A00005B455252C2
:105860004F525D2053494D38303020435245472038
:105870004641494C443B2E2E0D0A00002B43524515
:10588000473A20302C31000041542B435245473FCA
:10589000000000005B4552524F525D2053494D3885
:1058A00030302053455420504455204D444F45201E
:1058B0004641494C442E2E0D0A0000004F4B00007B
:1058C00041542B434D47463D300000005B64656208
:1058D00075675D73696D38303020696E6974206555
:1058E0006E640D0A000000003E00000041542B438E
:1058F0004D47533D3335000038000020256300003C
:105900005B696E666F5D73656E64206D657361675C
:105910006520737563636573732E2E0D0A00000096
:105920005B4552524F525D73656E64206D657361C5
:105930006765206661696C642E2E0D0A0000000008
:1059400010B540F225515748FDF72EFE00B35548DB
:10595000FDF768FDC4B25448008800F40040B8B9AF
:1059600051480088B0F5C87F13DA00214F48FDF791
:10597000A5FF4D48008818B901214C48FDF7DEFF0E
:10598000494801880088401C474A108048484454D0
:1059900005E04548008840F400404349088010BDB8
:1059A00010B588B0044601210420FDF7C9FA012191
:1059B0002020FDF71FFB082206213E48FDF7ADF829
:1059C000082207213B48FDF7A8F8C02006900220D6
:1059D0008DF81C008DF81D0000208DF81E000120A0
:1059E0008DF81F0006A93348FDF70CF8029400203B
:1059F000ADF80C00ADF80E00ADF81000ADF81400D5
:105A00000C20ADF8120002A92648FDF754FC012134
:105A10002448FDF7D8FC012240F225512148FDF72A
:105A200088FD47208DF8040003208DF805008DF8CF
:105A3000060001208DF8070001A8FCF7C0FC42F227
:105A4000CF0140F2E730FCF7C3F800201649088088
:105A500000211648FDF772FF08B010BD0FB438B52D
:105A600005A800901448009A049900F029F8002035
:105A70000090114800F0BAF985B200240DE000BF93
:105A800040210848FDF77AFD0028F9D00A48015D59
:105A90000448FDF7C3FC601C84B2AC42EFDB38BCA9
:105AA0005DF814FB001401403C000020000C004095
:105AB0006011002000080240D00F00207047000055
:105AC0001CB50C46064B7B4469460090204600F00E
:105AD00028FD04460020694600F036FD20461CBD26
