:020000040800F2
:10000000E80F0020A9190008090C00080B0C0008D3
:100010000F0C0008130C0008170C0008000000006B
:100020000000000000000000000000001B0C0008A1
:100030001D0C0008000000001F0C0008210C000827
:10004000C3190008C3190008C3190008C319000820
:10005000C3190008C319000879110008C319000862
:10006000C3190008C3190008C3190008C319000800
:10007000C3190008C3190008C3190008C3190008F0
:10008000C3190008C3190008C3190008C3190008E0
:10009000C3190008C3190008C3190008C3190008D0
:1000A000C3190008C3190008C3190008C3190008C0
:1000B000D9160008C3190008C3190008C31900089D
:1000C000C3190008C3190008C3190008C3190008A0
:1000D000C31900081D190008DD3E0008C3190008F7
:1000E000C3190008C3190008C3190008C319000880
:1000F000C3190008C3190008C3190008C319000870
:10010000C3190008C3190008C3190008C31900085F
:10011000C3190008C3190008C3190008433F0008A9
:100120002B100008C3190008C3190008C3190008E0
:10013000C3190008C3190008C3190008C31900082F
:10014000C3190008C3190008C3190008C31900081F
:10015000C3190008C3190008C3190008C31900080F
:10016000C3190008C3190008C3190008C3190008FF
:10017000C3190008C3190008C3190008C3190008EF
:10018000C3190008C319000800F002F800F052F883
:100190000AA090E8000C82448344AAF10107DA45E2
:1001A00001D100F047F8AFF2090EBAE80F0013F0E2
:1001B000010F18BFFB1A43F001031847507D0000E0
:1001C000707D0000103A24BF78C878C1FAD8520771
:1001D00024BF30C830C144BF04680C6070470000C1
:1001E0000023002400250026103A28BF78C1FBD840
:1001F000520728BF30C148BF0B607047662907F01F
:100200006285642904F0DE85632905F0468273293E
:1002100005F04B82002070471FB507F04AFD05F03E
:100220008DFA04000020002106F020FFE0601FBDD1
:1002300010B510BD05F08AFB1146FFF7EDFF00F089
:100240007BF905F0A8FB03B4FFF7F2FF03BC01F054
:1002500005FB00002DE9F0478EB006460024DAA524
:1002600000200090D9A1304604F06FFE044604F14E
:10027000010804F1030998F80170342101A804F081
:1002800047FF6A4601A9484604F09CF88246384672
:10029000362F74D008DCA0F1310005280DD2DFE83C
:1002A00000F00C0D59728800372869D0382868D0C2
:1002B000392867D0612800D1D3E0E7E0C4A004F07A
:1002C0000FFD9DF804004F2843D19DF805004128FB
:1002D00006D0462810D04C2806D0522810D107E06E
:1002E000BFA004F0FDFC0BE0C5A004F0F9FC07E0A2
:1002F000CBA004F0F5FC03E0D1A004F0F1FC00BFBA
:1003000000BF9DF80800412806D0482810D04C288E
:1003100006D04D2810D107E0D1A004F0E1FC0BE09D
:10032000D7A004F0DDFC07E0DDA004F0D9FC03E079
:10033000E3A004F0D5FC00BF00BF9DF807309DF896
:100340000620E7A1284604F0D7FC2946E6A004F0E1
:10035000C7FC9BE0ECA004F0C3FCEFA101A804F0F3
:10036000F4FD18B1EDA004F0BBFC07E0EEA101A87C
:1003700004F0EBFD10B1EDA004F0B2FC86E02DE03E
:1003800041E055E069E001A9EBA004F0A9FCE2A17D
:1003900001A804F0DAFD18B1ECA004F0A1FC07E01C
:1003A000E1A101A804F0D1FD10B1ECA004F098FC8B
:1003B0006CE0EEA004F094FCD7A101A804F0C5FD08
:1003C00018B1EDA004F08CFC07E0D7A101A804F05F
:1003D000BCFD10B1EBA004F083FC57E0ECA004F0EE
:1003E0007FFCCDA101A804F0B0FD18B1ECA004F091
:1003F00077FC07E0CCA101A804F0A7FD10B1ECA0A8
:1004000004F06EFC42E0EEA004F06AFCC2A101A878
:1004100004F09BFD18B1EEA004F062FC07E0C2A15D
:1004200001A804F092FD10B1EDA004F059FC2DE0FC
:10043000EFA004F055FCB8A101A804F086FD18B1A6
:10044000EFA004F04DFC07E0B7A101A804F07DFD8A
:1004500010B1EFA004F044FC18E0F1A004F040FC5F
:1004600014E0F3A004F03CFCABA101A804F06DFD86
:1004700018B1F3A004F034FC07E0ABA101A804F02C
:1004800064FD10B1F1A004F02BFC00BF00BF0EB062
:10049000BDE8F08730B599B004460D46602101A84B
:1004A00004F036FE6022214601A804F0CAFD01A92D
:1004B000E9A004F015FC01A8FFF7CCFE19B030BD8F
:1004C00010B5002403E00124E8A004F009FC04F0C6
:1004D00036F80028F7D14FF4C87001F09FF903E017
:1004E0000124EAA004F0FCFB002004F0B1F800288D
:1004F000F6D14FF4C87001F091F903E00124EBA0AC
:1005000004F0EEFB04F0C9F80028F7D14FF4C870EE
:1005100001F084F903E00124ECA004F0E1FBF3A076
:1005200004F010F90028F6D14FF4C87001F076F904
:10053000F1A004F0D5FB10BD2DED068BADF5107DBF
:10054000002400BF0FF2CC380DF11C090122F24942
:10055000484604F0C8FA4FF4A06001F045FAA8201C
:1005600001F0FAF84FF4165001F086F900F062FC41
:1005700000F069FD00F0ECFD03F0DDFFFFF7A0FFE8
:1005800088E2484604F006FB642094FBF0F100FB8F
:100590001140002817D18CA98FA800F0B6FE8BA9B6
:1005A0008EA800F07EFF8AA98DA801F046F89DF87C
:1005B00030229DF83C12D9A004F092FB9DF82C2229
:1005C0009DF83812BEE15DE2323600002C000000DA
:1005D000C9E8D6C3BFD5B5F72E2E2E0D0A000000F0
:1005E0005B616972636F6E646974696F6E5D2D3EE5
:1005F000C4A3CABD3AD7D4B6AF204C0D0A00000040
:100600005B616972636F6E646974696F6E5D2D3EC4
:10061000C4A3CABD3A20D6C6C0E40D0A000000003B
:100620005B616972636F6E646974696F6E5D2D3EA4
:10063000C4A3CABD3A20D6C6C8C80D0A000000002F
:100640005B616972636F6E646974696F6E5D2D3E84
:10065000C4A3CABD3A20CBCDB7E70D0A0000000005
:100660005B616972636F6E646974696F6E5D2D3E64
:10067000B7E7CBD93A20D7D4B6AF0D0A00000000B7
:100680005B616972636F6E646974696F6E5D2D3E44
:10069000B7E7CBD93A20B5CDCBD90D0A0000000081
:1006A0005B616972636F6E646974696F6E5D2D3E24
:1006B000B7E7CBD93A20D6D0CBD90D0A000000003D
:1006C0005B616972636F6E646974696F6E5D2D3E04
:1006D000B7E7CBD93A20B8DFCBD90D0A000000002C
:1006E00025632563000000005B616972636F6E64BF
:1006F0006974696F6E5D2D3ECEC2B6C83A2025730F
:10070000A1E60D0A00000000BFD8D6C6B4B0C1B142
:100710002E2E2E0D0A0000004F000000B4F2BFAADA
:10072000B4B0C1B10D0A000043000000B9D8B1D582
:10073000B4B0C1B10D0A0000C9E8D6C3BCD2CDA582
:10074000C4A3CABD25733A200D0A0000B4F2BFAAA3
:10075000CBF9D3D0B5C60D0A00000000B9D8B1D589
:10076000CBF9D3D0B5C60D0A00000000BFD8D6C65D
:10077000B7E7BBFA0D0A0000B4F2BFAAB7E7BBFAAD
:100780000D0A0000B9D8B1D5B7E7BBFA0D0A0000D1
:10079000BFD8D6C6BFCDCCFCB5C60D0A0000000040
:1007A000B4F2BFAABFCDCCFCB5C60D0A0000000054
:1007B000B9D8B1D5BFCDCCFCB5C60D0A000000003C
:1007C000BFD8D6C6CED4CAD2B5C60D0A0000000026
:1007D000B4F2BFAACED4CAD2B5C60D0A000000003A
:1007E000B9D8B1D5CED4CAD2B5C60D0A0000000022
:1007F000BFD8D6C6B3F8B7BFB5C60D0A0000000013
:10080000B4F2BFAAB3F8B7BFB5C60D0A0000000026
:10081000B9D8B1D5B3F8B7BFB5C60D0A000000000E
:10082000BFD8D6C6D4A1CAD2B5C60D0A00000000F2
:10083000C9E8D6C3CDD8D5B9C3FCC1EE0D0A0000B6
:10084000CDD8D5B9BFAA0D0A00000000CDD8D5B9C2
:10085000B9D80D0A000000005B494E464F5D726535
:10086000637620646174613A257300005B4E425FD9
:100870004552524F525D434845434B204D4F4445EE
:100880004C204661696C0D0A000000005B4E425F1F
:100890004552524F525D4D4F44454C2047455443BD
:1008A0005351204661696C0D0A0000005B4E425FA7
:1008B0004552524F525D4D4F44454C20474554439D
:1008C00045524547204661696C0D0A005B4E425F08
:1008D0004552524F525D4D4F44454C205345544E66
:1008E000434450204661696C0D0A000034392E34AF
:1008F0002E38352E323332004E42204D4F44454C77
:1009000020494E4954205355434553532121210D2D
:100910000A00000030300000BC7D00085B444154F8
:10092000415D74656D7065726174757265313A25EB
:1009300064202068756D69646974793A25640D0ACC
:100940000000000064A004F0CBF99DF828229DF877
:1009500034126BA004F0C4F99DF83C02642801DD58
:100960001A208F909DF83802642801DD1A208E909D
:100970009DF83402642801DD1A208D90002000F0DB
:1009800070FBB0EE408A012000F06BFBF0EE408A75
:10099000022000F066FBB0EE409ABCEEC80A10EEF2
:1009A000100A85B2BCEEE80A10EE100A86B2BCEE60
:1009B000C90A10EE100A87B218EE100A07F008F9FB
:1009C00041EC1A0B53EC1A2B57A004F089F918EEDE
:1009D000900A07F0FDF841EC1A0B53EC1A2B57A0C4
:1009E00004F07EF919EE100A07F0F2F841EC1A0B48
:1009F00053EC1A2B56A004F073F942F210708542A2
:100A000000DD451E42F21070864200DD461E42F2B5
:100A10001070874200DD471E4FF416709DF82812B3
:100A20009DF834224FF44873CDE90332CDE9051027
:100A30009DF82C029DF838124FF42F72CDE9002159
:100A400002909DF830329DF83C2246A16AA804F03D
:100A500053F96AA94AA004F043F980214AA804F096
:100A600057FB4AA96AA803F08DFC4AAB42464DA148
:100A70002AA804F041F92AA803F0CCFF2AA94BA028
:100A800004F02EF9142000F0C9FEC82C00DD00246B
:100A9000601CC4B275E510B502E04CA004F020F96A
:100AA00000F05FFC0028F8D10A2000F0B7FE02E059
:100AB0004BA004F015F900F020FD0028F8D10A2021
:100AC00000F0ACFE02E04BA004F00AF900F0E1FDFA
:100AD0000028F8D110BD00005B444154415D7465AD
:100AE0006D7065726174757265323A256420206894
:100AF000756D6964697479323A25640D0A000000E5
:100B00005B444154415D74656D70657261747572CA
:100B100065333A2564202068756D6964697479339A
:100B20003A25640D0A0000005B444154415D707039
:100B30006D313A252E3266200D0A00005B44415487
:100B4000415D70706D323A252E3266200D0A00002C
:100B50005B444154415D70706D333A252E326620FE
:100B60000D0A000025326425326425336425326481
:100B700025326425336425326425326425336400CC
:100B80000D0A5B494E464F5D636F61702073656E61
:100B900064207072696D61727920646174613A25B4
:100BA000730D0A0025732573000000005B494E4653
:100BB0004F5D636F61702073656E642048455820F7
:100BC000646174613A25730D0A00000020444854A2
:100BD00031315F3120696E6974206572726F720005
:100BE0002044485431315F3220696E697420657247
:100BF000726F72002044485431315F3320696E694E
:100C000074206572726F7200704700BFFEE700BF0C
:100C1000FEE700BFFEE700BFFEE770477047704782
:100C2000704700000CB500200190009076480068E5
:100C300040F480307449086000BF7348006800F4D5
:100C4000003000900198401C0190009818B901985C
:100C5000B0F5A04FF1D16C48006800F4003010B13D
:100C60000120009001E0002000900098012846D16A
:100C700065484030006840F080506349403108606A
:100C80006248006840F44040604908605E480830AF
:100C900000685D49083108600846006840F400407B
:100CA00008600846006840F4A05008605848091FD2
:100CB0000860081F006840F08070091F086000BFCE
:100CC0005148006800F000700028F9D040F205702B
:100CD000504908604C480830006820F003004A4939
:100CE000083108600846006840F00200086000BF54
:100CF00045480830006800F00C000828F8D10CBD09
:100D000010B54548006840F47000434908603E480B
:100D1000006840F001003C49086000203A49083171
:100D20000860394800683D490840374908603C4838
:100D3000091D0860081F006820F48020091F086052
:100D4000002031490C310860FFF76CFF4FF0006064
:100D500031498039086010BD70B50020002202239F
:100D600000240221284D08352D6805F00C0020B123
:100D7000042806D0082834D107E02A4D2A4E3560D1
:100D800033E02A4D284E35602FE01F4D2D1D2D6874
:100D9000C5F380541C4D2D1D2D6805F03F0154B145
:100DA000224DB5FBF1F5184E361D3668C6F3881690
:100DB00005FB06F209E01B4DB5FBF1F5124E361DA1
:100DC0003668C6F3881605FB06F20F4D2D1D2D68FB
:100DD000C5F301456D1C6B00B2FBF3F5124E356097
:100DE00003E0104D104E356000BF00BF064D0835C2
:100DF0002D68C5F303150E4E705D0B4D2D68C54073
:100E0000094E356070BD000000380240007000409F
:100E100008544007003C024088ED00E0FFFFF6FE6A
:100E2000103000240024F4000000002000127A009A
:100E3000040000201CB50121202001F09BFB4FF491
:100E4000C060009001208DF8040000208DF806009D
:100E500003208DF8050001208DF80700694604483D
:100E600001F0EAF84FF4C061014801F061F91CBDDE
:100E70000014024000B58DB00121084601F07AFB54
:100E80000121080201F0D0FBE0200B9003208DF837
:100E9000300000208DF833000BA99F4801F0CCF8FA
:100EA0000121080201F015FC00214FF4807001F0CF
:100EB00010FC002007900A904FF480400990C00079
:100EC000089007A800F03AFE0020019001208DF85C
:100ED00008008DF8090000200390059003208DF88C
:100EE000180001A98D4800F0FAFD07230122052111
:100EF0008A4800F07AFE072302220621874800F084
:100F000074FE072303221946844800F06EFE012177
:100F1000824800F015FF0121804800F006FF012102
:100F20007E4800F022FE0DB000BD2DE9F04190B0EA
:100F300004460D4616461F46DDF858807848844220
:100F400004D90121880501F015FB03E001214805C2
:100F500001F010FB204602F0AFFD00BF204602F07A
:100F6000D4FE0028FAD10195029603970490CDF89B
:100F7000148006904FF48060079040000890800035
:100F8000099040110A9000020B9000200C90032061
:100F90000D9000200E900F9001A9204602F02EFE29
:100FA00038208DF8000001208DF801008DF8020036
:100FB0008DF80300684600F01CFD00BF5848103053
:100FC00002F0A3FE0028F9D101215548103002F0AB
:100FD0004FFE10B0BDE8F08130B50023002021E0C5
:100FE000002114E001EB41044E4D05EBC40434F83C
:100FF0001040002C09DD01EB410405EBC40434F87A
:1010000010401444A2B25C1CE3B24C1CE1B20A29A9
:10101000E8DB92FBF3F4444D25F810400022002356
:10102000441CE0B20328DBDB30BD10B53F493C482F
:10103000103002F07AFE012804D13C4938481030C3
:1010400002F08FFE10BD08B5FFF714FF7820354B76
:10105000324A4C320021009031481030FFF765FFD2
:1010600008BD70B52DED0A8B0546FFF7B5FF2E487C
:1010700030F81540002C00DC012400EE104AB8EED8
:10108000400ADFED2B0A20EE200ADFED2A0A80EE6F
:10109000208A9FED270A30EE480AC0EE080A10EEBB
:1010A000906A304606F094FD41EC1B0B9FED220B3D
:1010B00053EC102B06F096FA41EC1A0B05F0F8FFF2
:1010C00009EE100AB3EE0E0AC9EE000A10EE906A9D
:1010D000304606F07DFD41EC1C0B9FED191BB0EE78
:1010E0004C0AF0EE6C0A05F07FF8B0EE40BAF0EE74
:1010F00060BA9FED150B53EC102B51EC1B0B06F057
:1011000071FA41EC1A0B05F0D3FF08EE900AB0EE2D
:10111000680ABDEC0A8B70BD00000240002001404F
:1011200000640240340000202401002020800010D0
:101130003333534000008045CDCCCCCCCCCC1240D6
:10114000000000408D9700C000000040332F834016
:101150001CB50121084601F00DFA01200090022083
:101160008DF807006946034800F066FF00F017F8A5
:101170001CBD00000000024010B50A2000F04EFB2C
:10118000012002F090FC19A003F0AAFD1F4800689E
:1011900008B9012000E000201C49086010BD0EB510
:1011A0000121880301F040FA0021084601F071FD99
:1011B0000120009000208DF8040008208DF8050023
:1011C00001208DF80600684602F0FCFB06208DF831
:1011D000080000208DF8090002208DF80A00012087
:1011E0008DF80B0002A800F004FC0EBD0D0ABAEC4D
:1011F000CDE2C8C8CACDB5E7BFAAB9D8BCE0B2E253
:10120000B5BDD3D0C8CB0D0A00000000A882424271
:1012100010B56248006820F0C000604908600846C8
:10122000006840F04000086000205D49086014201C
:1012300000F0F4FA01205B49C1F88C021E2000F096
:10124000A5FA10BD10B500245448006820F0C00075
:101250005249086008460068086004E0601CC4B297
:10126000012000F093FA4E488038006808B1642CE1
:10127000F4DB642C01DB012010BD002404E0601CC1
:10128000C4B2012000F082FA45488038006808B9ED
:10129000642CF4DB642C01DB0120EDE70020EBE79C
:1012A00010B5002404E0601CC4B2012000F06EFA06
:1012B0003B488038006808B1642CF4DB002404E06B
:1012C000601CC4B2012000F061FA35488038006823
:1012D00008B9642CF4DB282000F058FA3048803834
:1012E000006808B1012010BD0020FCE770B50024A3
:1012F000002506E06006040EFFF7D2FF0443681CD9
:10130000C5B2082DF6DB204670BD7CB505460E46FD
:10131000FFF77EFFFFF796FFF8B9002405E0FFF71F
:10132000E5FF0DF80400601CC4B2052CF7DB9DF846
:1013300000009DF8011008449DF8021008449DF833
:10134000031008449DF80410884208D19DF800005D
:1013500030709DF80200287001E001207CBD002063
:10136000FCE71CB50121042001F004F908200090DD
:1013700001208DF8040000208DF8060002208DF871
:10138000050001208DF807006946044800F054FE6E
:10139000FFF73EFFFFF756FF1CBD000000080240AC
:1013A0008C0241420000414210B56248006820F4BE
:1013B0004070604908600846006840F4807008602A
:1013C00000205D490860142000F028FA01205B49E4
:1013D000C1F890021E2000F0D9F910BD10B500240C
:1013E0005448006820F4407052490860084600687C
:1013F000086004E0601CC4B2012000F0C7F94E4848
:101400008038006808B1642CF4DB642C01DB012017
:1014100010BD002404E0601CC4B2012000F0B6F945
:1014200045488038006808B9642CF4DB642C01DB83
:101430000120EDE70020EBE710B5002404E0601C7C
:10144000C4B2012000F0A2F93B488038006808B11E
:10145000642CF4DB002404E0601CC4B2012000F022
:1014600095F935488038006808B9642CF4DB2820E9
:1014700000F08CF930488038006808B1012010BDB8
:101480000020FCE770B50024002506E06006040E8D
:10149000FFF7D2FF0443681CC5B2082DF6DB2046D7
:1014A00070BD7CB505460E46FFF77EFFFFF796FF41
:1014B000F8B9002405E0FFF7E5FF0DF80400601C13
:1014C000C4B2052CF7DB9DF800009DF8011008441C
:1014D0009DF8021008449DF8031008449DF804107C
:1014E000884208D19DF8000030709DF802002870F5
:1014F00001E001207CBD0020FCE71CB50121042097
:1015000001F038F81020009001208DF80400002030
:101510008DF8060002208DF8050001208DF80700E7
:101520006946044800F088FDFFF73EFFFFF756FFCD
:101530001CBD0000000802409002414200004142F0
:1015400010B56248006820F44060604908600846B1
:10155000006840F48060086000205D490860142045
:1015600000F05CF901205B49C1F894021E2000F0F4
:101570000DF910BD10B500245448006820F44060F7
:101580005249086008460068086004E0601CC4B264
:10159000012000F0FBF84E488038006808B1642C48
:1015A000F4DB642C01DB012010BD002404E0601C8E
:1015B000C4B2012000F0EAF845488038006808B954
:1015C000642CF4DB642C01DB0120EDE70020EBE769
:1015D00010B5002404E0601CC4B2012000F0D6F86D
:1015E0003B488038006808B1642CF4DB002404E038
:1015F000601CC4B2012000F0C9F83548803800688A
:1016000008B9642CF4DB282000F0C0F8304880389A
:10161000006808B1012010BD0020FCE770B500246F
:10162000002506E06006040EFFF7D2FF0443681CA5
:10163000C5B2082DF6DB204670BD7CB505460E46CA
:10164000FFF77EFFFFF796FFF8B9002405E0FFF7EC
:10165000E5FF0DF80400601CC4B2052CF7DB9DF813
:1016600000009DF8011008449DF8021008449DF800
:10167000031008449DF80410884208D19DF800002A
:1016800030709DF80200287001E001207CBD002030
:10169000FCE71CB50121042000F06CFF2020009025
:1016A00001208DF8040000208DF8060002208DF83E
:1016B000050001208DF807006946044800F0BCFCD5
:1016C000FFF73EFFFFF756FF1CBD00000008024079
:1016D000940241420000414210B50121880702F006
:1016E00076F868B11B480078401C1A49087001213F
:1016F000880702F07DF800214FF0804001F038FCAF
:1017000010BD7FB505460C460121084600F07BFF61
:101710000195ADF800400020ADF80800ADF80200DA
:1017200069464FF0804001F09AFB01221146900774
:1017300002F036F81C208DF80C0000208DF80D000A
:1017400001208DF80E008DF80F0003A800F051F96C
:101750007FBD00001400002010B504466FF00400A7
:1017600000F094F9E11704EB5171C1F3C701394A54
:1017700011701046007800EB4001C1EBC0104FF62D
:10178000FF7101EAC0003449088010BD0146314AAA
:1017900012784A434FF0E0235A6100229A611A46B8
:1017A000126942F001021A6100BF4FF0E022106995
:1017B00000F001021AB100F48032002AF5D04FF097
:1017C000E022126922F001024FF0E0231A610022A8
:1017D0009A6170470146204A12884A434FF0E0233D
:1017E0005A6100229A611A46126942F001021A6196
:1017F00000BF4FF0E022106900F001021AB100F4BE
:101800008032002AF5D04FF0E022126922F0010266
:101810004FF0E0231A6100229A61704770B50446C8
:101820004FF4077094FBF0F0C6B24FF4077094FBCE
:10183000F0F100FB114085B205E04FF40770FFF7AF
:10184000C9FF701EC6B2002EF7D115B12846FFF7AA
:10185000C1FF70BD1600002018000020014600BF27
:10186000704700BF4C4A128802F04002002AF9D0AB
:10187000C2B2494B9A80704710B588B00446012126
:10188000084600F077FE0121102000F0CDFE07226F
:101890000921424800F05BFC07220A213F4800F082
:1018A00056FC4FF4C060069002208DF81C008DF8A5
:1018B0001D0000208DF81E0001208DF81F0006A9D4
:1018C000364800F0B9FB02940020ADF80C00ADF8EA
:1018D0000E00ADF81000ADF814000C20ADF81200A9
:1018E00002A92D4801F001F801212B4801F085F8EB
:1018F000012240F22551284801F035F925208DF8C4
:10190000040003208DF805008DF8060001208DF8F5
:10191000070001A800F06DF808B010BD10B540F246
:1019200025511D4801F05AF910B31B4801F094F8F5
:10193000C4B21B48008800F40040C8B918480088A9
:1019400000F4804060B10A2C03D0002014490880C4
:1019500020E01348008840F400401149088019E055
:101960000D2C06D10E48008840F480400C490880B8
:1019700010E00B480088C0F30D000A490C540848D9
:101980000088401C0649088008460088C72801DDF9
:101990000020088010BD000000100140000002403F
:1019A000200000203C0100200948804709480047EA
:1019B000FEE7FEE7FEE7FEE7FEE7FEE7FEE7FEE7FF
:1019C000FEE7FEE704480549054A064B704700005C
:1019D000010D000889010008E8090020E80F002037
:1019E000E80B0020E80B002032490143324A116025
:1019F000704770B5002100230F22C4781CB32E4C11
:101A0000246804F4E064C4F5E064C4F30721C1F180
:101A10000404E3B20A4144789C40E1B28478144063
:101A200021430C07210E254C05786155047804F0FC
:101A30001F050124AC4005786D11AD0005F1E025CE
:101A4000C5F8004109E0047804F01F050124AC400A
:101A50001B4D0678761145F8264070BD194A0A409C
:101A60000243154B1B1F1A60704739B1124A121DF1
:101A700012680243104B1B1D1A6006E00E4A121D2D
:101A8000126882430C4B1B1D1A607047042808D152
:101A90004FF0E021096941F004014FF0E0221161AB
:101AA00007E04FF0E021096921F004014FF0E02246
:101AB000116170470000FA050CED00E000E400E061
:101AC00080E100E080FFFF1F10B50121080200F057
:101AD00000FE00214FF4807000F0FBFD10BD30B51A
:101AE0000246002000235068F84C20400D790C6815
:101AF00044EA0524204350609068F54C2040D1E929
:101B000003542C438D682C434D7944EA450420430B
:101B10009060D06A20F470000C7D641EE4B2234310
:101B200040EA0350D06230BD002101600171417173
:101B30008160C16001610121017570470021E54AA2
:101B40001168E54A1140D0E900231A4383681A431B
:101B5000C3681A431143E14AC2F8041370470021D5
:101B6000016041608160C160704721B1826842F0CC
:101B70000102826003E0826822F001028260704705
:101B80000A4600214168D64B194011434160704715
:101B90004162826270470A460021416821F01F01BC
:101BA00011434160704738B1CA49096841F40001E6
:101BB000CA4AC2F8041306E0C649096821F40001C4
:101BC000C64AC2F80413704738B1C249096841F4E3
:101BD0008001C24AC2F8041306E0BE49096821F434
:101BE0008001BE4AC2F804137047F0B504460D46A2
:101BF00000200021092D11DDE068A5F10A0606EBA1
:101C00004607072606FA07F18843A5F10A0606EB00
:101C1000460603FA06F10843E0600CE0206905EB94
:101C20004507072606FA07F1884305EB450603FA40
:101C300006F108432061072A0FDA606B561E06EB97
:101C400086071F2606FA07F18843561E06EB86060E
:101C500005FA06F10843606322E00D2A0FDA206BD3
:101C6000D61F06EB86071F2606FA07F18843D61F04
:101C700006EB860605FA06F10843206310E0E06AE9
:101C8000A2F10D0606EB86071F2606FA07F1884328
:101C9000A2F10D0606EB860605FA06F10843E0629E
:101CA000F0BD816841F080418160704701460020AD
:101CB0008A6802F080420AB1012000E000207047EB
:101CC00021B1826842F48062826003E0826822F47B
:101CD00080628260704721B1826842F002028260B5
:101CE00003E0826822F002028260704710B50A4663
:101CF00000210023416821F46041531E41EA433131
:101D0000416010BD21B1426842F40062426003E0CC
:101D1000426822F40062426070470146C86C80B29B
:101D200070476C48001D0068704721B1826842F41A
:101D30008072826003E0826822F480728260704761
:101D400021B1826842F40072826003E0826822F46A
:101D500000728260704738B15E49096841F40051F1
:101D60005E4AC2F8041306E05A49096821F400519A
:101D70005A4AC2F804137047F0B5044615460020CD
:101D800000220026092911DDE068A1F10A0707EB0E
:101D9000470C072707FA0CF29043A1F10A0707EB5B
:101DA000470703FA07F21043E0600CE0206901EBFB
:101DB000410C072707FA0CF2904301EB410703FAA5
:101DC00007F210432061A06BC0F30156EF1C06F12F
:101DD000010CA7EB0C0707EB870C1F2707FA0CF287
:101DE0009043EF1C06F1010CA7EB0C0707EB8707EC
:101DF00001FA07F21043A063F0BD10B50A460021B6
:101E00000023816B21F44011531E41EA0351816389
:101E100010BD08B5002300930090009B0B44009375
:101E2000009B1A6008BD0A460021816821F47021D8
:101E30001143816070470A460021816821F44011F6
:101E4000114381607047816841F48001816070476F
:101E5000014600208A6802F480020AB1012000E0F5
:101E60000020704721B1426842F48062426003E082
:101E7000426822F480624260704721B1426842F4B5
:101E80008052426003E0426822F480524260704710
:101E900008B5024600200090009201F12800009B46
:101EA000184400900098006880B208BD10B50B4639
:101EB0000021D9B2012404FA01F11AB144680C439B
:101EC000446002E044688C43446010BDFFFEFFFCA8
:101ED000FDF7FFC004230140E030FCFF002001407B
:101EE000FFFD3FFF0246002013680B400BB10120AD
:101EF00000E000207047CA430260704770B5024698
:101F00000020002300240B12556801268E4005EAAC
:101F1000060415681D4015B10CB1012000E0002039
:101F200070BD00220A12D3430360704710B5044607
:101F30009848844208D10121084600F086FB002120
:101F4000012000F082FB76E09348844208D1012111
:101F5000022000F07AFB0021022000F076FB6AE00C
:101F60008E48844208D10121042000F06EFB00213C
:101F7000042000F06AFB5EE08948844208D1012118
:101F8000082000F062FB0021082000F05EFB52E018
:101F90008448844208D10121102000F056FB002122
:101FA000102000F052FB46E07F48844208D1012116
:101FB000202000F04AFB0021202000F046FB3AE000
:101FC0007A48844208D10121402000F03EFB0021E4
:101FD000402000F03AFB2EE07548844208D10121F0
:101FE000802000F032FB0021802000F02EFB22E058
:101FF0007048844208D10121801500F026FB0021A1
:10200000A01500F022FB16E06B48844208D10121A4
:10201000401500F01AFB0021601500F016FB0AE0E5
:102020006648844207D10121001500F00EFB002113
:10203000201500F00AFB10BDF0B50A460021002370
:10204000002400BF3DE0012505FA01F3156805EA0B
:1020500003049C4234D105684F000326BE40B543BB
:10206000056015794E00B540066835430560157961
:10207000012D02D01579022D16D185684F00032657
:10208000BE40B543856055794E00B54086683543FE
:102090008560456801268E40B54345604568967960
:1020A0008E40B6B235434560C5684F000326BE403A
:1020B000B543C560D5794E00B540C6683543C560A7
:1020C000491C1029BFD3F0BD4FF6FF7101600021FC
:1020D000017141718171C171704708B54FF480324F
:1020E0000092009A0A430092009AC261C161009A6C
:1020F000C261C2690092C269009208BD0246002016
:1021000013690B400BB1012000E00020704701462D
:10211000086980B270470246002053690B400BB13A
:10212000012000E0002070470146486980B27047F6
:1021300001837047418370470AB1018300E0418306
:1021400070474161704742694A4042617047F0B54B
:10215000002300244D07ED0E02FA05F3CE1000F126
:10216000200555F826504E07F70E0F26BE40B54302
:10217000CF1000F1200646F82750CE1000F12005C0
:1021800055F8265045EA0304CE1000F1200545F825
:102190002640F0BD0000024000040240000802405A
:1021A000000C0240001002400014024000180240DF
:1021B000001C02400020024000240240002802408F
:1021C000F948006840F00100F74908600020F6492E
:1021D00008310860F4480068F4490840F249086092
:1021E000F348091D0860F348EF4984310860F0485E
:1021F0001038091D0860EC48006820F48020EA4986
:1022000008600020E8490C310860E7498C3108601B
:1022100070470021E44A921C117011460870704703
:1022200010B501460022002300204A11012A02D1E4
:10223000DD4C236808E0022A03D1DB4C70342368AC
:1022400002E0D94C7434236801F01F020124944049
:102250001C400CB1012000E0002010BD38B500206A
:1022600000900024002500BF3120FFF7D9FF05466C
:102270000098401C00900098B0F5A04F01D0002DB0
:10228000F2D03120FFF7CCFF08B1012400E0002498
:10229000204638BD01460020C34A106820F0F800EF
:1022A00040EAC10010607047C349086070470021D0
:1022B000BD4A703211701170012802D004280AD171
:1022C00004E00121B84A7032117005E00521B64AD8
:1022D0007032117000E000BF00BF7047B74908605E
:1022E000704770B5049C41EA82150126C6EB53067F
:1022F00045EA0645054345EA0465AB4E361D3560A3
:1023000070BDAD4908667047820142EA0172A64B72
:1023100084331A607047A8498866704710B58301F6
:1023200043EA016343EA02739F4C8834236010BD83
:10233000A14908677047A049C86470470246002059
:10234000994B0833186820F0EC6042EA0103184307
:10235000954B08331860704702460020924B0833B3
:10236000186820F0784042EA010318438E4B083386
:1023700018607047014600208B4A0832106820F030
:10238000030008431060704787480830006800F079
:102390000C00704701460020834A0832106820F084
:1023A000F000084310607047014600207E4A083262
:1023B000106820F4E0500843106070470146002088
:1023C000794A0832106820F4604040EAC100106089
:1023D0007047F0B5002100220024022500260223C8
:1023E000714F08373F6807F00C0121B1042905D06F
:1023F000082937D105E0724F076036E0714F07605A
:1024000033E0694F3F1D3F68C7F38056664F3F1D5D
:102410003F6807F03F036EB16A4FB7FBF3F7DFF891
:1024200088C10CF1040CDCF800C0CCF3881C07FB5D
:102430000CF40CE0624FB7FBF3F7DFF86CC10CF162
:10244000040CDCF800C0CCF3881C07FB0CF4564FDE
:102450003F1D3F68C7F301477F1C7D00B4FBF5F7C4
:10246000076002E0564F076000BF00BF4E4F0837BD
:102470003F6807F0F0010909534F7A5C0768D740BD
:102480004760494F08373F6807F4E051890A4E4FCB
:102490007A5C4768D7408760434F08373F6807F446
:1024A0006041490B484F7A5C4768D740C760F0BD30
:1024B000002100F44072B2F5407F0AD13A4A083256
:1024C000116821F4F811414A02401143364A08329A
:1024D0001160354A70321268C0F30B031A43324B55
:1024E00070331A6070473549443908607047334982
:1024F000403908607047364908607047014600203F
:10250000294A8C32106820F01F004A1E1043264AC8
:102510008C321060704701460020234A8C321068CC
:1025200020F4F8504A1E40EA02201F4A8C32106004
:102530007047014600201C4A8C32106820F440107D
:1025400008431060704701460020174A8C3210681B
:1025500020F4400008431060704701460020124AF2
:102560008C32106820F440300843106070471949DD
:102570000860704739B10C4A3032126802430A4B86
:1025800030331A6006E0084A303212688243064B44
:1025900030331A607047F9B1034A3432126802438B
:1025A000014B34331A601CE000380240FFFFF6EAAA
:1025B000103000240030002000004742800E4742C7
:1025C0000024F40000127A0022000020FFFCFF0F1C
:1025D0005C014742E01147428F4A126882438E4BAA
:1025E0001A60704739B18C4A121D126802438A4B37
:1025F0001B1D1A6006E0884A121D12688243864B32
:102600001B1D1A60704739B1834A0C3212680243AD
:10261000814B0C331A6006E07F4A0C321268824309
:102620007D4B0C331A60704739B17B4A1032126807
:102630000243794B10331A6006E0774A1032126871
:102640008243754B10331A60704739B1724A243A8D
:1026500012680243704B243B1A6006E06E4A243A2B
:10266000126882436C4B243B1A60704739B16A4A46
:10267000203A12680243684B203B1A6006E0664A23
:10268000203A12688243644B203B1A60704739B18C
:10269000614A1C3A126802435F4B1C3B1A6006E019
:1026A0005D4A1C3A126882435B4B1C3B1A607047C0
:1026B00039B1594A143A12680243574B143B1A6015
:1026C00006E0554A143A12688243534B143B1A6091
:1026D000704739B1504A103A126802434E4B103BD2
:1026E0001A6006E04C4A103A126882434A4B103B8B
:1026F0001A60704739B1484A1C3212680243464B8F
:102700001C331A6006E0444A1C3212688243424B72
:102710001C331A60704739B13F4A203212680243B5
:102720003D4B20331A6006E03B4A20321268824358
:10273000394B20331A60704739B1374A2432126856
:102740000243354B24331A6006E0334A24321268C0
:102750008243314B24331A60704739B12E4A2C32F0
:10276000126802432C4B2C331A6006E02A4A2C32A2
:1027700012688243284B2C331A60704739B1264ABD
:10278000303212680243244B30331A6006E0224A8A
:10279000303212688243204B30331A607047012870
:1027A00008D11D493C31096841F008011A4A3C3200
:1027B000116007E018493C31096821F00801164A08
:1027C0003C321160704739B1134A273A12780243FC
:1027D000114B273B1A7006E00F4A273A12788243C2
:1027E0000D4B273B1A7070470B484030006840F093
:1027F0008070094940310860704701460020064A50
:10280000283A12680A400AB1012000E0002070470F
:1028100001492639087070473438024010B5044623
:10282000FA48844208D101211020FFF752FF00210D
:102830001020FFF74EFF57E0F548844209D10121EF
:102840004804FFF735FF00214FF40030FFF730FF59
:102850004AE0F048844209D101218804FFF728FFAB
:1028600000214FF48020FFF723FF3DE0EA48844237
:1028700009D10121C804FFF71BFF00214FF40020FC
:10288000FFF716FF30E0E548844209D10121080531
:10289000FFF70EFF00214FF48010FFF709FF23E040
:1028A000DF48844208D101212020FFF712FF0021D8
:1028B0002020FFF70EFF17E0DA48844209D10121FA
:1028C0008807FFF7F5FE00214FF08040FFF7F0FE8C
:1028D0000AE0D548844207D101214005FFF7E8FE10
:1028E00000216005FFF7E4FE10BD2DE9FF47054616
:1028F0000E460024A14600BFA046B08900B100BF2B
:102900002C8A24F44054F08804432C82AC8941F290
:102910000C608443B08831890843718908430443BB
:10292000AC81AC8A24F44074B0890443AC8268461C
:10293000FFF74FFDB548854202D0B948854202D124
:10294000DDF80C9001E0DDF80890A88900F4004063
:1029500040B109EBC90000EB091031684900B0FB38
:10296000F1F707E009EBC90000EB091031688900B5
:10297000B0FBF1F76420B7FBF0F0040120096421FB
:1029800001FB1078A88900F4004040B1322000EB30
:10299000C800B0FBF1F000F00700044308E032206B
:1029A00000EB08106421B0FBF1F000F00F000443CD
:1029B0002C81BDE8FF874FF4165101600021818012
:1029C000C18001810C21418100218181704710B5B6
:1029D00002460020108A20F470600B884C88234344
:1029E0008C882343CC8823431843108210BD0021D8
:1029F000018041808180C180704721B1828942F489
:102A00000052828104E082894DF6FF731A40828170
:102A10007047028B02F47F420283028B0A430283D7
:102A2000704721B1828942F40042828103E08289A9
:102A3000C2F30E028281704721B1828A42F40062A1
:102A4000828204E0828A4FF2FF731A4082827047CA
:102A5000C1F308028280704701468888C0F30800ED
:102A60007047028A4FF6F0731A400282028A0A43C4
:102A70000282704721B1828942F00202828104E021
:102A800082894FF6FD731A408281704782894FF226
:102A9000FF731A40828182890A4382817047028AC9
:102AA0004FF6DF731A400282028A0A43028270479D
:102AB00021B1028A42F48042028204E0028A4BF68B
:102AC000FF731A4002827047818941F001018181C0
:102AD000704721B1828A42F00802828204E0828A31
:102AE0004FF6F7731A4082827047028BD2B202838C
:102AF000028B42EA01220283704721B1828A42F0AE
:102B00002002828204E0828A4FF6DF731A408282BA
:102B1000704721B1828A42F01002828204E0828AE8
:102B20004FF6EF731A4082827047828A4FF6FB732A
:102B30001A408282828A0A438282704721B1828A45
:102B400042F00202828204E0828A4FF6FD731A404C
:102B5000828270471AB1838A0B43838202E0838AA0
:102B60008B4383827047F0B503460024002600257E
:102B7000002040F66A17B94200D100BF1846C1F3E1
:102B8000421401F01F06012707FA06F5012C01D1B6
:102B90000C3004E0022C01D1103000E014301AB1E6
:102BA00007682F43076002E00768AF430760F0BD86
:102BB00002460020B1F5007F00D100BF13880B4012
:102BC0000BB1012000E00020704701F40072B2F563
:102BD000007F00D100BFCA430280704770B5024633
:102BE000002400230025002040F66A16B14200D1DF
:102BF00000BFC1F3421501F01F03012606FA03F3DB
:102C0000012D13D19689334017E0000000100140D8
:102C10000044004000480040004C0040005000408C
:102C20000014014000780040007C0040022D02D1D9
:102C3000168A334001E0968A33400C12012606FAC8
:102C400004F41688344013B10CB1012000E00020D8
:102C500070BD10B50022002340F66A14A14200D1D5
:102C600000BF0A1201249440A3B2DC43048010BDCB
:102C700010B501218803FFF72CFD00214FF480409F
:102C8000FFF727FD10BD1C49086070471B4908620B
:102C9000704730B500228B071C0F0F2303FA04F294
:102CA000154B08338C1053F824309343124C0834DE
:102CB0008D1044F8253023468C1053F824308C07AF
:102CC000240F00FA04F423430B4C08348D1044F80D
:102CD000253030BD0949DC3108607047084908607B
:102CE0007047002004492031096801F4807109B15E
:102CF000012000E00020704700380140000027421A
:102D00000004274210B50446FE48844208D1012140
:102D10000846FFF7DEFC00210120FFF7DAFC9DE00A
:102D2000B4F1804F08D101210846FFF7C1FC002112
:102D30000120FFF7BDFC91E0F348844208D1012156
:102D40000220FFF7B5FC00210220FFF7B1FC85E06F
:102D5000EE48844208D101210420FFF7A9FC00219C
:102D60000420FFF7A5FC79E0E948844208D101215D
:102D70000820FFF79DFC00210820FFF799FC6DE07B
:102D8000E448844208D101211020FFF791FC002182
:102D90001020FFF78DFC61E0DF48844208D101215B
:102DA0002020FFF785FC00212020FFF781FC55E063
:102DB000DA48844208D101210220FFF78AFC002171
:102DC0000220FFF786FC49E0D548844209D1012161
:102DD0000804FFF77EFC00214FF48030FFF779FCF8
:102DE0003CE0D048844209D101214804FFF771FC3E
:102DF00000214FF40030FFF76CFC2FE0CA488442FA
:102E000009D101218804FFF764FC00214FF48020E0
:102E1000FFF75FFC22E0C548844208D10121402031
:102E2000FFF746FC00214020FFF742FC16E0C048B7
:102E3000844208D101218020FFF73AFC0021802044
:102E4000FFF736FC0AE0BB48844207D10121801518
:102E5000FFF72EFC0021A015FFF72AFC10BD002271
:102E60000288A84B98420ED0AC4B98420BD0B0F1E0
:102E7000804F08D0A44B984205D0A44B984202D072
:102E8000A34B984204D14FF68F731A404B881A43D4
:102E9000A04B984207D0A04B984204D04FF6FF4376
:102EA0001A400B891A4302804B68C3620B88038562
:102EB000944B984202D0994B984201D18B7A038669
:102EC0000123838270474FF0FF3141600021018070
:102ED00001814180817270470185828270470A4674
:102EE000002101884FF68F7319401143018070470C
:102EF00041627047C16270470146486A70470146A7
:102F0000088D704721B1028842F00202028004E07D
:102F100002884FF6FD731A400280704721B1028883
:102F200042F00402028004E002884FF6FB731A406C
:102F30000280704721B1028842F08002028004E0E2
:102F400002884FF67F731A400280704702884FF65E
:102F5000F7731A40028002880A4302807047028891
:102F60004FF6FF431A40028002880A4302807047EE
:102F700021B1028842F00102028004E002884FF68B
:102F8000FE731A400280704770B5002400220023AF
:102F9000058C4FF6FE7635400584028C8388048BC1
:102FA0004FF68F752C40B51E2C400D882C43751E96
:102FB0002A408D892A434D882A43524DA84202D087
:102FC000564DA84213D14FF6F7752A40CD892A43B2
:102FD0004FF6FB752A408D882A434FF6FF652B403C
:102FE0004FF6FF552B400D8A2B434D8A2B43838090
:102FF00004838D684563028470BD70B5002400228F
:103000000023058C4FF6EF7635400584028C8388CB
:10301000048B48F6FF752C404FF6FF452C400D8879
:103020004FF6FF7606EA05252C434FF6DF752A405A
:103030008D8906EA05152A434D8806EA05152A43B7
:10304000304DA84202D0354DA8421DD14FF67F75B4
:103050002A40CD894FF6FF7606EA05152A434FF63A
:10306000BF752A408D8806EA05152A434FF6FF35BD
:103070002B404FF2FF752B400D8A06EA85052B4346
:103080004D8A06EA85052B43838004838D6885631A
:10309000028470BD70B5002400220023058C4FF619
:1030A000FF6635400584028C8388848B4FF68F75CC
:1030B0002C404FF6FC752C400D882C434FF6FF55E5
:1030C0002A408D894FF6FF7606EA05252A434D886A
:1030D00006EA05252A430B4DA84202D00F4DA8420F
:1030E00038D14FF2FF752A40CD894FF6FF7606EAB8
:1030F00005252A434FF6FF352A408D8806EA052527
:103100002A4319E00000014000040040000800408C
:10311000000C00400010004000140040000401407A
:1031200000400140004401400048014000180040B8
:10313000001C0040002000404EF6FF752B404DF66D
:10314000FF752B400D8A06EA05152B434D8A06EACA
:1031500005152B43838084838D68C563028470BD0D
:1031600070B5002200230024058C4EF6FF76354012
:103170000584038C8488828B48F6FF752A404FF6BD
:10318000FF452A400D884FF6FF7606EA05252A43BB
:103190004DF6FF752B408D8906EA05352B434D888A
:1031A00006EA05352B43FE4DA84202D0FD4DA8424C
:1031B00008D14BF6FF752C400D8A4FF6FF7606EAD4
:1031C00085152C43848082838D680564038470BDDB
:1031D000002101804180818081608181C1810182E3
:1031E0004182704770B5034600200024184618300D
:1031F00001258D40ACB21D8CA5431D8409B1082961
:103200000AD100EB610005684FF68F763540056006
:103210000568154305600FE00D1FC5F34E052844F2
:10322000056848F6FF763540056005684FF6FF767D
:1032300006EA02263543056070BD4163704781632D
:103240007047C1637047016470470A460021018BD3
:103250004FF68F7319401143018370470A460021CE
:10326000018B48F6FF7319404FF6FF7303EA022300
:103270001943018370470A460021818B4FF68F73F3
:1032800019401143818370470A460021818B48F61B
:10329000FF7319404FF6FF7303EA0223194381833A
:1032A00070470A460021018B4FF6F773194011430E
:1032B000018370470A460021018B4FF2FF731940CA
:1032C0004FF6FF7303EA02231943018370470A464E
:1032D0000021818B4FF6F7731940114381837047AA
:1032E0000A460021818B4FF2FF7319404FF6FF739E
:1032F00003EA02231943818370470A460021018BA8
:103300004FF6FB7319401143018370470A460021B1
:10331000018B4FF6FF3319404FF6FF7303EA022388
:103320001943018370470A460021818B4FF6FB73D6
:1033300019401143818370470A460021818B4FF663
:10334000FF3319404FF6FF7303EA022319438183C9
:1033500070470A460021018B4FF67F7319401143D5
:10336000018370470A460021018BC1F30E014FF61D
:10337000FF7303EA02231943018370470A460021C1
:10338000818B4FF67F7319401143818370470A4642
:103390000021818BC1F30E014FF6FF7303EA022374
:1033A0001943818370470A460021018C4FF6FD7353
:1033B00019401143018470470A460021018C4FF6E1
:1033C000F77319401143018470470A460021018CAC
:1033D0004FF6DF7319404FF6FF7303EA02131943E8
:1033E000018470470A460021018C4FF67F73194013
:1033F0004FF6FF7303EA02131943018470470A462C
:103400000021018C4FF6FF5319404FF6FF7303EA7A
:1034100002231943018470470A460021018C4FF2B0
:10342000FF7319404FF6FF7303EA02231943018427
:1034300070470A460021018C4DF6FF7319404FF684
:10344000FF7303EA023319430184704730B5002348
:1034500001248C40A3B2048C9C430484048C02FAA3
:1034600001F5ADB22C43048430BD30B500230424F3
:103470008C40A3B2048C9C430484048C02FA01F5B2
:10348000ADB22C43048430BD828B4FF2FF331A401F
:103490008283828B4FF6FF7303EA01231A438283F0
:1034A0007047F0B50C461546002100220026078C17
:1034B0004EF6FF7C07EA0C070784818B028C4FF6DF
:1034C000FF7707EA043640F6FF4739404FF6FF77AB
:1034D00007EA052739434FF6FF7707EA03373943F1
:1034E00045F6FF773A4046F480573A438183028499
:1034F000F0BD828B4FF6F3731A408283828B0A43AE
:1035000082837047F0B50C46154600210022002644
:10351000078C4FF6FF6C07EA0C070784818B028C3F
:103520004FF6FF7707EA04264FF60C7739404FF63F
:10353000FF7707EA03172F4339434FF2FF573A400B
:1035400046F480773A4381830284F0BD028B4FF2C8
:10355000FF331A400283028B4FF6FF7303EA012305
:103560001A4302837047F0B50C461546002100222D
:103570000026078C4FF6EF7C07EA0C070784018BC7
:10358000028C4FF6FF7707EA041640F6FF473940F2
:103590004FF6FF7707EA033739434FF6FF7703E02B
:1035A000000001400004014007EA052739434FF6B7
:1035B0005F773A4046F010073A4301830284F0BD3A
:1035C000028B4FF6F3731A400283028B0A43028385
:1035D0007047F0B50C46154600210022068C4FF6C8
:1035E000FE773E400684018B028C4FF60C7631400C
:1035F0007E1C06EA03162E4331434FF6F576324021
:1036000044F00106324301830284F0BD70B50546E3
:103610000C46208850B92389A28861882846FFF784
:10362000D8FFE1882846FFF7CBFF25E02088042853
:103630000AD12389A28861882846FFF794FFE18890
:103640002846FFF783FF17E0208808280AD123893E
:10365000A28861882846FFF755FFE1882846FFF7D2
:1036600048FF09E02389A28861882846FFF719FFEF
:10367000E1882846FFF708FF70BD002101804180E6
:10368000012181800021C180018170472DE9F04135
:1036900005460C4600260127608808B9022600E08E
:1036A0000026A088012801D1022700E001272088F8
:1036B000A0B92389A28861882846FFF78AFFE1889C
:1036C0002846FFF77DFF23893A4631462846FFF713
:1036D0004AFFE1882846FFF739FF13E02389A288D3
:1036E00061882846FFF73FFFE1882846FFF72EFF55
:1036F00023893A4631462846FFF76BFFE188284682
:10370000FFF75EFFBDE8F0810146486B7047014658
:10371000886B70470146C86B70470146086C70475C
:103720000A884B881A438B881A43CB881A430B8923
:103730001A434B891A438B891A43A0F844207047D7
:103740000021018041808180C1800181418181818E
:10375000704731B1B0F8442042F40042A0F8442050
:1037600005E0B0F84420C2F30E02A0F844207047F0
:1037700021B1828842F00402828004E082884FF600
:10378000FB731A408280704721B1828842F00102A7
:10379000828004E082884FF6FE731A408280704770
:1037A0001AB183890B43838102E083898B43838130
:1037B00070478182704702460020138A0B400BB18C
:1037C000012000E000207047CA430282704730B5F4
:1037D0000246002000230024158A05EA010395898A
:1037E00005EA010413B10CB1012000E0002030BD56
:1037F000CA430282704741EA0203A0F8483070478A
:103800001AB183890B43838102E083898B438381CF
:10381000704721B1828842F00802828004E08288E9
:103820004FF6F7731A408280704701894FF6F8729D
:103830001140018170470A46002101894FF68F73BC
:10384000194011430181704730B504460D462946A1
:103850002046FFF7F0FF208940F00700208130BDAF
:103860002DE9F04104460D4616461F46602D06D14F
:103870003B46012231462046FFF775FE05E03B46F8
:10388000012231462046FFF7A4FE29462046FFF7D5
:10389000D2FF208940F007002081BDE8F08130B5DB
:1038A0000C4600210189C9B24FF6FF7505EA0325D0
:1038B000154325432943018130BD2DE9F0410546DB
:1038C0000E4617469846002443463A463146284657
:1038D000FFF7E5FF2C894FF6F870044044F0070429
:1038E0004FF68F70044044F070042C81BDE8F081E5
:1038F000F0B504460D4616461F463B46324629465D
:103900002046FFF7CCFF208940F480402081F0BDA5
:1039100082884FF68F731A40828082880A438280A1
:10392000704702894FF6F8731A40028102890A43F0
:103930000281704702894FF67F731A400281028923
:103940000A4302817047F0B50C4615461E46002119
:10395000002200230189028B038C4FF6F87739404F
:1039600021434FF6FC473A4040F201173A434FF6E5
:10397000DD773B404FF6FF7707EA06172F433B43BF
:10398000018102830384F0BD21B1828842F080026C
:10399000828004E082884FF67F731A4082807047ED
:1039A000A0F8501070470000002041490860091D30
:1039B0000860091D0860091D08603E483C49143133
:1039C0000860704700213A498279002A3AD00A46B5
:1039D000126803689A430B461A600A1D126803684E
:1039E0009A430B1D1A60027911440A6803681A434E
:1039F0000A602F4A0832126803689A432C4B083336
:103A00001A601A1D126803689A43294B0C331A6016
:103A10004279102A0ED11A1F126803681A43244BE8
:103A200008331A601A1D126803681A43204B0C33BE
:103A30001A600DE01E49427911440A6803681A436E
:103A40000A6005E0027911440A6803689A430A6033
:103A500070470021016001710C21417100218171C9
:103A600070471349103109680143114A103211603F
:103A70007047014600200E4A143212680A400AB10B
:103A8000012000E0002070470949143108607047A8
:103A900001460020064A143212680A400AB1012089
:103AA00000E00020704702491431086070470000B0
:103AB000003C0140FFFF7F00016821F0010101602F
:103AC0000021016041608160C1600161212141618B
:103AD000DB49884204D13D21D94A103A91608CE0FB
:103AE000D7491831884205D14FF47461D44A103A4D
:103AF000916082E0D2493031884205D14FF474118F
:103B0000CF4A103A916078E0CD494831884205D1DA
:103B10004FF07461CA4A103A91606EE0C849603152
:103B2000884204D1C749C64A103AD16065E0C44909
:103B30007831884204D1C449C14A103AD1605CE06E
:103B4000BF499031884204D1C049BD4A103AD16082
:103B500053E0BB49A831884205D14FF03D51B84AE6
:103B6000103AD16049E0BA49884204D13D21B84AAF
:103B7000083A116041E0B6491831884205D14FF446
:103B80007461B34A083A116037E0B1493031884274
:103B900005D14FF47411AE4A083A11602DE0AC49DA
:103BA0004831884205D14FF07461A94A083A116042
:103BB00023E0A7496031884204D1A249A44A121FD8
:103BC00011601AE0A2497831884204D19E49A04A86
:103BD000121F116011E09E499031884204D19B4927
:103BE0009B4A121F116008E09949A831884204D10C
:103BF0004FF03D51964A121F1160704710B50022D8
:103C00000268944B1A40CC680B6823434C692343E9
:103C10008C692343CC6923430C6A23434C6A2343B6
:103C20008C6A23434C6B23438C6B23431A430260FF
:103C3000426922F00702D1E90B3423431A4342615F
:103C40000B6943604B6883608B68C36010BD0021C3
:103C5000016041608160C160016141618161C16158
:103C6000016241628162C1620163416381637047A5
:103C700021B1026842F00102026003E0026822F012
:103C800001020260704721B1026842F40042026002
:103C900003E0026822F400420260704721B102682A
:103CA00042F02002026003E0026822F0200202607B
:103CB0007047416070470146486880B2704722B142
:103CC000036843F40023036003E0036823F4002344
:103CD00003600161704721B1026842F480220260F2
:103CE00003E0026822F48022026070470AB1016199
:103CF00000E0C1607047014600200A6802F400221B
:103D00000AB1012000E000207047014600200A6847
:103D100002F001020AB1012000E0002070470146D4
:103D200000204A6902F03800704730B503460A4661
:103D300000200024464DAB4202D24149103901E037
:103D40004349103902F000550DB14C6800E00C6891
:103D5000414D2C4004EA02050DB1012000E0002095
:103D600030BD02463A4B9A4202D23548103801E043
:103D70003748103801F000531BB1374B0B40C3607C
:103D800002E0354B0B408360704710B501F08003B3
:103D90004BB122B1436943F08003436103E04369BF
:103DA00023F08003436180290BD02AB1036801F01E
:103DB0001E042343036004E0036801F01E04A343D0
:103DC000036010BD70B50246002000240025204E7F
:103DD000B24202D21A4B103B01E01D4B103B1F4E6A
:103DE0000E4036B11E2606EAD124166806EA0405FE
:103DF00002E0566906F0800501F000560EB15C68DD
:103E000000E01C68144E344004EA010616B10DB1FE
:103E1000012000E0002070BD02460D4B9A4202D204
:103E20000748103801E00A48103801F000531BB170
:103E3000094B0B40C36002E0074B0B4083607047A7
:103E4000106002403D000020400F002000003D2097
:103E5000106402403F801CF07D0F7D0F3C0F3C0F33
:103E60002DE9F04704460F460026B146B04626E04D
:103E700017F8085006EB4601601C00EB411248465B
:103E8000411C01F0FF091554BAF10D0F13D10A2D91
:103E900011D1B9F1020F02D14FF000090DE000215C
:103EA00006EB4602601C00EB4212A9F1020011541D
:103EB000701CC6B28946AA4600BF08F10108384600
:103EC00001F055F84045D3D8002106EB4602601CAE
:103ED00000EB421001700020BDE8F08710B540F201
:103EE0002551F848FEF77AFE18B3F648001D008801
:103EF000C4B2F548008800F40040D0B9F248008808
:103F000018B9F148008800210180EF480088802816
:103F100010D20020ED4908600121EC482438FFF759
:103F200027F8E94801880088401CE74A1080E848E3
:103F3000445405E0E448008840F40040E249088029
:103F400010BD10B5E0480088C0F30E0028B1DE486F
:103F5000008840F40040DC4908800121DB48243817
:103F6000FFF746FC0021D9482438FFF701F810BDBF
:103F70007FB505460C4601212020FEF744FB019544
:103F8000ADF800400020ADF80800ADF80200694629
:103F9000CE482438FEF763FF01221146CB4824386F
:103FA000FFF7FEFB37208DF80C0000208DF80D0088
:103FB00001208DF80E008DF80F0003A8FDF719FD04
:103FC0007FBD10B588B0044601210846FEF7D2FA3D
:103FD00001214804FEF717FBBA48FEF71FFC072231
:103FE0000221BC48FEF7B3F807220321B948FEF7C7
:103FF000AEF80C20059002208DF818008DF81900FD
:1040000000208DF81A0001208DF81B0005A9B14889
:10401000FEF712F801940020ADF80800ADF80A0090
:10402000ADF80C00ADF810000C20ADF80E0001A9A1
:10403000A448FEF75AFC0121A248FEF7DEFC01224B
:1040400040F225519F48FEF78EFD26208DF81C007A
:1040500002208DF81D0003208DF81E0001208DF830
:104060001F0007A8FDF7C5FC08B010BD10B502463B
:1040700000200CE000BF934B1B8803F04003002B93
:10408000F9D0135C8F4C241D2380431C98B28842C6
:10409000F0DB10BD10B54FF41650FFF792FF40F261
:1040A000E73140F24730FFF763FF10BD70B50546BA
:1040B0000C461646B4F5806F04D987A000F010FEB8
:1040C000002070BDA1B22846FFF7D0FF2046F8E7D8
:1040D00070B5044600257C48008800F4004058B1C3
:1040E000002079490988C1F30E01794A50542146CC
:1040F000104600F02AFF0546284670BD10B504465C
:104100007CA1204600F021FF18B121467BA000F0E1
:10411000E7FD012010BD2DE9F04704460F46154686
:104120001E464FF00008C14600206749088020461F
:1041300000F01DFF80280AD9204600F018FF8246B3
:10414000514671A000F0CCFD0220BDE8F087FF2CA5
:104150000AD800BF5B48008800F040000028F9D072
:104160005849091D0C800AE022466EA16E4800F0F5
:10417000C3FD1FFA80F949466B48FFF777FF002F10
:1041800043D0002D41D038E00A20FDF747FB4E48D0
:10419000008800F4004078B33846FFF7AFFF58B30B
:1041A0003846FFF795FF80B147480088C0F30E02FC
:1041B0004749304600F045FF002043490988C1F3D4
:1041C0000E017054404908801BE058A0FFF780FFA3
:1041D00090B13D480088C0F30E023D49304600F0E2
:1041E00030FF002038490988C1F30E017054364968
:1041F00008804FF0020804E0FFE7681E80B2051E49
:10420000C2D100BF0DB94FF0010840469DE770B51F
:1042100004462D48008800F40040B0F5004F19D145
:104220002948008820F40040274908800846008873
:10423000A4F88600084602882549601D00F001FFA9
:10424000002021490880002500E06D1C052DFCDBC5
:10425000002070BD0120FCE72DE9F04106460C4628
:10426000154600271848008800F4004010B90220C5
:10427000BDE8F08116B30CB300BF0A20FDF7CEFAFB
:104280001148008800F40040C8B13046FFF736FFFF
:10429000A8B13046FFF71CFF90B10B480088C0F36F
:1042A0000E020B49284600F0CCFE00200649098882
:1042B000C1F30E0168540449088043E045E03DE045
:1042C00038E0000000440040320000202414004088
:1042D00004020020000002404E4241545F73656EAC
:1042E00064206C656E206973206572726F720D0AAE
:1042F000000000002B4E534F4D4900007265737053
:104300006F6E733A202573004E4241545F73656EA1
:1043100064436D64204C656E2069732025640D0A2A
:104320000000000025730000840200204552524F17
:1043300052000000AFF20C00FFF7CAFE601E80B210
:10434000041E9AD100BF04B90127384690E710B582
:1043500000240848008800F4004040B106A1084845
:1043600000F0F3FD18B18021054800F0AFFE0020F9
:1043700010BD0000320000202B4E4E4D49000000C1
:104380000402002070B506460D46002410E0305DA2
:10439000F74901EB2010017805F81410305D00F0AA
:1043A0000F00F349095C6000401C2954601C84B272
:1043B000304600F0DCFD80B2A042E8DC002105F8C8
:1043C000141070BD2DE9F04105460E461746002435
:1043D000A046284600F0CBFD00F0010010B10120FE
:1043E000BDE8F08140E04FF00008285D302807DB91
:1043F000285D392804DC285D303800F0FF0817E01C
:10440000285D412807DB285D462804DC285D373815
:1044100000F0FF080CE0285D612807DB285D6628B6
:1044200004DC285D373800F0FF0801E00220D7E700
:10443000204604EBD0714910A4EB410139B94FEA91
:104440000871090E04EBD0725210B1540AE02046F4
:1044500004EBD0714910715C41EA080104EBD072A1
:104460005210B154601C84B2284600F080FD80B226
:10447000A042B8DC284600F07AFD400838600020F1
:10448000AEE72DE9F04707460D461646A8463C46DE
:10449000284600F06CFD81464E4500DD4E4603E0A7
:1044A00018F8010B04F8010B301EA6F10106F7D134
:1044B00004F8010B3846BDE8F0872DE9F047804647
:1044C0000C4615462646C146204600F050FD0746DC
:1044D000BD4200DD3D46781B064400BF16F8011BB7
:1044E00009F8011B0029F9D14046BDE8F0872DE904
:1044F000F04104460D4616469846284600F037FD22
:104500000746BE4201DA002E02DA0120BDE8F08142
:10451000B84501DDA7EB0608354403E015F8010BAB
:1045200004F8010BB8F10000A8F10108F6D104F875
:10453000010B00BFEAE710B5FFF7ACFD10BD10B5E9
:1045400000248C4B64228CA18CA0FFF7E4FD044670
:1045500034B98CA000F0C4FB864994A000F0C0FBE5
:10456000204610BD10B50024824B642295A198A06E
:10457000FFF7D1FD044614B998A000F0B1FB204626
:1045800010BD10B500247B4B64227BA17BA0FFF7FC
:10459000C2FD044614B999A000F0A2FB204610BD4C
:1045A00010B50024734B642273A19CA0FFF7B3FDE8
:1045B000044614B99CA000F093FB204610BD10B532
:1045C00000246C4B64226CA1A0A0FFF7A4FD04465C
:1045D00034B9A1A000F084FB664974A000F080FB10
:1045E000204610BD10B50024624B6422A3A1A4A0F4
:1045F000FFF791FD04463CB9A4A000F071FB5D49B2
:104600006AA000F06DFB06E0A9A000F069FB594923
:1046100066A000F065FB204610BD10B50024554B88
:10462000642255A1A9A0FFF776FD04463CB9ABA0D2
:1046300000F056FB4F495DA000F052FB06E09CA045
:1046400000F04EFB4B4959A000F04AFB204610BD3C
:1046500070B504460025474B642247A1A8A0FFF788
:104660005AFD0546A5B94348007A30384149C97911
:10467000303901EB810100EB4100C6B2632E04D159
:10468000A2A000F02DFB032070BD04B1267002E053
:1046900087A000F025FB2846F6E770B5002400252A
:1046A0000026344B642234A19DA0FFF734FD04465C
:1046B000002C13D19DA000F013FB2E493BA000F06D
:1046C0000FFBA3A12B4800F040FC0546A3A12948FD
:1046D00000F03BFC06460DB906B90124204670BD2A
:1046E00010B50024234B642223A19FA0FFF713FDE4
:1046F000044614B9A0A000F0F3FA204610BD70B52E
:104700000024002500261B4B64221BA1A3A0FFF759
:1047100002FD0446002C13D1A3A000F0E1FA1549D4
:1047200022A000F0DDFAA9A1124800F00EFC054617
:10473000A8A1104800F009FC06460DB906B90124ED
:10474000204670BD70B5044600252246A3A1A748A7
:1047500000F0D2FA074B642207A1A448FFF7DBFC64
:10476000054615B9A2A000F0BBFA284670BD0000AE
:10477000C87D0008840300204F4B000041540D0AFF
:10478000000000005B494E464F5D434845434B20C7
:104790004D4F44454C20524553504F4E53452053A6
:1047A0005543434553530D0A000000005B494E46F4
:1047B0004F5D524553504F4E53452049532025736A
:1047C0000D0A00005245424F4F54494E4700000029
:1047D00041542B4E52420D0A000000005B494E46E8
:1047E0004F5D5245424F4F5420524553504F4E5308
:1047F0004520535543434553530D0A005B494E46EC
:104800004F5D47455441434B20524553504F4E5303
:104810004520535543434553530D0A0041542B4300
:104820004D45453D310D0A005B494E464F5D5345B0
:1048300054434D454520524553504F4E5345205308
:104840005543434553530D0A0000000041542B4E7D
:1048500042414E443F0D0A005B494E464F5D47457D
:10486000544E42414E4420524553504F4E534520E2
:10487000535543434553530D0A000000343600009E
:1048800041542B43494D490D0A0000005B494E46F7
:104890004F5D47455443494D4920524553504F4E73
:1048A000534520535543434553530D0A0000000020
:1048B0005B494E464F5D415420524553504F4E5335
:1048C00045204641494C0D0A0000000041542B434D
:1048D000474154543D310D0A000000005B494E46EB
:1048E0004F5D534554434741545420524553504F14
:1048F0004E534520535543434553530D0A00000082
:1049000041542B4353510D0A000000005B455252A5
:104910004F525D474554435351204661696C0A002C
:1049200041542B43455245473F0D0A005B494E46D3
:104930004F5D474554434552454720524553504FDC
:104940004E534520535543434553530D0A00000031
:104950002B43455245473A302C3100002B434552FA
:1049600045473A312C31000041542B4345524547CD
:104970003D310D0A000000005B494E464F5D534536
:1049800054434552454720524553504F4E534520BE
:10499000535543434553530D0A00000041542B43E4
:1049A0004F50533F0D0A00005B494E464F5D47454F
:1049B00054434F505320524553504F4E534520536C
:1049C0005543434553530D0A00000000343630313F
:1049D00031000000343630303000000041542B4E9E
:1049E0004344503D25730D0A00000000840500205B
:1049F0005B494E464F5D5345544E4344502052450B
:104A000053504F4E534520535543434553530D0A7E
:104A10000000000070B504460025204600F0A7FA0B
:104A20004608234632466AA16D4800F065F96D4B91
:104A30004FF4FA62AFF2C0216948FFF76CFB0546FC
:104A400015B969A000F04CF9284670BD10B50024D6
:104A5000644B6422AFF2E0216CA0FFF75CFB0446DC
:104A600014B973A000F03CF9204610BD70B50024C5
:104A700000255C4B6422AFF2003176A0FFF74BFBC0
:104A800004464CB976A000F02BF97EA1554800F001
:104A90005CFA054605B90124204670BD70B50024B6
:104AA000002500264F4B6422AFF2343178A0FFF787
:104AB00032FB0446002C14D178A000F011F94949CA
:104AC000AFF2183000F00CF97DA1464800F03DFA35
:104AD00005467EA1434800F038FA06460DB906B9EE
:104AE0000124204670BD0160027170472DE9F04736
:104AF00004464FF0000904F10509B4F8868000254A
:104B000043E005EB4502216851F8220000F02FFA3E
:104B100087B205EB4502216801EB8201486800F08D
:104B200026FA86B2B819404500DD2CE06FB105EBDE
:104B30004502206850F822103A46484600F036FAFE
:104B400008B9012002E0002000E00120D0B186B1C8
:104B500005EB4503226802EB8302516809EB08026A
:104B6000901B324600F022FA08B9012002E0002032
:104B700000E0012030B105EB4501206800EB810029
:104B8000BDE8F08700BF681C85B22079A842B8DC78
:104B90000020F5E770B5044600252046FFF737FBF7
:104BA000054695B92046FFF7A1FF061E0CD04A48DE
:104BB000006808B9012000E0002047490860B4F807
:104BC0008610601DB268904700BF284670BD000087
:104BD00041542B4E4D47533D25642C25730D0A003F
:104BE00084050020840300205B494E464F5D5345F9
:104BF000544E4D475320524553504F4E534520532A
:104C00005543434553530D0A0000000041542B43C4
:104C10004744434F4E543D312C224950222C2248C8
:104C200055415745492E434F4D220D0A00000000C3
:104C30005B494E464F5D534554434744434F4E54A2
:104C400020524553504F4E534520535543434553EF
:104C5000530D0A0041542B43474154543F0D0A0061
:104C60005B494E464F5D474554434741545420529B
:104C70004553504F4E534520535543434553530DD1
:104C80000A0000002B43474154543A310000000011
:104C900041542B4353434F4E3F0D0A005B494E4650
:104CA0004F5D4745544353434F4E20524553504F59
:104CB0004E534520535543434553530D0A000000BE
:104CC0002B4353434F4E3A302C3100002B43534378
:104CD0004F4E3A302C300000A48242427047000010
:104CE0000FB4044910B503AA029800F0E3FC10BC0D
:104CF0005DF814FB1C0000200FB41CB5084B06AA7D
:104D00007B4469460090059800F0A5FC044600200D
:104D1000694600F0B3FC20461CBC5DF814FB0000A3
:104D20007909000070B5044685690068C10601D59F
:104D3000302600E02026C00707D070BDD4E901214D
:104D400030469047206A401C20626D1EF6D570BD2B
:104D500070B5044685690078C00707D170BDD4E9F5
:104D6000012120209047206A401C20626D1EF6D54C
:104D700070BD70B50C460546012A05D0287880061E
:104D800000D5EA69002302E0012305E05B1C9342A1
:104D900002D2E05C0028F9D1A869E618C01AA8611F
:104DA000286A184428622846FFF7BCFF04E0D5E9CA
:104DB000012114F8010B9047B442F8D32846FFF7BD
:104DC000C7FF70BD2DE9F041064600241068752923
:104DD000314616A510D0AFF30080002802DA404219
:104DE00013A507E031688A0701D512A502E049073B
:104DF00004D511A5012401E0AFF3008000210A22AF
:104E000006F1240709E0B0FBF2FCB0FBF2F302FB71
:104E10001C00303078541846491C0028F3D1234632
:104E20002A463046BDE8F04100F0A8B90000000075
:104E30002D0000002B000000200000002DE9F047AD
:104E40004FF0000A89460446C0F820A02046E168D9
:104E50008847002876D0252806D0D4E9012190473C
:104E6000206A401C2062F1E7E1682046002588475F
:104E7000C4F81CA006460027C4F818A02A2E09D0A2
:104E8000304602F0A9F838B304EB8708303EC8F882
:104E9000186019E059F8041B204604EB8702916161
:104EA000E1688847012F064618D1E069002820DA1A
:104EB00025F020051DE0D8F8180000EB800006EB77
:104EC00040003038C8F818002046E1688847064698
:104ED00002F082F80028EED1012F0AD02E2E08D140
:104EE0002046E16888477F1C0646022F45F02005D2
:104EF000C4DBA069002803DA404245F00105A06147
:104F0000E80701D025F01005B6B1A6F14100192837
:104F100002D8203645F400654A46314620462560D1
:104F20004D46FBF76BF958B1012806D0ED1D25F071
:104F3000070000F1080989E704E005F1040985E7A5
:104F400030468AE7206ABDE8F08730B505460B4653
:104F50002A4613F8014B12F8010B08B1A042F8D011
:104F60001CB1002802D06D1CF1E7284630BD10B5F9
:104F7000431C02E010F8011B71B18107FAD14FF018
:104F8000013202C88C1A8C4314EAC211F9D0C01A3B
:104F90000A0603D0C01E10BDC01A10BD0A0401D0FD
:104FA000801E10BD0902FCD0401E10BD40EA010366
:104FB00070B59B072ED14FF00136042A2AD308C8BA
:104FC00010C99D1B9D43121F15EAC61517D0D8B2F4
:104FD000E1B2401A50EA056110D198B2A1B2401A6C
:104FE00050EA05410AD123F07F4024F07F41401A66
:104FF00050EA052102D1180EA0EB146070BDA34247
:10500000DBD018BA21BA884201D9012070BD4FF017
:10501000FF3070BD0AB9002070BD10F8013B11F8D7
:10502000014B63B1A3420AD1521E08D010F8013BD4
:1050300011F8014B1BB1A34201D1521EEDD1181B37
:1050400070BD032A40F2308010F0030C00F0158090
:1050500011F8013BBCF1020F624498BF11F801CB7B
:1050600000F8013B38BF11F8013BA2F1040298BFE0
:1050700000F801CB38BF00F8013B11F0030300F04A
:105080002B83083AC0F0088051F8043B083A51F8E5
:1050900004CBA0E80810F5E7121D5CBF51F8043BF3
:1050A00040F8043BAFF30080D20724BF11F8013B66
:1050B00011F801CB48BF11F8012B24BF00F8013BC8
:1050C00000F801CB48BF00F8012B70474FF00002F9
:1050D0000429C0F0128010F0030C00F01B80CCF10A
:1050E000040CBCF1020F18BF00F8012BA8BF20F878
:1050F000022BA1EB0C0100F00DB85FEAC17C24BFCC
:1051000000F8012B00F8012B48BF00F8012B704775
:105110004FF0000200B5134694469646203922BF50
:10512000A0E80C50A0E80C50B1F12001BFF4F7AF9B
:10513000090728BFA0E80C5048BF0CC05DF804EB7D
:10514000890028BF40F8042B08BF704748BF20F8EB
:10515000022B11F0804F18BF00F8012B70477047E9
:1051600070477047704710B500F0ECFA006810BD4A
:1051700010B5044600F0E6FA046010BD2DE9F047D2
:105180000D4699469246044600F1240801688806B7
:1051900004D5E06921F01001216000E00120A8425F
:1051A00001DD471B00E00027A1697A1902EB090025
:1051B000081AA0612078C00602D42046FFF7B2FD8D
:1051C000002608E0D4E901211AF806009047206A79
:1051D000401C761C20624E45F4DB2078C0060AD5C0
:1051E0002046FFF79FFD06E0D4E9012130209047DB
:1051F000206A401C2062381EA7F10107F4DC07E09A
:10520000D4E9012118F805009047206A401C20626B
:10521000281EA5F10105F3DC2046FFF799FD207853
:10522000000602D50220BDE8F0870120FBE77047A9
:105230002DE9FF4F0C461E464FF0FF378BB0D2E9E9
:105240000001DDF860800A908A46C1F30A5505B96D
:105250003D46002108464FF00000BAF1000F00F46F
:10526000400005DA00EB80004FF4400101EA5000F5
:105270004FEA9059B9F1010F00DDB9460A9850EA9A
:105280004A000ED044F61050A5F2FF3545432F14C6
:10529000B8F1000F1ED07542291E1EDDC9F10002B3
:1052A0001CE0B8F1010F4FF0000001D0302103E005
:1052B000F24305E02154401CB042FBDB30460022A3
:1052C000002121540B99C1F80880C1E900200FB0DA
:1052D000BDE8F08FBD1B6D1CDEE74A4600DA69426F
:1052E00006A800F0B9FA06AB93E8070003AB83E821
:1052F000070050460A9900F097FB8DE80700A0F5DB
:1053000000501F3800900398002D0ADD42F21F0163
:105310004A460844002303A90390684600F000FEB3
:1053200009E0A0F500504A461F38002303A9039066
:10533000684600F00AFE8DE807000004000C03D068
:105340004FF0FF30410800E01046B8F1000F03D0E5
:105350000022009215461EE0751E05D400F0F6F9F5
:10536000303262556D1EF9D5B3460122084302D092
:1053700000227F1C04E02078302801D100227F1E0B
:10538000002A099784D01DE0112D07DA00F0DEF91C
:10539000303262556D1C50EA0102F5D1084302D04B
:1053A0000098C8B10EE00021681E05E0235C625C35
:1053B00063542254401E491C8142F7DBAB46A81BB4
:1053C000401E0990002004F80B000B98099AC0F8C1
:1053D0000880C0E9002B7AE711264FF0000857E754
:1053E0002DE9F04F88460446D21D22F0070191B006
:1053F000D1E90001CDE90A0100F0DEFE02460B987A
:10540000C00F01D02D2007E02068810701D52B2097
:1054100002E0202101EAC000032A099001D0072AF6
:1054200005DB03464146204600F0D6F90BE1207823
:10543000800601D5E06900E00620B8F1650F8146DD
:1054400006D0B8F1660F18D0B8F1670F70D131E00F
:105450000020B9F1110F009001DB112301E009F1E7
:1054600001030AAA01A90CA8FFF7E2FEDDE90C700E
:10547000002609F10105834647E001204B460090D4
:105480004FF000470AAA01A90CA8FFF7D1FEDDE9F9
:105490000DB00C995D46002610B909F101000D18F8
:1054A000B9EB050003D4C0F1FF3609F10105A5EB06
:1054B00009002BE0B9F1010F01DA4FF001090020DA
:1054C000B9F1110F0090484601DD112300E00346B9
:1054D0000AAA01A90CA8FFF7ABFEDDE90C704D4646
:1054E00000268346207800070AD4AB4500DA5D46E3
:1054F00001A8012D04DD411911F8011C302907D044
:105500004F4502DA17F1040F04DA012082460FE05A
:105510006D1EEEE7002F02DCED1B3E4403E0781C1D
:10552000A84200DD7D1CB81B00F1010A4FF00047C6
:105530002078000703D4AA4501DB4FF0FF3A002191
:10554000B7F1004F0DF143088DF8431024D002202D
:105550002B23002F01DA7F422D230A21021EA0F106
:10556000010000DC5FB197FBF1FC97FBF1F201FB5E
:105570001C7C17460CF1300C08F801CDEEE7A8F1C1
:10558000010003702188090501D5452100E065214E
:10559000A0F1010800F8011C09980FA9A1EB080768
:1055A000FF1D00B10120411901EBEA70A1693844E7
:1055B000081A401EA0612078C00602D42046FFF7DA
:1055C000B1FB099828B1D4E901219047206A401C19
:1055D00020622078C00622D52046FFF7A3FB1EE0FC
:1055E000002E04DBB34502DD01A8805D00E0302021
:1055F000D4E901219047206A401C2062761CAAF160
:1056000001005FEA000A0AD100F098F8C06801685A
:10561000405CD4E901219047206A401C2062281E8A
:10562000A5F10105DCDC07E0D4E9012118F8010B44
:105630009047206A401C2062381EA7F10107F3DC66
:105640002046FFF785FB032011B041E601694A1CA3
:1056500002610878704700B58FB0CDE901310021B3
:10566000059105497944CDE9031011466846FFF7D5
:10567000E5FB0FB000BD0000E5FFFFFF0A6802F880
:10568000010B0A60704710B5436913B1AFF3008096
:1056900001E0FFF76EFB012010BD127800F124013C
:1056A0000A7000224A700122EDE711684FF0FF32C4
:1056B000E9E70000074B70B50D467B44FFF7CBFFD1
:1056C0000446284600F03AF910B14FF0FF3070BDA3
:1056D000204670BDA5C1FFFF10B5203AC0F00B8079
:1056E000B1E81850203AA0E81850B1E81850A0E8E6
:1056F0001850BFF4F5AF5FEA027C24BFB1E8185040
:10570000A0E8185044BF18C918C0BDE810405FEAAF
:10571000827C24BF51F8043B40F8043B08BF70472B
:10572000D20728BF31F8023B48BF11F8012B28BF30
:1057300020F8023B48BF00F8012B70470048704733
:10574000A4090020004870478409002030B5B0F15A
:105750000A024FEA900E71F100034EEA817EB0EB2F
:105760000E0061EB91014FEA101E4EEA017E10EB34
:105770000E0041EB11114FEA102E4EEA016E10EBB4
:105780000E0041EB11214FEA104E4EEA014E10EB94
:105790000E0041EB1141401841F100014FEAD000E9
:1057A00040EA41704FEAD10110EB80054FEA8104D5
:1057B00044EA907444EB01046D1944EB0404521B59
:1057C000A3414FF0000348BF0A3200D530BD401C52
:1057D00041F1000130BD00002DE9F0411F460446B3
:1057E00003260168072A01F4006004DB08B116A54E
:1057F00005E016A503E008B115A500E015A521F008
:1058000010002060A069C01EA0610FB1401EA06101
:105810002046FFF787FA4FB1D4E901213846904777
:10582000206A401C2062C01C206206E0206AFAE761
:10583000D4E9012115F8010B9047761EF8D22046D5
:10584000FFF786FABDE8F0814E414E006E616E00B2
:10585000494E4600696E66002DE9F04781461646BE
:105860008AB0354878440DC88DE80D003248784438
:10587000801C03AC0DC884E80D0041F69B30084441
:10588000372190FBF1F290FBF1F5A5F1800501FBCA
:1058900012041B3C02D56442012000E00020DFF826
:1058A00098A080460027FA44AAF1BE0A0EE0E0075D
:1058B0000AD03246684607EB470101230AEB810113
:1058C00000F043FB8DE8070064107F1C002CEED134
:1058D000194F7F44AE3F19E0E80715D007EB0410DD
:1058E0000DF1180A90E80E008AE80E00C068F04238
:1058F00001D1981908903246012306A903A800F0A7
:1059000024FB03AB83E807006D10641C002DE3D17A
:105910004FF0010332466946B8F1000F03A802D0E8
:1059200000F0FEFA01E000F010FBC9E90001C9F83F
:1059300008200AB0BDE8F0877C260000007B00F05C
:105940008000704700487047840900207546FFF7C3
:10595000F9FFAE4605006946534620F0070085462C
:1059600018B020B5FCF72EF8BDE820404FF0000637
:105970004FF000074FF000084FF0000B21F0070137
:10598000AC46ACE8C009ACE8C009ACE8C009ACE87A
:10599000C0098D46704710B50446AFF3008020461D
:1059A000BDE81040FAF74FBC4FF0013C50F8042B13
:1059B00051F8043B9A4221D1A2EB0C03934313EA22
:1059C000CC1317D150F8042B51F8043B9A4215D14F
:1059D000A2EB0C03934313EACC130BD150F8042B26
:1059E00051F8043B9A4209D1A2EB0C03934313EA0A
:1059F000CC13DBD04FF00000704700BFD01A01BAC3
:105A0000B1FA81F101F0180122FA01F0CB40C1F1A5
:105A10002001DBB2C0B2C01A2CFA01F3D11A9143B3
:105A200011EAC311E6D170475FEA400C08BF91F05C
:105A3000000F4FEA8C234FEAC12243EA51514FEA4B
:105A40001C5018BF00F5F0404FEA300018BF41F07D
:105A500000415FEA6C5C00F02980BCF1FF3F08BFA9
:105A600040F080407047130C06BF12044FF0100C3A
:105A70004FF0000C130E04BF12020CF1080C130FB0
:105A800004BF12010CF1040C930F04BF92000CF13F
:105A9000020CD30F04BF52000CF1010C11464FF061
:105AA0000002A0F11F00A0EB0C00704711F0004FA6
:105AB00008BF704731F000413FF4D5AF0B0C06BF73
:105AC00009044FF0100C4FF0000C0B0E04BF09023C
:105AD0000CF1080C0B0F04BF09010CF1040C8B0F27
